{
	"Contracts.sol": {
		"oddEvenGame": {
			"abi": [
				{
					"inputs": [
						{
							"internalType": "uint256",
							"name": "_userNum",
							"type": "uint256"
						}
					],
					"name": "play",
					"outputs": [
						{
							"internalType": "string",
							"name": "",
							"type": "string"
						}
					],
					"stateMutability": "nonpayable",
					"type": "function"
				},
				{
					"inputs": [],
					"name": "reset",
					"outputs": [],
					"stateMutability": "nonpayable",
					"type": "function"
				},
				{
					"inputs": [],
					"name": "score",
					"outputs": [
						{
							"internalType": "uint256",
							"name": "",
							"type": "uint256"
						}
					],
					"stateMutability": "view",
					"type": "function"
				}
			],
			"devdoc": {
				"kind": "dev",
				"methods": {},
				"version": 1
			},
			"evm": {
				"assembly": "    /* \"Contracts.sol\":110:1028  contract oddEvenGame{... */\n  mstore(0x40, 0x80)\n    /* \"Contracts.sol\":177:182  false */\n  0x00\n    /* \"Contracts.sol\":162:182  bool isEnded = false */\n  0x01\n  exp(0x0100, 0x00)\n  dup2\n  sload\n  dup2\n  0xff\n  mul\n  not\n  and\n  swap1\n  dup4\n  iszero\n  iszero\n  mul\n  or\n  swap1\n  sstore\n  pop\n    /* \"Contracts.sol\":209:210  0 */\n  0x00\n    /* \"Contracts.sol\":189:210  uint256 randNonce = 0 */\n  0x02\n  sstore\n    /* \"Contracts.sol\":110:1028  contract oddEvenGame{... */\n  callvalue\n  dup1\n  iszero\n  tag_1\n  jumpi\n  0x00\n  dup1\n  revert\ntag_1:\n  pop\n  dataSize(sub_0)\n  dup1\n  dataOffset(sub_0)\n  0x00\n  codecopy\n  0x00\n  return\nstop\n\nsub_0: assembly {\n        /* \"Contracts.sol\":110:1028  contract oddEvenGame{... */\n      mstore(0x40, 0x80)\n      callvalue\n      dup1\n      iszero\n      tag_1\n      jumpi\n      0x00\n      dup1\n      revert\n    tag_1:\n      pop\n      jumpi(tag_2, lt(calldatasize, 0x04))\n      shr(0xe0, calldataload(0x00))\n      dup1\n      0x6898f82b\n      eq\n      tag_3\n      jumpi\n      dup1\n      0xd826f88f\n      eq\n      tag_4\n      jumpi\n      dup1\n      0xefedc669\n      eq\n      tag_5\n      jumpi\n    tag_2:\n      0x00\n      dup1\n      revert\n        /* \"Contracts.sol\":471:1026  function play(uint256 _userNum) public returns(string memory) {... */\n    tag_3:\n      tag_6\n      0x04\n      dup1\n      calldatasize\n      sub\n      dup2\n      add\n      swap1\n      tag_7\n      swap2\n      swap1\n      tag_8\n      jump\t// in\n    tag_7:\n      tag_9\n      jump\t// in\n    tag_6:\n      mload(0x40)\n      tag_10\n      swap2\n      swap1\n      tag_11\n      jump\t// in\n    tag_10:\n      mload(0x40)\n      dup1\n      swap2\n      sub\n      swap1\n      return\n        /* \"Contracts.sol\":391:465  function reset() public{... */\n    tag_4:\n      tag_12\n      tag_13\n      jump\t// in\n    tag_12:\n      stop\n        /* \"Contracts.sol\":136:156  uint256 public score */\n    tag_5:\n      tag_14\n      tag_15\n      jump\t// in\n    tag_14:\n      mload(0x40)\n      tag_16\n      swap2\n      swap1\n      tag_17\n      jump\t// in\n    tag_16:\n      mload(0x40)\n      dup1\n      swap2\n      sub\n      swap1\n      return\n        /* \"Contracts.sol\":471:1026  function play(uint256 _userNum) public returns(string memory) {... */\n    tag_9:\n        /* \"Contracts.sol\":518:531  string memory */\n      0x60\n        /* \"Contracts.sol\":562:566  true */\n      0x01\n        /* \"Contracts.sol\":551:566  isEnded != true */\n      iszero\n      iszero\n        /* \"Contracts.sol\":551:558  isEnded */\n      0x01\n      0x00\n      swap1\n      sload\n      swap1\n      0x0100\n      exp\n      swap1\n      div\n      0xff\n      and\n        /* \"Contracts.sol\":551:566  isEnded != true */\n      iszero\n      iszero\n      eq\n      iszero\n        /* \"Contracts.sol\":543:619  require(isEnded != true,\"Match has ended.. Press Reset button to Restart..\") */\n      tag_19\n      jumpi\n      mload(0x40)\n      0x08c379a000000000000000000000000000000000000000000000000000000000\n      dup2\n      mstore\n      0x04\n      add\n      tag_20\n      swap1\n      tag_21\n      jump\t// in\n    tag_20:\n      mload(0x40)\n      dup1\n      swap2\n      sub\n      swap1\n      revert\n    tag_19:\n        /* \"Contracts.sol\":648:649  1 */\n      0x01\n        /* \"Contracts.sol\":637:645  _userNum */\n      dup3\n        /* \"Contracts.sol\":637:649  _userNum >=1 */\n      lt\n      iszero\n        /* \"Contracts.sol\":637:666  _userNum >=1 && _userNum <= 6 */\n      dup1\n      iszero\n      tag_22\n      jumpi\n      pop\n        /* \"Contracts.sol\":665:666  6 */\n      0x06\n        /* \"Contracts.sol\":653:661  _userNum */\n      dup3\n        /* \"Contracts.sol\":653:666  _userNum <= 6 */\n      gt\n      iszero\n        /* \"Contracts.sol\":637:666  _userNum >=1 && _userNum <= 6 */\n    tag_22:\n        /* \"Contracts.sol\":629:706  require(_userNum >=1 && _userNum <= 6, \"Give a valid number between 1 and 6\") */\n      tag_23\n      jumpi\n      mload(0x40)\n      0x08c379a000000000000000000000000000000000000000000000000000000000\n      dup2\n      mstore\n      0x04\n      add\n      tag_24\n      swap1\n      tag_25\n      jump\t// in\n    tag_24:\n      mload(0x40)\n      dup1\n      swap2\n      sub\n      swap1\n      revert\n    tag_23:\n        /* \"Contracts.sol\":717:737  uint256 randomNumber */\n      0x00\n        /* \"Contracts.sol\":751:752  1 */\n      0x01\n        /* \"Contracts.sol\":740:750  randomNo() */\n      tag_26\n        /* \"Contracts.sol\":740:748  randomNo */\n      tag_27\n        /* \"Contracts.sol\":740:750  randomNo() */\n      jump\t// in\n    tag_26:\n        /* \"Contracts.sol\":740:752  randomNo()+1 */\n      tag_28\n      swap2\n      swap1\n      tag_29\n      jump\t// in\n    tag_28:\n        /* \"Contracts.sol\":717:752  uint256 randomNumber = randomNo()+1 */\n      swap1\n      pop\n        /* \"Contracts.sol\":778:790  randomNumber */\n      dup1\n        /* \"Contracts.sol\":766:774  _userNum */\n      dup4\n        /* \"Contracts.sol\":766:790  _userNum != randomNumber */\n      eq\n        /* \"Contracts.sol\":763:1020  if(_userNum != randomNumber){... */\n      tag_30\n      jumpi\n        /* \"Contracts.sol\":814:826  randomNumber */\n      dup1\n        /* \"Contracts.sol\":805:810  score */\n      0x00\n      dup1\n        /* \"Contracts.sol\":805:826  score += randomNumber */\n      dup3\n      dup3\n      sload\n      tag_31\n      swap2\n      swap1\n      tag_29\n      jump\t// in\n    tag_31:\n      swap3\n      pop\n      pop\n      dup2\n      swap1\n      sstore\n      pop\n        /* \"Contracts.sol\":861:891  Strings.toString(randomNumber) */\n      tag_32\n        /* \"Contracts.sol\":878:890  randomNumber */\n      dup2\n        /* \"Contracts.sol\":861:877  Strings.toString */\n      tag_33\n        /* \"Contracts.sol\":861:891  Strings.toString(randomNumber) */\n      jump\t// in\n    tag_32:\n        /* \"Contracts.sol\":847:900  string.concat(Strings.toString(randomNumber),\" RUNS\") */\n      add(0x20, mload(0x40))\n      tag_34\n      swap2\n      swap1\n      tag_35\n      jump\t// in\n    tag_34:\n      mload(0x40)\n      0x20\n      dup2\n      dup4\n      sub\n      sub\n      dup2\n      mstore\n      swap1\n      0x40\n      mstore\n        /* \"Contracts.sol\":840:900  return string.concat(Strings.toString(randomNumber),\" RUNS\") */\n      swap2\n      pop\n      pop\n      jump(tag_18)\n        /* \"Contracts.sol\":763:1020  if(_userNum != randomNumber){... */\n    tag_30:\n        /* \"Contracts.sol\":939:943  true */\n      0x01\n        /* \"Contracts.sol\":929:936  isEnded */\n      dup1\n      0x00\n        /* \"Contracts.sol\":929:943  isEnded = true */\n      0x0100\n      exp\n      dup2\n      sload\n      dup2\n      0xff\n      mul\n      not\n      and\n      swap1\n      dup4\n      iszero\n      iszero\n      mul\n      or\n      swap1\n      sstore\n      pop\n        /* \"Contracts.sol\":978:1001  Strings.toString(score) */\n      tag_37\n        /* \"Contracts.sol\":995:1000  score */\n      sload(0x00)\n        /* \"Contracts.sol\":978:994  Strings.toString */\n      tag_33\n        /* \"Contracts.sol\":978:1001  Strings.toString(score) */\n      jump\t// in\n    tag_37:\n        /* \"Contracts.sol\":964:1009  string.concat(Strings.toString(score),\" OUT\") */\n      add(0x20, mload(0x40))\n      tag_38\n      swap2\n      swap1\n      tag_39\n      jump\t// in\n    tag_38:\n      mload(0x40)\n      0x20\n      dup2\n      dup4\n      sub\n      sub\n      dup2\n      mstore\n      swap1\n      0x40\n      mstore\n        /* \"Contracts.sol\":957:1009  return string.concat(Strings.toString(score),\" OUT\") */\n      swap2\n      pop\n      pop\n        /* \"Contracts.sol\":471:1026  function play(uint256 _userNum) public returns(string memory) {... */\n    tag_18:\n      swap2\n      swap1\n      pop\n      jump\t// out\n        /* \"Contracts.sol\":391:465  function reset() public{... */\n    tag_13:\n        /* \"Contracts.sol\":432:433  0 */\n      0x00\n        /* \"Contracts.sol\":424:429  score */\n      dup1\n        /* \"Contracts.sol\":424:433  score = 0 */\n      dup2\n      swap1\n      sstore\n      pop\n        /* \"Contracts.sol\":453:458  false */\n      0x00\n        /* \"Contracts.sol\":443:450  isEnded */\n      0x01\n      0x00\n        /* \"Contracts.sol\":443:458  isEnded = false */\n      0x0100\n      exp\n      dup2\n      sload\n      dup2\n      0xff\n      mul\n      not\n      and\n      swap1\n      dup4\n      iszero\n      iszero\n      mul\n      or\n      swap1\n      sstore\n      pop\n        /* \"Contracts.sol\":391:465  function reset() public{... */\n      jump\t// out\n        /* \"Contracts.sol\":136:156  uint256 public score */\n    tag_15:\n      sload(0x00)\n      dup2\n      jump\t// out\n        /* \"Contracts.sol\":216:385  function randomNo() private returns (uint) {... */\n    tag_27:\n        /* \"Contracts.sol\":253:257  uint */\n      0x00\n        /* \"Contracts.sol\":269:278  randNonce */\n      0x02\n      0x00\n        /* \"Contracts.sol\":269:280  randNonce++ */\n      dup2\n      sload\n      dup1\n      swap3\n      swap2\n      swap1\n      tag_42\n      swap1\n      tag_43\n      jump\t// in\n    tag_42:\n      swap2\n      swap1\n      pop\n      sstore\n      pop\n        /* \"Contracts.sol\":377:378  6 */\n      0x06\n        /* \"Contracts.sol\":333:348  block.timestamp */\n      timestamp\n        /* \"Contracts.sol\":350:360  msg.sender */\n      caller\n        /* \"Contracts.sol\":362:371  randNonce */\n      sload(0x02)\n        /* \"Contracts.sol\":316:372  abi.encodePacked(block.timestamp, msg.sender, randNonce) */\n      add(0x20, mload(0x40))\n      tag_44\n      swap4\n      swap3\n      swap2\n      swap1\n      tag_45\n      jump\t// in\n    tag_44:\n      mload(0x40)\n      0x20\n      dup2\n      dup4\n      sub\n      sub\n      dup2\n      mstore\n      swap1\n      0x40\n      mstore\n        /* \"Contracts.sol\":306:373  keccak256(abi.encodePacked(block.timestamp, msg.sender, randNonce)) */\n      dup1\n      mload\n      swap1\n      0x20\n      add\n      keccak256\n        /* \"Contracts.sol\":298:374  uint256(keccak256(abi.encodePacked(block.timestamp, msg.sender, randNonce))) */\n      0x00\n      shr\n        /* \"Contracts.sol\":298:378  uint256(keccak256(abi.encodePacked(block.timestamp, msg.sender, randNonce))) % 6 */\n      tag_46\n      swap2\n      swap1\n      tag_47\n      jump\t// in\n    tag_46:\n        /* \"Contracts.sol\":291:378  return uint256(keccak256(abi.encodePacked(block.timestamp, msg.sender, randNonce))) % 6 */\n      swap1\n      pop\n        /* \"Contracts.sol\":216:385  function randomNo() private returns (uint) {... */\n      swap1\n      jump\t// out\n        /* \"@openzeppelin/contracts/utils/Strings.sol\":392:1095  function toString(uint256 value) internal pure returns (string memory) {... */\n    tag_33:\n        /* \"@openzeppelin/contracts/utils/Strings.sol\":448:461  string memory */\n      0x60\n        /* \"@openzeppelin/contracts/utils/Strings.sol\":674:675  0 */\n      0x00\n        /* \"@openzeppelin/contracts/utils/Strings.sol\":665:670  value */\n      dup3\n        /* \"@openzeppelin/contracts/utils/Strings.sol\":665:675  value == 0 */\n      eq\n        /* \"@openzeppelin/contracts/utils/Strings.sol\":661:712  if (value == 0) {... */\n      iszero\n      tag_49\n      jumpi\n        /* \"@openzeppelin/contracts/utils/Strings.sol\":691:701  return \"0\" */\n      mload(0x40)\n      dup1\n      0x40\n      add\n      0x40\n      mstore\n      dup1\n      0x01\n      dup2\n      mstore\n      0x20\n      add\n      0x3000000000000000000000000000000000000000000000000000000000000000\n      dup2\n      mstore\n      pop\n      swap1\n      pop\n      jump(tag_48)\n        /* \"@openzeppelin/contracts/utils/Strings.sol\":661:712  if (value == 0) {... */\n    tag_49:\n        /* \"@openzeppelin/contracts/utils/Strings.sol\":721:733  uint256 temp */\n      0x00\n        /* \"@openzeppelin/contracts/utils/Strings.sol\":736:741  value */\n      dup3\n        /* \"@openzeppelin/contracts/utils/Strings.sol\":721:741  uint256 temp = value */\n      swap1\n      pop\n        /* \"@openzeppelin/contracts/utils/Strings.sol\":751:765  uint256 digits */\n      0x00\n        /* \"@openzeppelin/contracts/utils/Strings.sol\":775:850  while (temp != 0) {... */\n    tag_50:\n        /* \"@openzeppelin/contracts/utils/Strings.sol\":790:791  0 */\n      0x00\n        /* \"@openzeppelin/contracts/utils/Strings.sol\":782:786  temp */\n      dup3\n        /* \"@openzeppelin/contracts/utils/Strings.sol\":782:791  temp != 0 */\n      eq\n        /* \"@openzeppelin/contracts/utils/Strings.sol\":775:850  while (temp != 0) {... */\n      tag_51\n      jumpi\n        /* \"@openzeppelin/contracts/utils/Strings.sol\":807:815  digits++ */\n      dup1\n      dup1\n      tag_52\n      swap1\n      tag_43\n      jump\t// in\n    tag_52:\n      swap2\n      pop\n      pop\n        /* \"@openzeppelin/contracts/utils/Strings.sol\":837:839  10 */\n      0x0a\n        /* \"@openzeppelin/contracts/utils/Strings.sol\":829:839  temp /= 10 */\n      dup3\n      tag_53\n      swap2\n      swap1\n      tag_54\n      jump\t// in\n    tag_53:\n      swap2\n      pop\n        /* \"@openzeppelin/contracts/utils/Strings.sol\":775:850  while (temp != 0) {... */\n      jump(tag_50)\n    tag_51:\n        /* \"@openzeppelin/contracts/utils/Strings.sol\":859:878  bytes memory buffer */\n      0x00\n        /* \"@openzeppelin/contracts/utils/Strings.sol\":891:897  digits */\n      dup2\n        /* \"@openzeppelin/contracts/utils/Strings.sol\":881:898  new bytes(digits) */\n      0xffffffffffffffff\n      dup2\n      gt\n      iszero\n      tag_55\n      jumpi\n      tag_56\n      tag_57\n      jump\t// in\n    tag_56:\n    tag_55:\n      mload(0x40)\n      swap1\n      dup1\n      dup3\n      mstore\n      dup1\n      0x1f\n      add\n      not(0x1f)\n      and\n      0x20\n      add\n      dup3\n      add\n      0x40\n      mstore\n      dup1\n      iszero\n      tag_58\n      jumpi\n      dup2\n      0x20\n      add\n      0x01\n      dup3\n      mul\n      dup1\n      calldatasize\n      dup4\n      calldatacopy\n      dup1\n      dup3\n      add\n      swap2\n      pop\n      pop\n      swap1\n      pop\n    tag_58:\n      pop\n        /* \"@openzeppelin/contracts/utils/Strings.sol\":859:898  bytes memory buffer = new bytes(digits) */\n      swap1\n      pop\n        /* \"@openzeppelin/contracts/utils/Strings.sol\":908:1058  while (value != 0) {... */\n    tag_59:\n        /* \"@openzeppelin/contracts/utils/Strings.sol\":924:925  0 */\n      0x00\n        /* \"@openzeppelin/contracts/utils/Strings.sol\":915:920  value */\n      dup6\n        /* \"@openzeppelin/contracts/utils/Strings.sol\":915:925  value != 0 */\n      eq\n        /* \"@openzeppelin/contracts/utils/Strings.sol\":908:1058  while (value != 0) {... */\n      tag_60\n      jumpi\n        /* \"@openzeppelin/contracts/utils/Strings.sol\":951:952  1 */\n      0x01\n        /* \"@openzeppelin/contracts/utils/Strings.sol\":941:952  digits -= 1 */\n      dup3\n      tag_61\n      swap2\n      swap1\n      tag_62\n      jump\t// in\n    tag_61:\n      swap2\n      pop\n        /* \"@openzeppelin/contracts/utils/Strings.sol\":1017:1019  10 */\n      0x0a\n        /* \"@openzeppelin/contracts/utils/Strings.sol\":1009:1014  value */\n      dup6\n        /* \"@openzeppelin/contracts/utils/Strings.sol\":1009:1019  value % 10 */\n      tag_63\n      swap2\n      swap1\n      tag_47\n      jump\t// in\n    tag_63:\n        /* \"@openzeppelin/contracts/utils/Strings.sol\":996:998  48 */\n      0x30\n        /* \"@openzeppelin/contracts/utils/Strings.sol\":996:1020  48 + uint256(value % 10) */\n      tag_64\n      swap2\n      swap1\n      tag_29\n      jump\t// in\n    tag_64:\n        /* \"@openzeppelin/contracts/utils/Strings.sol\":983:1022  bytes1(uint8(48 + uint256(value % 10))) */\n      0xf8\n      shl\n        /* \"@openzeppelin/contracts/utils/Strings.sol\":966:972  buffer */\n      dup2\n        /* \"@openzeppelin/contracts/utils/Strings.sol\":973:979  digits */\n      dup4\n        /* \"@openzeppelin/contracts/utils/Strings.sol\":966:980  buffer[digits] */\n      dup2\n      mload\n      dup2\n      lt\n      tag_65\n      jumpi\n      tag_66\n      tag_67\n      jump\t// in\n    tag_66:\n    tag_65:\n      0x20\n      add\n      add\n        /* \"@openzeppelin/contracts/utils/Strings.sol\":966:1022  buffer[digits] = bytes1(uint8(48 + uint256(value % 10))) */\n      swap1\n      not(0xffffffffffffffffffffffffffffffffffffffffffffffffffffffffffffff)\n      and\n      swap1\n      dup2\n      0x00\n      byte\n      swap1\n      mstore8\n      pop\n        /* \"@openzeppelin/contracts/utils/Strings.sol\":1045:1047  10 */\n      0x0a\n        /* \"@openzeppelin/contracts/utils/Strings.sol\":1036:1047  value /= 10 */\n      dup6\n      tag_68\n      swap2\n      swap1\n      tag_54\n      jump\t// in\n    tag_68:\n      swap5\n      pop\n        /* \"@openzeppelin/contracts/utils/Strings.sol\":908:1058  while (value != 0) {... */\n      jump(tag_59)\n    tag_60:\n        /* \"@openzeppelin/contracts/utils/Strings.sol\":1081:1087  buffer */\n      dup1\n        /* \"@openzeppelin/contracts/utils/Strings.sol\":1067:1088  return string(buffer) */\n      swap4\n      pop\n      pop\n      pop\n      pop\n        /* \"@openzeppelin/contracts/utils/Strings.sol\":392:1095  function toString(uint256 value) internal pure returns (string memory) {... */\n    tag_48:\n      swap2\n      swap1\n      pop\n      jump\t// out\n        /* \"#utility.yul\":88:205   */\n    tag_70:\n        /* \"#utility.yul\":197:198   */\n      0x00\n        /* \"#utility.yul\":194:195   */\n      dup1\n        /* \"#utility.yul\":187:199   */\n      revert\n        /* \"#utility.yul\":334:411   */\n    tag_72:\n        /* \"#utility.yul\":371:378   */\n      0x00\n        /* \"#utility.yul\":400:405   */\n      dup2\n        /* \"#utility.yul\":389:405   */\n      swap1\n      pop\n        /* \"#utility.yul\":334:411   */\n      swap2\n      swap1\n      pop\n      jump\t// out\n        /* \"#utility.yul\":417:539   */\n    tag_73:\n        /* \"#utility.yul\":490:514   */\n      tag_105\n        /* \"#utility.yul\":508:513   */\n      dup2\n        /* \"#utility.yul\":490:514   */\n      tag_72\n      jump\t// in\n    tag_105:\n        /* \"#utility.yul\":483:488   */\n      dup2\n        /* \"#utility.yul\":480:515   */\n      eq\n        /* \"#utility.yul\":470:533   */\n      tag_106\n      jumpi\n        /* \"#utility.yul\":529:530   */\n      0x00\n        /* \"#utility.yul\":526:527   */\n      dup1\n        /* \"#utility.yul\":519:531   */\n      revert\n        /* \"#utility.yul\":470:533   */\n    tag_106:\n        /* \"#utility.yul\":417:539   */\n      pop\n      jump\t// out\n        /* \"#utility.yul\":545:684   */\n    tag_74:\n        /* \"#utility.yul\":591:596   */\n      0x00\n        /* \"#utility.yul\":629:635   */\n      dup2\n        /* \"#utility.yul\":616:636   */\n      calldataload\n        /* \"#utility.yul\":607:636   */\n      swap1\n      pop\n        /* \"#utility.yul\":645:678   */\n      tag_108\n        /* \"#utility.yul\":672:677   */\n      dup2\n        /* \"#utility.yul\":645:678   */\n      tag_73\n      jump\t// in\n    tag_108:\n        /* \"#utility.yul\":545:684   */\n      swap3\n      swap2\n      pop\n      pop\n      jump\t// out\n        /* \"#utility.yul\":690:1019   */\n    tag_8:\n        /* \"#utility.yul\":749:755   */\n      0x00\n        /* \"#utility.yul\":798:800   */\n      0x20\n        /* \"#utility.yul\":786:795   */\n      dup3\n        /* \"#utility.yul\":777:784   */\n      dup5\n        /* \"#utility.yul\":773:796   */\n      sub\n        /* \"#utility.yul\":769:801   */\n      slt\n        /* \"#utility.yul\":766:885   */\n      iszero\n      tag_110\n      jumpi\n        /* \"#utility.yul\":804:883   */\n      tag_111\n      tag_70\n      jump\t// in\n    tag_111:\n        /* \"#utility.yul\":766:885   */\n    tag_110:\n        /* \"#utility.yul\":924:925   */\n      0x00\n        /* \"#utility.yul\":949:1002   */\n      tag_112\n        /* \"#utility.yul\":994:1001   */\n      dup5\n        /* \"#utility.yul\":985:991   */\n      dup3\n        /* \"#utility.yul\":974:983   */\n      dup6\n        /* \"#utility.yul\":970:992   */\n      add\n        /* \"#utility.yul\":949:1002   */\n      tag_74\n      jump\t// in\n    tag_112:\n        /* \"#utility.yul\":939:1002   */\n      swap2\n      pop\n        /* \"#utility.yul\":895:1012   */\n      pop\n        /* \"#utility.yul\":690:1019   */\n      swap3\n      swap2\n      pop\n      pop\n      jump\t// out\n        /* \"#utility.yul\":1025:1124   */\n    tag_75:\n        /* \"#utility.yul\":1077:1083   */\n      0x00\n        /* \"#utility.yul\":1111:1116   */\n      dup2\n        /* \"#utility.yul\":1105:1117   */\n      mload\n        /* \"#utility.yul\":1095:1117   */\n      swap1\n      pop\n        /* \"#utility.yul\":1025:1124   */\n      swap2\n      swap1\n      pop\n      jump\t// out\n        /* \"#utility.yul\":1130:1299   */\n    tag_76:\n        /* \"#utility.yul\":1214:1225   */\n      0x00\n        /* \"#utility.yul\":1248:1254   */\n      dup3\n        /* \"#utility.yul\":1243:1246   */\n      dup3\n        /* \"#utility.yul\":1236:1255   */\n      mstore\n        /* \"#utility.yul\":1288:1292   */\n      0x20\n        /* \"#utility.yul\":1283:1286   */\n      dup3\n        /* \"#utility.yul\":1279:1293   */\n      add\n        /* \"#utility.yul\":1264:1293   */\n      swap1\n      pop\n        /* \"#utility.yul\":1130:1299   */\n      swap3\n      swap2\n      pop\n      pop\n      jump\t// out\n        /* \"#utility.yul\":1305:1612   */\n    tag_77:\n        /* \"#utility.yul\":1373:1374   */\n      0x00\n        /* \"#utility.yul\":1383:1496   */\n    tag_116:\n        /* \"#utility.yul\":1397:1403   */\n      dup4\n        /* \"#utility.yul\":1394:1395   */\n      dup2\n        /* \"#utility.yul\":1391:1404   */\n      lt\n        /* \"#utility.yul\":1383:1496   */\n      iszero\n      tag_118\n      jumpi\n        /* \"#utility.yul\":1482:1483   */\n      dup1\n        /* \"#utility.yul\":1477:1480   */\n      dup3\n        /* \"#utility.yul\":1473:1484   */\n      add\n        /* \"#utility.yul\":1467:1485   */\n      mload\n        /* \"#utility.yul\":1463:1464   */\n      dup2\n        /* \"#utility.yul\":1458:1461   */\n      dup5\n        /* \"#utility.yul\":1454:1465   */\n      add\n        /* \"#utility.yul\":1447:1486   */\n      mstore\n        /* \"#utility.yul\":1419:1421   */\n      0x20\n        /* \"#utility.yul\":1416:1417   */\n      dup2\n        /* \"#utility.yul\":1412:1422   */\n      add\n        /* \"#utility.yul\":1407:1422   */\n      swap1\n      pop\n        /* \"#utility.yul\":1383:1496   */\n      jump(tag_116)\n    tag_118:\n        /* \"#utility.yul\":1514:1520   */\n      dup4\n        /* \"#utility.yul\":1511:1512   */\n      dup2\n        /* \"#utility.yul\":1508:1521   */\n      gt\n        /* \"#utility.yul\":1505:1606   */\n      iszero\n      tag_119\n      jumpi\n        /* \"#utility.yul\":1594:1595   */\n      0x00\n        /* \"#utility.yul\":1585:1591   */\n      dup5\n        /* \"#utility.yul\":1580:1583   */\n      dup5\n        /* \"#utility.yul\":1576:1592   */\n      add\n        /* \"#utility.yul\":1569:1596   */\n      mstore\n        /* \"#utility.yul\":1505:1606   */\n    tag_119:\n        /* \"#utility.yul\":1354:1612   */\n      pop\n        /* \"#utility.yul\":1305:1612   */\n      pop\n      pop\n      pop\n      jump\t// out\n        /* \"#utility.yul\":1618:1720   */\n    tag_78:\n        /* \"#utility.yul\":1659:1665   */\n      0x00\n        /* \"#utility.yul\":1710:1712   */\n      0x1f\n        /* \"#utility.yul\":1706:1713   */\n      not\n        /* \"#utility.yul\":1701:1703   */\n      0x1f\n        /* \"#utility.yul\":1694:1699   */\n      dup4\n        /* \"#utility.yul\":1690:1704   */\n      add\n        /* \"#utility.yul\":1686:1714   */\n      and\n        /* \"#utility.yul\":1676:1714   */\n      swap1\n      pop\n        /* \"#utility.yul\":1618:1720   */\n      swap2\n      swap1\n      pop\n      jump\t// out\n        /* \"#utility.yul\":1726:2090   */\n    tag_79:\n        /* \"#utility.yul\":1814:1817   */\n      0x00\n        /* \"#utility.yul\":1842:1881   */\n      tag_122\n        /* \"#utility.yul\":1875:1880   */\n      dup3\n        /* \"#utility.yul\":1842:1881   */\n      tag_75\n      jump\t// in\n    tag_122:\n        /* \"#utility.yul\":1897:1968   */\n      tag_123\n        /* \"#utility.yul\":1961:1967   */\n      dup2\n        /* \"#utility.yul\":1956:1959   */\n      dup6\n        /* \"#utility.yul\":1897:1968   */\n      tag_76\n      jump\t// in\n    tag_123:\n        /* \"#utility.yul\":1890:1968   */\n      swap4\n      pop\n        /* \"#utility.yul\":1977:2029   */\n      tag_124\n        /* \"#utility.yul\":2022:2028   */\n      dup2\n        /* \"#utility.yul\":2017:2020   */\n      dup6\n        /* \"#utility.yul\":2010:2014   */\n      0x20\n        /* \"#utility.yul\":2003:2008   */\n      dup7\n        /* \"#utility.yul\":1999:2015   */\n      add\n        /* \"#utility.yul\":1977:2029   */\n      tag_77\n      jump\t// in\n    tag_124:\n        /* \"#utility.yul\":2054:2083   */\n      tag_125\n        /* \"#utility.yul\":2076:2082   */\n      dup2\n        /* \"#utility.yul\":2054:2083   */\n      tag_78\n      jump\t// in\n    tag_125:\n        /* \"#utility.yul\":2049:2052   */\n      dup5\n        /* \"#utility.yul\":2045:2084   */\n      add\n        /* \"#utility.yul\":2038:2084   */\n      swap2\n      pop\n        /* \"#utility.yul\":1818:2090   */\n      pop\n        /* \"#utility.yul\":1726:2090   */\n      swap3\n      swap2\n      pop\n      pop\n      jump\t// out\n        /* \"#utility.yul\":2096:2409   */\n    tag_11:\n        /* \"#utility.yul\":2209:2213   */\n      0x00\n        /* \"#utility.yul\":2247:2249   */\n      0x20\n        /* \"#utility.yul\":2236:2245   */\n      dup3\n        /* \"#utility.yul\":2232:2250   */\n      add\n        /* \"#utility.yul\":2224:2250   */\n      swap1\n      pop\n        /* \"#utility.yul\":2296:2305   */\n      dup2\n        /* \"#utility.yul\":2290:2294   */\n      dup2\n        /* \"#utility.yul\":2286:2306   */\n      sub\n        /* \"#utility.yul\":2282:2283   */\n      0x00\n        /* \"#utility.yul\":2271:2280   */\n      dup4\n        /* \"#utility.yul\":2267:2284   */\n      add\n        /* \"#utility.yul\":2260:2307   */\n      mstore\n        /* \"#utility.yul\":2324:2402   */\n      tag_127\n        /* \"#utility.yul\":2397:2401   */\n      dup2\n        /* \"#utility.yul\":2388:2394   */\n      dup5\n        /* \"#utility.yul\":2324:2402   */\n      tag_79\n      jump\t// in\n    tag_127:\n        /* \"#utility.yul\":2316:2402   */\n      swap1\n      pop\n        /* \"#utility.yul\":2096:2409   */\n      swap3\n      swap2\n      pop\n      pop\n      jump\t// out\n        /* \"#utility.yul\":2415:2533   */\n    tag_80:\n        /* \"#utility.yul\":2502:2526   */\n      tag_129\n        /* \"#utility.yul\":2520:2525   */\n      dup2\n        /* \"#utility.yul\":2502:2526   */\n      tag_72\n      jump\t// in\n    tag_129:\n        /* \"#utility.yul\":2497:2500   */\n      dup3\n        /* \"#utility.yul\":2490:2527   */\n      mstore\n        /* \"#utility.yul\":2415:2533   */\n      pop\n      pop\n      jump\t// out\n        /* \"#utility.yul\":2539:2761   */\n    tag_17:\n        /* \"#utility.yul\":2632:2636   */\n      0x00\n        /* \"#utility.yul\":2670:2672   */\n      0x20\n        /* \"#utility.yul\":2659:2668   */\n      dup3\n        /* \"#utility.yul\":2655:2673   */\n      add\n        /* \"#utility.yul\":2647:2673   */\n      swap1\n      pop\n        /* \"#utility.yul\":2683:2754   */\n      tag_131\n        /* \"#utility.yul\":2751:2752   */\n      0x00\n        /* \"#utility.yul\":2740:2749   */\n      dup4\n        /* \"#utility.yul\":2736:2753   */\n      add\n        /* \"#utility.yul\":2727:2733   */\n      dup5\n        /* \"#utility.yul\":2683:2754   */\n      tag_80\n      jump\t// in\n    tag_131:\n        /* \"#utility.yul\":2539:2761   */\n      swap3\n      swap2\n      pop\n      pop\n      jump\t// out\n        /* \"#utility.yul\":2767:3003   */\n    tag_81:\n        /* \"#utility.yul\":2907:2941   */\n      0x4d617463682068617320656e6465642e2e205072657373205265736574206275\n        /* \"#utility.yul\":2903:2904   */\n      0x00\n        /* \"#utility.yul\":2895:2901   */\n      dup3\n        /* \"#utility.yul\":2891:2905   */\n      add\n        /* \"#utility.yul\":2884:2942   */\n      mstore\n        /* \"#utility.yul\":2976:2995   */\n      0x74746f6e20746f20526573746172742e2e000000000000000000000000000000\n        /* \"#utility.yul\":2971:2973   */\n      0x20\n        /* \"#utility.yul\":2963:2969   */\n      dup3\n        /* \"#utility.yul\":2959:2974   */\n      add\n        /* \"#utility.yul\":2952:2996   */\n      mstore\n        /* \"#utility.yul\":2767:3003   */\n      pop\n      jump\t// out\n        /* \"#utility.yul\":3009:3375   */\n    tag_82:\n        /* \"#utility.yul\":3151:3154   */\n      0x00\n        /* \"#utility.yul\":3172:3239   */\n      tag_134\n        /* \"#utility.yul\":3236:3238   */\n      0x31\n        /* \"#utility.yul\":3231:3234   */\n      dup4\n        /* \"#utility.yul\":3172:3239   */\n      tag_76\n      jump\t// in\n    tag_134:\n        /* \"#utility.yul\":3165:3239   */\n      swap2\n      pop\n        /* \"#utility.yul\":3248:3341   */\n      tag_135\n        /* \"#utility.yul\":3337:3340   */\n      dup3\n        /* \"#utility.yul\":3248:3341   */\n      tag_81\n      jump\t// in\n    tag_135:\n        /* \"#utility.yul\":3366:3368   */\n      0x40\n        /* \"#utility.yul\":3361:3364   */\n      dup3\n        /* \"#utility.yul\":3357:3369   */\n      add\n        /* \"#utility.yul\":3350:3369   */\n      swap1\n      pop\n        /* \"#utility.yul\":3009:3375   */\n      swap2\n      swap1\n      pop\n      jump\t// out\n        /* \"#utility.yul\":3381:3800   */\n    tag_21:\n        /* \"#utility.yul\":3547:3551   */\n      0x00\n        /* \"#utility.yul\":3585:3587   */\n      0x20\n        /* \"#utility.yul\":3574:3583   */\n      dup3\n        /* \"#utility.yul\":3570:3588   */\n      add\n        /* \"#utility.yul\":3562:3588   */\n      swap1\n      pop\n        /* \"#utility.yul\":3634:3643   */\n      dup2\n        /* \"#utility.yul\":3628:3632   */\n      dup2\n        /* \"#utility.yul\":3624:3644   */\n      sub\n        /* \"#utility.yul\":3620:3621   */\n      0x00\n        /* \"#utility.yul\":3609:3618   */\n      dup4\n        /* \"#utility.yul\":3605:3622   */\n      add\n        /* \"#utility.yul\":3598:3645   */\n      mstore\n        /* \"#utility.yul\":3662:3793   */\n      tag_137\n        /* \"#utility.yul\":3788:3792   */\n      dup2\n        /* \"#utility.yul\":3662:3793   */\n      tag_82\n      jump\t// in\n    tag_137:\n        /* \"#utility.yul\":3654:3793   */\n      swap1\n      pop\n        /* \"#utility.yul\":3381:3800   */\n      swap2\n      swap1\n      pop\n      jump\t// out\n        /* \"#utility.yul\":3806:4028   */\n    tag_83:\n        /* \"#utility.yul\":3946:3980   */\n      0x4769766520612076616c6964206e756d626572206265747765656e203120616e\n        /* \"#utility.yul\":3942:3943   */\n      0x00\n        /* \"#utility.yul\":3934:3940   */\n      dup3\n        /* \"#utility.yul\":3930:3944   */\n      add\n        /* \"#utility.yul\":3923:3981   */\n      mstore\n        /* \"#utility.yul\":4015:4020   */\n      0x6420360000000000000000000000000000000000000000000000000000000000\n        /* \"#utility.yul\":4010:4012   */\n      0x20\n        /* \"#utility.yul\":4002:4008   */\n      dup3\n        /* \"#utility.yul\":3998:4013   */\n      add\n        /* \"#utility.yul\":3991:4021   */\n      mstore\n        /* \"#utility.yul\":3806:4028   */\n      pop\n      jump\t// out\n        /* \"#utility.yul\":4034:4400   */\n    tag_84:\n        /* \"#utility.yul\":4176:4179   */\n      0x00\n        /* \"#utility.yul\":4197:4264   */\n      tag_140\n        /* \"#utility.yul\":4261:4263   */\n      0x23\n        /* \"#utility.yul\":4256:4259   */\n      dup4\n        /* \"#utility.yul\":4197:4264   */\n      tag_76\n      jump\t// in\n    tag_140:\n        /* \"#utility.yul\":4190:4264   */\n      swap2\n      pop\n        /* \"#utility.yul\":4273:4366   */\n      tag_141\n        /* \"#utility.yul\":4362:4365   */\n      dup3\n        /* \"#utility.yul\":4273:4366   */\n      tag_83\n      jump\t// in\n    tag_141:\n        /* \"#utility.yul\":4391:4393   */\n      0x40\n        /* \"#utility.yul\":4386:4389   */\n      dup3\n        /* \"#utility.yul\":4382:4394   */\n      add\n        /* \"#utility.yul\":4375:4394   */\n      swap1\n      pop\n        /* \"#utility.yul\":4034:4400   */\n      swap2\n      swap1\n      pop\n      jump\t// out\n        /* \"#utility.yul\":4406:4825   */\n    tag_25:\n        /* \"#utility.yul\":4572:4576   */\n      0x00\n        /* \"#utility.yul\":4610:4612   */\n      0x20\n        /* \"#utility.yul\":4599:4608   */\n      dup3\n        /* \"#utility.yul\":4595:4613   */\n      add\n        /* \"#utility.yul\":4587:4613   */\n      swap1\n      pop\n        /* \"#utility.yul\":4659:4668   */\n      dup2\n        /* \"#utility.yul\":4653:4657   */\n      dup2\n        /* \"#utility.yul\":4649:4669   */\n      sub\n        /* \"#utility.yul\":4645:4646   */\n      0x00\n        /* \"#utility.yul\":4634:4643   */\n      dup4\n        /* \"#utility.yul\":4630:4647   */\n      add\n        /* \"#utility.yul\":4623:4670   */\n      mstore\n        /* \"#utility.yul\":4687:4818   */\n      tag_143\n        /* \"#utility.yul\":4813:4817   */\n      dup2\n        /* \"#utility.yul\":4687:4818   */\n      tag_84\n      jump\t// in\n    tag_143:\n        /* \"#utility.yul\":4679:4818   */\n      swap1\n      pop\n        /* \"#utility.yul\":4406:4825   */\n      swap2\n      swap1\n      pop\n      jump\t// out\n        /* \"#utility.yul\":4831:5011   */\n    tag_85:\n        /* \"#utility.yul\":4879:4956   */\n      0x4e487b7100000000000000000000000000000000000000000000000000000000\n        /* \"#utility.yul\":4876:4877   */\n      0x00\n        /* \"#utility.yul\":4869:4957   */\n      mstore\n        /* \"#utility.yul\":4976:4980   */\n      0x11\n        /* \"#utility.yul\":4973:4974   */\n      0x04\n        /* \"#utility.yul\":4966:4981   */\n      mstore\n        /* \"#utility.yul\":5000:5004   */\n      0x24\n        /* \"#utility.yul\":4997:4998   */\n      0x00\n        /* \"#utility.yul\":4990:5005   */\n      revert\n        /* \"#utility.yul\":5017:5322   */\n    tag_29:\n        /* \"#utility.yul\":5057:5060   */\n      0x00\n        /* \"#utility.yul\":5076:5096   */\n      tag_146\n        /* \"#utility.yul\":5094:5095   */\n      dup3\n        /* \"#utility.yul\":5076:5096   */\n      tag_72\n      jump\t// in\n    tag_146:\n        /* \"#utility.yul\":5071:5096   */\n      swap2\n      pop\n        /* \"#utility.yul\":5110:5130   */\n      tag_147\n        /* \"#utility.yul\":5128:5129   */\n      dup4\n        /* \"#utility.yul\":5110:5130   */\n      tag_72\n      jump\t// in\n    tag_147:\n        /* \"#utility.yul\":5105:5130   */\n      swap3\n      pop\n        /* \"#utility.yul\":5264:5265   */\n      dup3\n        /* \"#utility.yul\":5196:5262   */\n      0xffffffffffffffffffffffffffffffffffffffffffffffffffffffffffffffff\n        /* \"#utility.yul\":5192:5266   */\n      sub\n        /* \"#utility.yul\":5189:5190   */\n      dup3\n        /* \"#utility.yul\":5186:5267   */\n      gt\n        /* \"#utility.yul\":5183:5290   */\n      iszero\n      tag_148\n      jumpi\n        /* \"#utility.yul\":5270:5288   */\n      tag_149\n      tag_85\n      jump\t// in\n    tag_149:\n        /* \"#utility.yul\":5183:5290   */\n    tag_148:\n        /* \"#utility.yul\":5314:5315   */\n      dup3\n        /* \"#utility.yul\":5311:5312   */\n      dup3\n        /* \"#utility.yul\":5307:5316   */\n      add\n        /* \"#utility.yul\":5300:5316   */\n      swap1\n      pop\n        /* \"#utility.yul\":5017:5322   */\n      swap3\n      swap2\n      pop\n      pop\n      jump\t// out\n        /* \"#utility.yul\":5328:5476   */\n    tag_86:\n        /* \"#utility.yul\":5430:5441   */\n      0x00\n        /* \"#utility.yul\":5467:5470   */\n      dup2\n        /* \"#utility.yul\":5452:5470   */\n      swap1\n      pop\n        /* \"#utility.yul\":5328:5476   */\n      swap3\n      swap2\n      pop\n      pop\n      jump\t// out\n        /* \"#utility.yul\":5482:5859   */\n    tag_87:\n        /* \"#utility.yul\":5588:5591   */\n      0x00\n        /* \"#utility.yul\":5616:5655   */\n      tag_152\n        /* \"#utility.yul\":5649:5654   */\n      dup3\n        /* \"#utility.yul\":5616:5655   */\n      tag_75\n      jump\t// in\n    tag_152:\n        /* \"#utility.yul\":5671:5760   */\n      tag_153\n        /* \"#utility.yul\":5753:5759   */\n      dup2\n        /* \"#utility.yul\":5748:5751   */\n      dup6\n        /* \"#utility.yul\":5671:5760   */\n      tag_86\n      jump\t// in\n    tag_153:\n        /* \"#utility.yul\":5664:5760   */\n      swap4\n      pop\n        /* \"#utility.yul\":5769:5821   */\n      tag_154\n        /* \"#utility.yul\":5814:5820   */\n      dup2\n        /* \"#utility.yul\":5809:5812   */\n      dup6\n        /* \"#utility.yul\":5802:5806   */\n      0x20\n        /* \"#utility.yul\":5795:5800   */\n      dup7\n        /* \"#utility.yul\":5791:5807   */\n      add\n        /* \"#utility.yul\":5769:5821   */\n      tag_77\n      jump\t// in\n    tag_154:\n        /* \"#utility.yul\":5846:5852   */\n      dup1\n        /* \"#utility.yul\":5841:5844   */\n      dup5\n        /* \"#utility.yul\":5837:5853   */\n      add\n        /* \"#utility.yul\":5830:5853   */\n      swap2\n      pop\n        /* \"#utility.yul\":5592:5859   */\n      pop\n        /* \"#utility.yul\":5482:5859   */\n      swap3\n      swap2\n      pop\n      pop\n      jump\t// out\n        /* \"#utility.yul\":5865:6047   */\n    tag_88:\n        /* \"#utility.yul\":6033:6040   */\n      0x2052554e53000000000000000000000000000000000000000000000000000000\n        /* \"#utility.yul\":6028:6031   */\n      dup2\n        /* \"#utility.yul\":6021:6041   */\n      mstore\n        /* \"#utility.yul\":5865:6047   */\n      pop\n      jump\t// out\n        /* \"#utility.yul\":6053:6592   */\n    tag_35:\n        /* \"#utility.yul\":6275:6278   */\n      0x00\n        /* \"#utility.yul\":6297:6392   */\n      tag_157\n        /* \"#utility.yul\":6388:6391   */\n      dup3\n        /* \"#utility.yul\":6379:6385   */\n      dup5\n        /* \"#utility.yul\":6297:6392   */\n      tag_87\n      jump\t// in\n    tag_157:\n        /* \"#utility.yul\":6290:6392   */\n      swap2\n      pop\n        /* \"#utility.yul\":6402:6539   */\n      tag_158\n        /* \"#utility.yul\":6535:6538   */\n      dup3\n        /* \"#utility.yul\":6402:6539   */\n      tag_88\n      jump\t// in\n    tag_158:\n        /* \"#utility.yul\":6564:6565   */\n      0x05\n        /* \"#utility.yul\":6559:6562   */\n      dup3\n        /* \"#utility.yul\":6555:6566   */\n      add\n        /* \"#utility.yul\":6548:6566   */\n      swap2\n      pop\n        /* \"#utility.yul\":6583:6586   */\n      dup2\n        /* \"#utility.yul\":6576:6586   */\n      swap1\n      pop\n        /* \"#utility.yul\":6053:6592   */\n      swap3\n      swap2\n      pop\n      pop\n      jump\t// out\n        /* \"#utility.yul\":6598:6779   */\n    tag_89:\n        /* \"#utility.yul\":6766:6772   */\n      0x204f555400000000000000000000000000000000000000000000000000000000\n        /* \"#utility.yul\":6761:6764   */\n      dup2\n        /* \"#utility.yul\":6754:6773   */\n      mstore\n        /* \"#utility.yul\":6598:6779   */\n      pop\n      jump\t// out\n        /* \"#utility.yul\":6785:7324   */\n    tag_39:\n        /* \"#utility.yul\":7007:7010   */\n      0x00\n        /* \"#utility.yul\":7029:7124   */\n      tag_161\n        /* \"#utility.yul\":7120:7123   */\n      dup3\n        /* \"#utility.yul\":7111:7117   */\n      dup5\n        /* \"#utility.yul\":7029:7124   */\n      tag_87\n      jump\t// in\n    tag_161:\n        /* \"#utility.yul\":7022:7124   */\n      swap2\n      pop\n        /* \"#utility.yul\":7134:7271   */\n      tag_162\n        /* \"#utility.yul\":7267:7270   */\n      dup3\n        /* \"#utility.yul\":7134:7271   */\n      tag_89\n      jump\t// in\n    tag_162:\n        /* \"#utility.yul\":7296:7297   */\n      0x04\n        /* \"#utility.yul\":7291:7294   */\n      dup3\n        /* \"#utility.yul\":7287:7298   */\n      add\n        /* \"#utility.yul\":7280:7298   */\n      swap2\n      pop\n        /* \"#utility.yul\":7315:7318   */\n      dup2\n        /* \"#utility.yul\":7308:7318   */\n      swap1\n      pop\n        /* \"#utility.yul\":6785:7324   */\n      swap3\n      swap2\n      pop\n      pop\n      jump\t// out\n        /* \"#utility.yul\":7330:7563   */\n    tag_43:\n        /* \"#utility.yul\":7369:7372   */\n      0x00\n        /* \"#utility.yul\":7392:7416   */\n      tag_164\n        /* \"#utility.yul\":7410:7415   */\n      dup3\n        /* \"#utility.yul\":7392:7416   */\n      tag_72\n      jump\t// in\n    tag_164:\n        /* \"#utility.yul\":7383:7416   */\n      swap2\n      pop\n        /* \"#utility.yul\":7438:7504   */\n      0xffffffffffffffffffffffffffffffffffffffffffffffffffffffffffffffff\n        /* \"#utility.yul\":7431:7436   */\n      dup3\n        /* \"#utility.yul\":7428:7505   */\n      eq\n        /* \"#utility.yul\":7425:7528   */\n      iszero\n      tag_165\n      jumpi\n        /* \"#utility.yul\":7508:7526   */\n      tag_166\n      tag_85\n      jump\t// in\n    tag_166:\n        /* \"#utility.yul\":7425:7528   */\n    tag_165:\n        /* \"#utility.yul\":7555:7556   */\n      0x01\n        /* \"#utility.yul\":7548:7553   */\n      dup3\n        /* \"#utility.yul\":7544:7557   */\n      add\n        /* \"#utility.yul\":7537:7557   */\n      swap1\n      pop\n        /* \"#utility.yul\":7330:7563   */\n      swap2\n      swap1\n      pop\n      jump\t// out\n        /* \"#utility.yul\":7569:7648   */\n    tag_90:\n        /* \"#utility.yul\":7608:7615   */\n      0x00\n        /* \"#utility.yul\":7637:7642   */\n      dup2\n        /* \"#utility.yul\":7626:7642   */\n      swap1\n      pop\n        /* \"#utility.yul\":7569:7648   */\n      swap2\n      swap1\n      pop\n      jump\t// out\n        /* \"#utility.yul\":7654:7811   */\n    tag_91:\n        /* \"#utility.yul\":7759:7804   */\n      tag_169\n        /* \"#utility.yul\":7779:7803   */\n      tag_170\n        /* \"#utility.yul\":7797:7802   */\n      dup3\n        /* \"#utility.yul\":7779:7803   */\n      tag_72\n      jump\t// in\n    tag_170:\n        /* \"#utility.yul\":7759:7804   */\n      tag_90\n      jump\t// in\n    tag_169:\n        /* \"#utility.yul\":7754:7757   */\n      dup3\n        /* \"#utility.yul\":7747:7805   */\n      mstore\n        /* \"#utility.yul\":7654:7811   */\n      pop\n      pop\n      jump\t// out\n        /* \"#utility.yul\":7817:7943   */\n    tag_92:\n        /* \"#utility.yul\":7854:7861   */\n      0x00\n        /* \"#utility.yul\":7894:7936   */\n      0xffffffffffffffffffffffffffffffffffffffff\n        /* \"#utility.yul\":7887:7892   */\n      dup3\n        /* \"#utility.yul\":7883:7937   */\n      and\n        /* \"#utility.yul\":7872:7937   */\n      swap1\n      pop\n        /* \"#utility.yul\":7817:7943   */\n      swap2\n      swap1\n      pop\n      jump\t// out\n        /* \"#utility.yul\":7949:8045   */\n    tag_93:\n        /* \"#utility.yul\":7986:7993   */\n      0x00\n        /* \"#utility.yul\":8015:8039   */\n      tag_173\n        /* \"#utility.yul\":8033:8038   */\n      dup3\n        /* \"#utility.yul\":8015:8039   */\n      tag_92\n      jump\t// in\n    tag_173:\n        /* \"#utility.yul\":8004:8039   */\n      swap1\n      pop\n        /* \"#utility.yul\":7949:8045   */\n      swap2\n      swap1\n      pop\n      jump\t// out\n        /* \"#utility.yul\":8051:8145   */\n    tag_94:\n        /* \"#utility.yul\":8084:8092   */\n      0x00\n        /* \"#utility.yul\":8132:8137   */\n      dup2\n        /* \"#utility.yul\":8128:8130   */\n      0x60\n        /* \"#utility.yul\":8124:8138   */\n      shl\n        /* \"#utility.yul\":8103:8138   */\n      swap1\n      pop\n        /* \"#utility.yul\":8051:8145   */\n      swap2\n      swap1\n      pop\n      jump\t// out\n        /* \"#utility.yul\":8151:8245   */\n    tag_95:\n        /* \"#utility.yul\":8190:8197   */\n      0x00\n        /* \"#utility.yul\":8219:8239   */\n      tag_176\n        /* \"#utility.yul\":8233:8238   */\n      dup3\n        /* \"#utility.yul\":8219:8239   */\n      tag_94\n      jump\t// in\n    tag_176:\n        /* \"#utility.yul\":8208:8239   */\n      swap1\n      pop\n        /* \"#utility.yul\":8151:8245   */\n      swap2\n      swap1\n      pop\n      jump\t// out\n        /* \"#utility.yul\":8251:8351   */\n    tag_96:\n        /* \"#utility.yul\":8290:8297   */\n      0x00\n        /* \"#utility.yul\":8319:8345   */\n      tag_178\n        /* \"#utility.yul\":8339:8344   */\n      dup3\n        /* \"#utility.yul\":8319:8345   */\n      tag_95\n      jump\t// in\n    tag_178:\n        /* \"#utility.yul\":8308:8345   */\n      swap1\n      pop\n        /* \"#utility.yul\":8251:8351   */\n      swap2\n      swap1\n      pop\n      jump\t// out\n        /* \"#utility.yul\":8357:8514   */\n    tag_97:\n        /* \"#utility.yul\":8462:8507   */\n      tag_180\n        /* \"#utility.yul\":8482:8506   */\n      tag_181\n        /* \"#utility.yul\":8500:8505   */\n      dup3\n        /* \"#utility.yul\":8482:8506   */\n      tag_93\n      jump\t// in\n    tag_181:\n        /* \"#utility.yul\":8462:8507   */\n      tag_96\n      jump\t// in\n    tag_180:\n        /* \"#utility.yul\":8457:8460   */\n      dup3\n        /* \"#utility.yul\":8450:8508   */\n      mstore\n        /* \"#utility.yul\":8357:8514   */\n      pop\n      pop\n      jump\t// out\n        /* \"#utility.yul\":8520:9058   */\n    tag_45:\n        /* \"#utility.yul\":8688:8691   */\n      0x00\n        /* \"#utility.yul\":8703:8778   */\n      tag_183\n        /* \"#utility.yul\":8774:8777   */\n      dup3\n        /* \"#utility.yul\":8765:8771   */\n      dup7\n        /* \"#utility.yul\":8703:8778   */\n      tag_91\n      jump\t// in\n    tag_183:\n        /* \"#utility.yul\":8803:8805   */\n      0x20\n        /* \"#utility.yul\":8798:8801   */\n      dup3\n        /* \"#utility.yul\":8794:8806   */\n      add\n        /* \"#utility.yul\":8787:8806   */\n      swap2\n      pop\n        /* \"#utility.yul\":8816:8891   */\n      tag_184\n        /* \"#utility.yul\":8887:8890   */\n      dup3\n        /* \"#utility.yul\":8878:8884   */\n      dup6\n        /* \"#utility.yul\":8816:8891   */\n      tag_97\n      jump\t// in\n    tag_184:\n        /* \"#utility.yul\":8916:8918   */\n      0x14\n        /* \"#utility.yul\":8911:8914   */\n      dup3\n        /* \"#utility.yul\":8907:8919   */\n      add\n        /* \"#utility.yul\":8900:8919   */\n      swap2\n      pop\n        /* \"#utility.yul\":8929:9004   */\n      tag_185\n        /* \"#utility.yul\":9000:9003   */\n      dup3\n        /* \"#utility.yul\":8991:8997   */\n      dup5\n        /* \"#utility.yul\":8929:9004   */\n      tag_91\n      jump\t// in\n    tag_185:\n        /* \"#utility.yul\":9029:9031   */\n      0x20\n        /* \"#utility.yul\":9024:9027   */\n      dup3\n        /* \"#utility.yul\":9020:9032   */\n      add\n        /* \"#utility.yul\":9013:9032   */\n      swap2\n      pop\n        /* \"#utility.yul\":9049:9052   */\n      dup2\n        /* \"#utility.yul\":9042:9052   */\n      swap1\n      pop\n        /* \"#utility.yul\":8520:9058   */\n      swap5\n      swap4\n      pop\n      pop\n      pop\n      pop\n      jump\t// out\n        /* \"#utility.yul\":9064:9244   */\n    tag_98:\n        /* \"#utility.yul\":9112:9189   */\n      0x4e487b7100000000000000000000000000000000000000000000000000000000\n        /* \"#utility.yul\":9109:9110   */\n      0x00\n        /* \"#utility.yul\":9102:9190   */\n      mstore\n        /* \"#utility.yul\":9209:9213   */\n      0x12\n        /* \"#utility.yul\":9206:9207   */\n      0x04\n        /* \"#utility.yul\":9199:9214   */\n      mstore\n        /* \"#utility.yul\":9233:9237   */\n      0x24\n        /* \"#utility.yul\":9230:9231   */\n      0x00\n        /* \"#utility.yul\":9223:9238   */\n      revert\n        /* \"#utility.yul\":9250:9426   */\n    tag_47:\n        /* \"#utility.yul\":9282:9283   */\n      0x00\n        /* \"#utility.yul\":9299:9319   */\n      tag_188\n        /* \"#utility.yul\":9317:9318   */\n      dup3\n        /* \"#utility.yul\":9299:9319   */\n      tag_72\n      jump\t// in\n    tag_188:\n        /* \"#utility.yul\":9294:9319   */\n      swap2\n      pop\n        /* \"#utility.yul\":9333:9353   */\n      tag_189\n        /* \"#utility.yul\":9351:9352   */\n      dup4\n        /* \"#utility.yul\":9333:9353   */\n      tag_72\n      jump\t// in\n    tag_189:\n        /* \"#utility.yul\":9328:9353   */\n      swap3\n      pop\n        /* \"#utility.yul\":9372:9373   */\n      dup3\n        /* \"#utility.yul\":9362:9397   */\n      tag_190\n      jumpi\n        /* \"#utility.yul\":9377:9395   */\n      tag_191\n      tag_98\n      jump\t// in\n    tag_191:\n        /* \"#utility.yul\":9362:9397   */\n    tag_190:\n        /* \"#utility.yul\":9418:9419   */\n      dup3\n        /* \"#utility.yul\":9415:9416   */\n      dup3\n        /* \"#utility.yul\":9411:9420   */\n      mod\n        /* \"#utility.yul\":9406:9420   */\n      swap1\n      pop\n        /* \"#utility.yul\":9250:9426   */\n      swap3\n      swap2\n      pop\n      pop\n      jump\t// out\n        /* \"#utility.yul\":9432:9617   */\n    tag_54:\n        /* \"#utility.yul\":9472:9473   */\n      0x00\n        /* \"#utility.yul\":9489:9509   */\n      tag_193\n        /* \"#utility.yul\":9507:9508   */\n      dup3\n        /* \"#utility.yul\":9489:9509   */\n      tag_72\n      jump\t// in\n    tag_193:\n        /* \"#utility.yul\":9484:9509   */\n      swap2\n      pop\n        /* \"#utility.yul\":9523:9543   */\n      tag_194\n        /* \"#utility.yul\":9541:9542   */\n      dup4\n        /* \"#utility.yul\":9523:9543   */\n      tag_72\n      jump\t// in\n    tag_194:\n        /* \"#utility.yul\":9518:9543   */\n      swap3\n      pop\n        /* \"#utility.yul\":9562:9563   */\n      dup3\n        /* \"#utility.yul\":9552:9587   */\n      tag_195\n      jumpi\n        /* \"#utility.yul\":9567:9585   */\n      tag_196\n      tag_98\n      jump\t// in\n    tag_196:\n        /* \"#utility.yul\":9552:9587   */\n    tag_195:\n        /* \"#utility.yul\":9609:9610   */\n      dup3\n        /* \"#utility.yul\":9606:9607   */\n      dup3\n        /* \"#utility.yul\":9602:9611   */\n      div\n        /* \"#utility.yul\":9597:9611   */\n      swap1\n      pop\n        /* \"#utility.yul\":9432:9617   */\n      swap3\n      swap2\n      pop\n      pop\n      jump\t// out\n        /* \"#utility.yul\":9623:9803   */\n    tag_57:\n        /* \"#utility.yul\":9671:9748   */\n      0x4e487b7100000000000000000000000000000000000000000000000000000000\n        /* \"#utility.yul\":9668:9669   */\n      0x00\n        /* \"#utility.yul\":9661:9749   */\n      mstore\n        /* \"#utility.yul\":9768:9772   */\n      0x41\n        /* \"#utility.yul\":9765:9766   */\n      0x04\n        /* \"#utility.yul\":9758:9773   */\n      mstore\n        /* \"#utility.yul\":9792:9796   */\n      0x24\n        /* \"#utility.yul\":9789:9790   */\n      0x00\n        /* \"#utility.yul\":9782:9797   */\n      revert\n        /* \"#utility.yul\":9809:10000   */\n    tag_62:\n        /* \"#utility.yul\":9849:9853   */\n      0x00\n        /* \"#utility.yul\":9869:9889   */\n      tag_199\n        /* \"#utility.yul\":9887:9888   */\n      dup3\n        /* \"#utility.yul\":9869:9889   */\n      tag_72\n      jump\t// in\n    tag_199:\n        /* \"#utility.yul\":9864:9889   */\n      swap2\n      pop\n        /* \"#utility.yul\":9903:9923   */\n      tag_200\n        /* \"#utility.yul\":9921:9922   */\n      dup4\n        /* \"#utility.yul\":9903:9923   */\n      tag_72\n      jump\t// in\n    tag_200:\n        /* \"#utility.yul\":9898:9923   */\n      swap3\n      pop\n        /* \"#utility.yul\":9942:9943   */\n      dup3\n        /* \"#utility.yul\":9939:9940   */\n      dup3\n        /* \"#utility.yul\":9936:9944   */\n      lt\n        /* \"#utility.yul\":9933:9967   */\n      iszero\n      tag_201\n      jumpi\n        /* \"#utility.yul\":9947:9965   */\n      tag_202\n      tag_85\n      jump\t// in\n    tag_202:\n        /* \"#utility.yul\":9933:9967   */\n    tag_201:\n        /* \"#utility.yul\":9992:9993   */\n      dup3\n        /* \"#utility.yul\":9989:9990   */\n      dup3\n        /* \"#utility.yul\":9985:9994   */\n      sub\n        /* \"#utility.yul\":9977:9994   */\n      swap1\n      pop\n        /* \"#utility.yul\":9809:10000   */\n      swap3\n      swap2\n      pop\n      pop\n      jump\t// out\n        /* \"#utility.yul\":10006:10186   */\n    tag_67:\n        /* \"#utility.yul\":10054:10131   */\n      0x4e487b7100000000000000000000000000000000000000000000000000000000\n        /* \"#utility.yul\":10051:10052   */\n      0x00\n        /* \"#utility.yul\":10044:10132   */\n      mstore\n        /* \"#utility.yul\":10151:10155   */\n      0x32\n        /* \"#utility.yul\":10148:10149   */\n      0x04\n        /* \"#utility.yul\":10141:10156   */\n      mstore\n        /* \"#utility.yul\":10175:10179   */\n      0x24\n        /* \"#utility.yul\":10172:10173   */\n      0x00\n        /* \"#utility.yul\":10165:10180   */\n      revert\n\n    auxdata: 0xa264697066735822122029c7470666f8872ea04308c90937edf8ef44667816a55043e06aa47896af733564736f6c634300080c0033\n}\n",
				"bytecode": {
					"linkReferences": {},
					"object": "60806040526000600160006101000a81548160ff021916908315150217905550600060025534801561003057600080fd5b50610a26806100406000396000f3fe608060405234801561001057600080fd5b50600436106100415760003560e01c80636898f82b14610046578063d826f88f14610076578063efedc66914610080575b600080fd5b610060600480360381019061005b919061041d565b61009e565b60405161006d91906104e3565b60405180910390f35b61007e6101fc565b005b610088610220565b6040516100959190610514565b60405180910390f35b606060011515600160009054906101000a900460ff16151514156100f7576040517f08c379a00000000000000000000000000000000000000000000000000000000081526004016100ee906105a1565b60405180910390fd5b60018210158015610109575060068211155b610148576040517f08c379a000000000000000000000000000000000000000000000000000000000815260040161013f90610633565b60405180910390fd5b60006001610154610226565b61015e9190610682565b90508083146101af57806000808282546101789190610682565b9250508190555061018881610281565b604051602001610198919061073a565b6040516020818303038152906040529150506101f7565b60018060006101000a81548160ff0219169083151502179055506101d4600054610281565b6040516020016101e49190610786565b6040516020818303038152906040529150505b919050565b600080819055506000600160006101000a81548160ff021916908315150217905550565b60005481565b60006002600081548092919061023b906107ac565b91905055506006423360025460405160200161025993929190610890565b6040516020818303038152906040528051906020012060001c61027c91906108fc565b905090565b606060008214156102c9576040518060400160405280600181526020017f300000000000000000000000000000000000000000000000000000000000000081525090506103dd565b600082905060005b600082146102fb5780806102e4906107ac565b915050600a826102f4919061092d565b91506102d1565b60008167ffffffffffffffff8111156103175761031661095e565b5b6040519080825280601f01601f1916602001820160405280156103495781602001600182028036833780820191505090505b5090505b600085146103d657600182610362919061098d565b9150600a8561037191906108fc565b603061037d9190610682565b60f81b818381518110610393576103926109c1565b5b60200101907effffffffffffffffffffffffffffffffffffffffffffffffffffffffffffff1916908160001a905350600a856103cf919061092d565b945061034d565b8093505050505b919050565b600080fd5b6000819050919050565b6103fa816103e7565b811461040557600080fd5b50565b600081359050610417816103f1565b92915050565b600060208284031215610433576104326103e2565b5b600061044184828501610408565b91505092915050565b600081519050919050565b600082825260208201905092915050565b60005b83811015610484578082015181840152602081019050610469565b83811115610493576000848401525b50505050565b6000601f19601f8301169050919050565b60006104b58261044a565b6104bf8185610455565b93506104cf818560208601610466565b6104d881610499565b840191505092915050565b600060208201905081810360008301526104fd81846104aa565b905092915050565b61050e816103e7565b82525050565b60006020820190506105296000830184610505565b92915050565b7f4d617463682068617320656e6465642e2e20507265737320526573657420627560008201527f74746f6e20746f20526573746172742e2e000000000000000000000000000000602082015250565b600061058b603183610455565b91506105968261052f565b604082019050919050565b600060208201905081810360008301526105ba8161057e565b9050919050565b7f4769766520612076616c6964206e756d626572206265747765656e203120616e60008201527f6420360000000000000000000000000000000000000000000000000000000000602082015250565b600061061d602383610455565b9150610628826105c1565b604082019050919050565b6000602082019050818103600083015261064c81610610565b9050919050565b7f4e487b7100000000000000000000000000000000000000000000000000000000600052601160045260246000fd5b600061068d826103e7565b9150610698836103e7565b9250827fffffffffffffffffffffffffffffffffffffffffffffffffffffffffffffffff038211156106cd576106cc610653565b5b828201905092915050565b600081905092915050565b60006106ee8261044a565b6106f881856106d8565b9350610708818560208601610466565b80840191505092915050565b7f2052554e53000000000000000000000000000000000000000000000000000000815250565b600061074682846106e3565b915061075182610714565b60058201915081905092915050565b7f204f555400000000000000000000000000000000000000000000000000000000815250565b600061079282846106e3565b915061079d82610760565b60048201915081905092915050565b60006107b7826103e7565b91507fffffffffffffffffffffffffffffffffffffffffffffffffffffffffffffffff8214156107ea576107e9610653565b5b600182019050919050565b6000819050919050565b61081061080b826103e7565b6107f5565b82525050565b600073ffffffffffffffffffffffffffffffffffffffff82169050919050565b600061084182610816565b9050919050565b60008160601b9050919050565b600061086082610848565b9050919050565b600061087282610855565b9050919050565b61088a61088582610836565b610867565b82525050565b600061089c82866107ff565b6020820191506108ac8285610879565b6014820191506108bc82846107ff565b602082019150819050949350505050565b7f4e487b7100000000000000000000000000000000000000000000000000000000600052601260045260246000fd5b6000610907826103e7565b9150610912836103e7565b925082610922576109216108cd565b5b828206905092915050565b6000610938826103e7565b9150610943836103e7565b925082610953576109526108cd565b5b828204905092915050565b7f4e487b7100000000000000000000000000000000000000000000000000000000600052604160045260246000fd5b6000610998826103e7565b91506109a3836103e7565b9250828210156109b6576109b5610653565b5b828203905092915050565b7f4e487b7100000000000000000000000000000000000000000000000000000000600052603260045260246000fdfea264697066735822122029c7470666f8872ea04308c90937edf8ef44667816a55043e06aa47896af733564736f6c634300080c0033",
					"opcodes": "PUSH1 0x80 PUSH1 0x40 MSTORE PUSH1 0x0 PUSH1 0x1 PUSH1 0x0 PUSH2 0x100 EXP DUP2 SLOAD DUP2 PUSH1 0xFF MUL NOT AND SWAP1 DUP4 ISZERO ISZERO MUL OR SWAP1 SSTORE POP PUSH1 0x0 PUSH1 0x2 SSTORE CALLVALUE DUP1 ISZERO PUSH2 0x30 JUMPI PUSH1 0x0 DUP1 REVERT JUMPDEST POP PUSH2 0xA26 DUP1 PUSH2 0x40 PUSH1 0x0 CODECOPY PUSH1 0x0 RETURN INVALID PUSH1 0x80 PUSH1 0x40 MSTORE CALLVALUE DUP1 ISZERO PUSH2 0x10 JUMPI PUSH1 0x0 DUP1 REVERT JUMPDEST POP PUSH1 0x4 CALLDATASIZE LT PUSH2 0x41 JUMPI PUSH1 0x0 CALLDATALOAD PUSH1 0xE0 SHR DUP1 PUSH4 0x6898F82B EQ PUSH2 0x46 JUMPI DUP1 PUSH4 0xD826F88F EQ PUSH2 0x76 JUMPI DUP1 PUSH4 0xEFEDC669 EQ PUSH2 0x80 JUMPI JUMPDEST PUSH1 0x0 DUP1 REVERT JUMPDEST PUSH2 0x60 PUSH1 0x4 DUP1 CALLDATASIZE SUB DUP2 ADD SWAP1 PUSH2 0x5B SWAP2 SWAP1 PUSH2 0x41D JUMP JUMPDEST PUSH2 0x9E JUMP JUMPDEST PUSH1 0x40 MLOAD PUSH2 0x6D SWAP2 SWAP1 PUSH2 0x4E3 JUMP JUMPDEST PUSH1 0x40 MLOAD DUP1 SWAP2 SUB SWAP1 RETURN JUMPDEST PUSH2 0x7E PUSH2 0x1FC JUMP JUMPDEST STOP JUMPDEST PUSH2 0x88 PUSH2 0x220 JUMP JUMPDEST PUSH1 0x40 MLOAD PUSH2 0x95 SWAP2 SWAP1 PUSH2 0x514 JUMP JUMPDEST PUSH1 0x40 MLOAD DUP1 SWAP2 SUB SWAP1 RETURN JUMPDEST PUSH1 0x60 PUSH1 0x1 ISZERO ISZERO PUSH1 0x1 PUSH1 0x0 SWAP1 SLOAD SWAP1 PUSH2 0x100 EXP SWAP1 DIV PUSH1 0xFF AND ISZERO ISZERO EQ ISZERO PUSH2 0xF7 JUMPI PUSH1 0x40 MLOAD PUSH32 0x8C379A000000000000000000000000000000000000000000000000000000000 DUP2 MSTORE PUSH1 0x4 ADD PUSH2 0xEE SWAP1 PUSH2 0x5A1 JUMP JUMPDEST PUSH1 0x40 MLOAD DUP1 SWAP2 SUB SWAP1 REVERT JUMPDEST PUSH1 0x1 DUP3 LT ISZERO DUP1 ISZERO PUSH2 0x109 JUMPI POP PUSH1 0x6 DUP3 GT ISZERO JUMPDEST PUSH2 0x148 JUMPI PUSH1 0x40 MLOAD PUSH32 0x8C379A000000000000000000000000000000000000000000000000000000000 DUP2 MSTORE PUSH1 0x4 ADD PUSH2 0x13F SWAP1 PUSH2 0x633 JUMP JUMPDEST PUSH1 0x40 MLOAD DUP1 SWAP2 SUB SWAP1 REVERT JUMPDEST PUSH1 0x0 PUSH1 0x1 PUSH2 0x154 PUSH2 0x226 JUMP JUMPDEST PUSH2 0x15E SWAP2 SWAP1 PUSH2 0x682 JUMP JUMPDEST SWAP1 POP DUP1 DUP4 EQ PUSH2 0x1AF JUMPI DUP1 PUSH1 0x0 DUP1 DUP3 DUP3 SLOAD PUSH2 0x178 SWAP2 SWAP1 PUSH2 0x682 JUMP JUMPDEST SWAP3 POP POP DUP2 SWAP1 SSTORE POP PUSH2 0x188 DUP2 PUSH2 0x281 JUMP JUMPDEST PUSH1 0x40 MLOAD PUSH1 0x20 ADD PUSH2 0x198 SWAP2 SWAP1 PUSH2 0x73A JUMP JUMPDEST PUSH1 0x40 MLOAD PUSH1 0x20 DUP2 DUP4 SUB SUB DUP2 MSTORE SWAP1 PUSH1 0x40 MSTORE SWAP2 POP POP PUSH2 0x1F7 JUMP JUMPDEST PUSH1 0x1 DUP1 PUSH1 0x0 PUSH2 0x100 EXP DUP2 SLOAD DUP2 PUSH1 0xFF MUL NOT AND SWAP1 DUP4 ISZERO ISZERO MUL OR SWAP1 SSTORE POP PUSH2 0x1D4 PUSH1 0x0 SLOAD PUSH2 0x281 JUMP JUMPDEST PUSH1 0x40 MLOAD PUSH1 0x20 ADD PUSH2 0x1E4 SWAP2 SWAP1 PUSH2 0x786 JUMP JUMPDEST PUSH1 0x40 MLOAD PUSH1 0x20 DUP2 DUP4 SUB SUB DUP2 MSTORE SWAP1 PUSH1 0x40 MSTORE SWAP2 POP POP JUMPDEST SWAP2 SWAP1 POP JUMP JUMPDEST PUSH1 0x0 DUP1 DUP2 SWAP1 SSTORE POP PUSH1 0x0 PUSH1 0x1 PUSH1 0x0 PUSH2 0x100 EXP DUP2 SLOAD DUP2 PUSH1 0xFF MUL NOT AND SWAP1 DUP4 ISZERO ISZERO MUL OR SWAP1 SSTORE POP JUMP JUMPDEST PUSH1 0x0 SLOAD DUP2 JUMP JUMPDEST PUSH1 0x0 PUSH1 0x2 PUSH1 0x0 DUP2 SLOAD DUP1 SWAP3 SWAP2 SWAP1 PUSH2 0x23B SWAP1 PUSH2 0x7AC JUMP JUMPDEST SWAP2 SWAP1 POP SSTORE POP PUSH1 0x6 TIMESTAMP CALLER PUSH1 0x2 SLOAD PUSH1 0x40 MLOAD PUSH1 0x20 ADD PUSH2 0x259 SWAP4 SWAP3 SWAP2 SWAP1 PUSH2 0x890 JUMP JUMPDEST PUSH1 0x40 MLOAD PUSH1 0x20 DUP2 DUP4 SUB SUB DUP2 MSTORE SWAP1 PUSH1 0x40 MSTORE DUP1 MLOAD SWAP1 PUSH1 0x20 ADD KECCAK256 PUSH1 0x0 SHR PUSH2 0x27C SWAP2 SWAP1 PUSH2 0x8FC JUMP JUMPDEST SWAP1 POP SWAP1 JUMP JUMPDEST PUSH1 0x60 PUSH1 0x0 DUP3 EQ ISZERO PUSH2 0x2C9 JUMPI PUSH1 0x40 MLOAD DUP1 PUSH1 0x40 ADD PUSH1 0x40 MSTORE DUP1 PUSH1 0x1 DUP2 MSTORE PUSH1 0x20 ADD PUSH32 0x3000000000000000000000000000000000000000000000000000000000000000 DUP2 MSTORE POP SWAP1 POP PUSH2 0x3DD JUMP JUMPDEST PUSH1 0x0 DUP3 SWAP1 POP PUSH1 0x0 JUMPDEST PUSH1 0x0 DUP3 EQ PUSH2 0x2FB JUMPI DUP1 DUP1 PUSH2 0x2E4 SWAP1 PUSH2 0x7AC JUMP JUMPDEST SWAP2 POP POP PUSH1 0xA DUP3 PUSH2 0x2F4 SWAP2 SWAP1 PUSH2 0x92D JUMP JUMPDEST SWAP2 POP PUSH2 0x2D1 JUMP JUMPDEST PUSH1 0x0 DUP2 PUSH8 0xFFFFFFFFFFFFFFFF DUP2 GT ISZERO PUSH2 0x317 JUMPI PUSH2 0x316 PUSH2 0x95E JUMP JUMPDEST JUMPDEST PUSH1 0x40 MLOAD SWAP1 DUP1 DUP3 MSTORE DUP1 PUSH1 0x1F ADD PUSH1 0x1F NOT AND PUSH1 0x20 ADD DUP3 ADD PUSH1 0x40 MSTORE DUP1 ISZERO PUSH2 0x349 JUMPI DUP2 PUSH1 0x20 ADD PUSH1 0x1 DUP3 MUL DUP1 CALLDATASIZE DUP4 CALLDATACOPY DUP1 DUP3 ADD SWAP2 POP POP SWAP1 POP JUMPDEST POP SWAP1 POP JUMPDEST PUSH1 0x0 DUP6 EQ PUSH2 0x3D6 JUMPI PUSH1 0x1 DUP3 PUSH2 0x362 SWAP2 SWAP1 PUSH2 0x98D JUMP JUMPDEST SWAP2 POP PUSH1 0xA DUP6 PUSH2 0x371 SWAP2 SWAP1 PUSH2 0x8FC JUMP JUMPDEST PUSH1 0x30 PUSH2 0x37D SWAP2 SWAP1 PUSH2 0x682 JUMP JUMPDEST PUSH1 0xF8 SHL DUP2 DUP4 DUP2 MLOAD DUP2 LT PUSH2 0x393 JUMPI PUSH2 0x392 PUSH2 0x9C1 JUMP JUMPDEST JUMPDEST PUSH1 0x20 ADD ADD SWAP1 PUSH31 0xFFFFFFFFFFFFFFFFFFFFFFFFFFFFFFFFFFFFFFFFFFFFFFFFFFFFFFFFFFFFFF NOT AND SWAP1 DUP2 PUSH1 0x0 BYTE SWAP1 MSTORE8 POP PUSH1 0xA DUP6 PUSH2 0x3CF SWAP2 SWAP1 PUSH2 0x92D JUMP JUMPDEST SWAP5 POP PUSH2 0x34D JUMP JUMPDEST DUP1 SWAP4 POP POP POP POP JUMPDEST SWAP2 SWAP1 POP JUMP JUMPDEST PUSH1 0x0 DUP1 REVERT JUMPDEST PUSH1 0x0 DUP2 SWAP1 POP SWAP2 SWAP1 POP JUMP JUMPDEST PUSH2 0x3FA DUP2 PUSH2 0x3E7 JUMP JUMPDEST DUP2 EQ PUSH2 0x405 JUMPI PUSH1 0x0 DUP1 REVERT JUMPDEST POP JUMP JUMPDEST PUSH1 0x0 DUP2 CALLDATALOAD SWAP1 POP PUSH2 0x417 DUP2 PUSH2 0x3F1 JUMP JUMPDEST SWAP3 SWAP2 POP POP JUMP JUMPDEST PUSH1 0x0 PUSH1 0x20 DUP3 DUP5 SUB SLT ISZERO PUSH2 0x433 JUMPI PUSH2 0x432 PUSH2 0x3E2 JUMP JUMPDEST JUMPDEST PUSH1 0x0 PUSH2 0x441 DUP5 DUP3 DUP6 ADD PUSH2 0x408 JUMP JUMPDEST SWAP2 POP POP SWAP3 SWAP2 POP POP JUMP JUMPDEST PUSH1 0x0 DUP2 MLOAD SWAP1 POP SWAP2 SWAP1 POP JUMP JUMPDEST PUSH1 0x0 DUP3 DUP3 MSTORE PUSH1 0x20 DUP3 ADD SWAP1 POP SWAP3 SWAP2 POP POP JUMP JUMPDEST PUSH1 0x0 JUMPDEST DUP4 DUP2 LT ISZERO PUSH2 0x484 JUMPI DUP1 DUP3 ADD MLOAD DUP2 DUP5 ADD MSTORE PUSH1 0x20 DUP2 ADD SWAP1 POP PUSH2 0x469 JUMP JUMPDEST DUP4 DUP2 GT ISZERO PUSH2 0x493 JUMPI PUSH1 0x0 DUP5 DUP5 ADD MSTORE JUMPDEST POP POP POP POP JUMP JUMPDEST PUSH1 0x0 PUSH1 0x1F NOT PUSH1 0x1F DUP4 ADD AND SWAP1 POP SWAP2 SWAP1 POP JUMP JUMPDEST PUSH1 0x0 PUSH2 0x4B5 DUP3 PUSH2 0x44A JUMP JUMPDEST PUSH2 0x4BF DUP2 DUP6 PUSH2 0x455 JUMP JUMPDEST SWAP4 POP PUSH2 0x4CF DUP2 DUP6 PUSH1 0x20 DUP7 ADD PUSH2 0x466 JUMP JUMPDEST PUSH2 0x4D8 DUP2 PUSH2 0x499 JUMP JUMPDEST DUP5 ADD SWAP2 POP POP SWAP3 SWAP2 POP POP JUMP JUMPDEST PUSH1 0x0 PUSH1 0x20 DUP3 ADD SWAP1 POP DUP2 DUP2 SUB PUSH1 0x0 DUP4 ADD MSTORE PUSH2 0x4FD DUP2 DUP5 PUSH2 0x4AA JUMP JUMPDEST SWAP1 POP SWAP3 SWAP2 POP POP JUMP JUMPDEST PUSH2 0x50E DUP2 PUSH2 0x3E7 JUMP JUMPDEST DUP3 MSTORE POP POP JUMP JUMPDEST PUSH1 0x0 PUSH1 0x20 DUP3 ADD SWAP1 POP PUSH2 0x529 PUSH1 0x0 DUP4 ADD DUP5 PUSH2 0x505 JUMP JUMPDEST SWAP3 SWAP2 POP POP JUMP JUMPDEST PUSH32 0x4D617463682068617320656E6465642E2E205072657373205265736574206275 PUSH1 0x0 DUP3 ADD MSTORE PUSH32 0x74746F6E20746F20526573746172742E2E000000000000000000000000000000 PUSH1 0x20 DUP3 ADD MSTORE POP JUMP JUMPDEST PUSH1 0x0 PUSH2 0x58B PUSH1 0x31 DUP4 PUSH2 0x455 JUMP JUMPDEST SWAP2 POP PUSH2 0x596 DUP3 PUSH2 0x52F JUMP JUMPDEST PUSH1 0x40 DUP3 ADD SWAP1 POP SWAP2 SWAP1 POP JUMP JUMPDEST PUSH1 0x0 PUSH1 0x20 DUP3 ADD SWAP1 POP DUP2 DUP2 SUB PUSH1 0x0 DUP4 ADD MSTORE PUSH2 0x5BA DUP2 PUSH2 0x57E JUMP JUMPDEST SWAP1 POP SWAP2 SWAP1 POP JUMP JUMPDEST PUSH32 0x4769766520612076616C6964206E756D626572206265747765656E203120616E PUSH1 0x0 DUP3 ADD MSTORE PUSH32 0x6420360000000000000000000000000000000000000000000000000000000000 PUSH1 0x20 DUP3 ADD MSTORE POP JUMP JUMPDEST PUSH1 0x0 PUSH2 0x61D PUSH1 0x23 DUP4 PUSH2 0x455 JUMP JUMPDEST SWAP2 POP PUSH2 0x628 DUP3 PUSH2 0x5C1 JUMP JUMPDEST PUSH1 0x40 DUP3 ADD SWAP1 POP SWAP2 SWAP1 POP JUMP JUMPDEST PUSH1 0x0 PUSH1 0x20 DUP3 ADD SWAP1 POP DUP2 DUP2 SUB PUSH1 0x0 DUP4 ADD MSTORE PUSH2 0x64C DUP2 PUSH2 0x610 JUMP JUMPDEST SWAP1 POP SWAP2 SWAP1 POP JUMP JUMPDEST PUSH32 0x4E487B7100000000000000000000000000000000000000000000000000000000 PUSH1 0x0 MSTORE PUSH1 0x11 PUSH1 0x4 MSTORE PUSH1 0x24 PUSH1 0x0 REVERT JUMPDEST PUSH1 0x0 PUSH2 0x68D DUP3 PUSH2 0x3E7 JUMP JUMPDEST SWAP2 POP PUSH2 0x698 DUP4 PUSH2 0x3E7 JUMP JUMPDEST SWAP3 POP DUP3 PUSH32 0xFFFFFFFFFFFFFFFFFFFFFFFFFFFFFFFFFFFFFFFFFFFFFFFFFFFFFFFFFFFFFFFF SUB DUP3 GT ISZERO PUSH2 0x6CD JUMPI PUSH2 0x6CC PUSH2 0x653 JUMP JUMPDEST JUMPDEST DUP3 DUP3 ADD SWAP1 POP SWAP3 SWAP2 POP POP JUMP JUMPDEST PUSH1 0x0 DUP2 SWAP1 POP SWAP3 SWAP2 POP POP JUMP JUMPDEST PUSH1 0x0 PUSH2 0x6EE DUP3 PUSH2 0x44A JUMP JUMPDEST PUSH2 0x6F8 DUP2 DUP6 PUSH2 0x6D8 JUMP JUMPDEST SWAP4 POP PUSH2 0x708 DUP2 DUP6 PUSH1 0x20 DUP7 ADD PUSH2 0x466 JUMP JUMPDEST DUP1 DUP5 ADD SWAP2 POP POP SWAP3 SWAP2 POP POP JUMP JUMPDEST PUSH32 0x2052554E53000000000000000000000000000000000000000000000000000000 DUP2 MSTORE POP JUMP JUMPDEST PUSH1 0x0 PUSH2 0x746 DUP3 DUP5 PUSH2 0x6E3 JUMP JUMPDEST SWAP2 POP PUSH2 0x751 DUP3 PUSH2 0x714 JUMP JUMPDEST PUSH1 0x5 DUP3 ADD SWAP2 POP DUP2 SWAP1 POP SWAP3 SWAP2 POP POP JUMP JUMPDEST PUSH32 0x204F555400000000000000000000000000000000000000000000000000000000 DUP2 MSTORE POP JUMP JUMPDEST PUSH1 0x0 PUSH2 0x792 DUP3 DUP5 PUSH2 0x6E3 JUMP JUMPDEST SWAP2 POP PUSH2 0x79D DUP3 PUSH2 0x760 JUMP JUMPDEST PUSH1 0x4 DUP3 ADD SWAP2 POP DUP2 SWAP1 POP SWAP3 SWAP2 POP POP JUMP JUMPDEST PUSH1 0x0 PUSH2 0x7B7 DUP3 PUSH2 0x3E7 JUMP JUMPDEST SWAP2 POP PUSH32 0xFFFFFFFFFFFFFFFFFFFFFFFFFFFFFFFFFFFFFFFFFFFFFFFFFFFFFFFFFFFFFFFF DUP3 EQ ISZERO PUSH2 0x7EA JUMPI PUSH2 0x7E9 PUSH2 0x653 JUMP JUMPDEST JUMPDEST PUSH1 0x1 DUP3 ADD SWAP1 POP SWAP2 SWAP1 POP JUMP JUMPDEST PUSH1 0x0 DUP2 SWAP1 POP SWAP2 SWAP1 POP JUMP JUMPDEST PUSH2 0x810 PUSH2 0x80B DUP3 PUSH2 0x3E7 JUMP JUMPDEST PUSH2 0x7F5 JUMP JUMPDEST DUP3 MSTORE POP POP JUMP JUMPDEST PUSH1 0x0 PUSH20 0xFFFFFFFFFFFFFFFFFFFFFFFFFFFFFFFFFFFFFFFF DUP3 AND SWAP1 POP SWAP2 SWAP1 POP JUMP JUMPDEST PUSH1 0x0 PUSH2 0x841 DUP3 PUSH2 0x816 JUMP JUMPDEST SWAP1 POP SWAP2 SWAP1 POP JUMP JUMPDEST PUSH1 0x0 DUP2 PUSH1 0x60 SHL SWAP1 POP SWAP2 SWAP1 POP JUMP JUMPDEST PUSH1 0x0 PUSH2 0x860 DUP3 PUSH2 0x848 JUMP JUMPDEST SWAP1 POP SWAP2 SWAP1 POP JUMP JUMPDEST PUSH1 0x0 PUSH2 0x872 DUP3 PUSH2 0x855 JUMP JUMPDEST SWAP1 POP SWAP2 SWAP1 POP JUMP JUMPDEST PUSH2 0x88A PUSH2 0x885 DUP3 PUSH2 0x836 JUMP JUMPDEST PUSH2 0x867 JUMP JUMPDEST DUP3 MSTORE POP POP JUMP JUMPDEST PUSH1 0x0 PUSH2 0x89C DUP3 DUP7 PUSH2 0x7FF JUMP JUMPDEST PUSH1 0x20 DUP3 ADD SWAP2 POP PUSH2 0x8AC DUP3 DUP6 PUSH2 0x879 JUMP JUMPDEST PUSH1 0x14 DUP3 ADD SWAP2 POP PUSH2 0x8BC DUP3 DUP5 PUSH2 0x7FF JUMP JUMPDEST PUSH1 0x20 DUP3 ADD SWAP2 POP DUP2 SWAP1 POP SWAP5 SWAP4 POP POP POP POP JUMP JUMPDEST PUSH32 0x4E487B7100000000000000000000000000000000000000000000000000000000 PUSH1 0x0 MSTORE PUSH1 0x12 PUSH1 0x4 MSTORE PUSH1 0x24 PUSH1 0x0 REVERT JUMPDEST PUSH1 0x0 PUSH2 0x907 DUP3 PUSH2 0x3E7 JUMP JUMPDEST SWAP2 POP PUSH2 0x912 DUP4 PUSH2 0x3E7 JUMP JUMPDEST SWAP3 POP DUP3 PUSH2 0x922 JUMPI PUSH2 0x921 PUSH2 0x8CD JUMP JUMPDEST JUMPDEST DUP3 DUP3 MOD SWAP1 POP SWAP3 SWAP2 POP POP JUMP JUMPDEST PUSH1 0x0 PUSH2 0x938 DUP3 PUSH2 0x3E7 JUMP JUMPDEST SWAP2 POP PUSH2 0x943 DUP4 PUSH2 0x3E7 JUMP JUMPDEST SWAP3 POP DUP3 PUSH2 0x953 JUMPI PUSH2 0x952 PUSH2 0x8CD JUMP JUMPDEST JUMPDEST DUP3 DUP3 DIV SWAP1 POP SWAP3 SWAP2 POP POP JUMP JUMPDEST PUSH32 0x4E487B7100000000000000000000000000000000000000000000000000000000 PUSH1 0x0 MSTORE PUSH1 0x41 PUSH1 0x4 MSTORE PUSH1 0x24 PUSH1 0x0 REVERT JUMPDEST PUSH1 0x0 PUSH2 0x998 DUP3 PUSH2 0x3E7 JUMP JUMPDEST SWAP2 POP PUSH2 0x9A3 DUP4 PUSH2 0x3E7 JUMP JUMPDEST SWAP3 POP DUP3 DUP3 LT ISZERO PUSH2 0x9B6 JUMPI PUSH2 0x9B5 PUSH2 0x653 JUMP JUMPDEST JUMPDEST DUP3 DUP3 SUB SWAP1 POP SWAP3 SWAP2 POP POP JUMP JUMPDEST PUSH32 0x4E487B7100000000000000000000000000000000000000000000000000000000 PUSH1 0x0 MSTORE PUSH1 0x32 PUSH1 0x4 MSTORE PUSH1 0x24 PUSH1 0x0 REVERT INVALID LOG2 PUSH5 0x6970667358 0x22 SLT KECCAK256 0x29 0xC7 SELFBALANCE MOD PUSH7 0xF8872EA04308C9 MULMOD CALLDATACOPY 0xED 0xF8 0xEF DIFFICULTY PUSH7 0x7816A55043E06A LOG4 PUSH25 0x96AF733564736F6C634300080C003300000000000000000000 "
				},
				"gasEstimates": {
					"creation": {
						"codeDepositCost": "519600",
						"executionCost": "29829",
						"totalCost": "549429"
					},
					"external": {
						"play(uint256)": "infinite",
						"reset()": "29425",
						"score()": "2451"
					},
					"internal": {
						"randomNo()": "infinite"
					}
				},
				"methodIdentifiers": {
					"play(uint256)": "6898f82b",
					"reset()": "d826f88f",
					"score()": "efedc669"
				}
			},
			"storageLayout": {
				"storage": [
					{
						"astId": 230,
						"contract": "Contracts.sol:oddEvenGame",
						"label": "score",
						"offset": 0,
						"slot": "0",
						"type": "t_uint256"
					},
					{
						"astId": 233,
						"contract": "Contracts.sol:oddEvenGame",
						"label": "isEnded",
						"offset": 0,
						"slot": "1",
						"type": "t_bool"
					},
					{
						"astId": 236,
						"contract": "Contracts.sol:oddEvenGame",
						"label": "randNonce",
						"offset": 0,
						"slot": "2",
						"type": "t_uint256"
					}
				],
				"types": {
					"t_bool": {
						"encoding": "inplace",
						"label": "bool",
						"numberOfBytes": "1"
					},
					"t_uint256": {
						"encoding": "inplace",
						"label": "uint256",
						"numberOfBytes": "32"
					}
				}
			},
			"userdoc": {
				"kind": "user",
				"methods": {},
				"version": 1
			}
		}
	}
}