{
	"Contracts.sol": {
		"oddEvenGame": {
			"abi": [
				{
					"inputs": [
						{
							"internalType": "uint256",
							"name": "_userNum",
							"type": "uint256"
						}
					],
					"name": "check",
					"outputs": [
						{
							"internalType": "string",
							"name": "",
							"type": "string"
						}
					],
					"stateMutability": "nonpayable",
					"type": "function"
				},
				{
					"inputs": [],
					"name": "isEnded",
					"outputs": [
						{
							"internalType": "bool",
							"name": "",
							"type": "bool"
						}
					],
					"stateMutability": "view",
					"type": "function"
				},
				{
					"inputs": [],
					"name": "reset",
					"outputs": [],
					"stateMutability": "nonpayable",
					"type": "function"
				},
				{
					"inputs": [],
					"name": "score",
					"outputs": [
						{
							"internalType": "uint256",
							"name": "",
							"type": "uint256"
						}
					],
					"stateMutability": "view",
					"type": "function"
				}
			],
			"devdoc": {
				"kind": "dev",
				"methods": {},
				"version": 1
			},
			"evm": {
				"assembly": "    /* \"Contracts.sol\":110:1036  contract oddEvenGame{... */\n  mstore(0x40, 0x80)\n    /* \"Contracts.sol\":184:189  false */\n  0x00\n    /* \"Contracts.sol\":162:189  bool public isEnded = false */\n  0x01\n  exp(0x0100, 0x00)\n  dup2\n  sload\n  dup2\n  0xff\n  mul\n  not\n  and\n  swap1\n  dup4\n  iszero\n  iszero\n  mul\n  or\n  swap1\n  sstore\n  pop\n    /* \"Contracts.sol\":216:217  0 */\n  0x00\n    /* \"Contracts.sol\":196:217  uint256 randNonce = 0 */\n  0x02\n  sstore\n    /* \"Contracts.sol\":110:1036  contract oddEvenGame{... */\n  callvalue\n  dup1\n  iszero\n  tag_1\n  jumpi\n  0x00\n  dup1\n  revert\ntag_1:\n  pop\n  dataSize(sub_0)\n  dup1\n  dataOffset(sub_0)\n  0x00\n  codecopy\n  0x00\n  return\nstop\n\nsub_0: assembly {\n        /* \"Contracts.sol\":110:1036  contract oddEvenGame{... */\n      mstore(0x40, 0x80)\n      callvalue\n      dup1\n      iszero\n      tag_1\n      jumpi\n      0x00\n      dup1\n      revert\n    tag_1:\n      pop\n      jumpi(tag_2, lt(calldatasize, 0x04))\n      shr(0xe0, calldataload(0x00))\n      dup1\n      0x5f72f450\n      eq\n      tag_3\n      jumpi\n      dup1\n      0xa4fd6f56\n      eq\n      tag_4\n      jumpi\n      dup1\n      0xd826f88f\n      eq\n      tag_5\n      jumpi\n      dup1\n      0xefedc669\n      eq\n      tag_6\n      jumpi\n    tag_2:\n      0x00\n      dup1\n      revert\n        /* \"Contracts.sol\":478:1034  function check(uint256 _userNum) public returns(string memory) {... */\n    tag_3:\n      tag_7\n      0x04\n      dup1\n      calldatasize\n      sub\n      dup2\n      add\n      swap1\n      tag_8\n      swap2\n      swap1\n      tag_9\n      jump\t// in\n    tag_8:\n      tag_10\n      jump\t// in\n    tag_7:\n      mload(0x40)\n      tag_11\n      swap2\n      swap1\n      tag_12\n      jump\t// in\n    tag_11:\n      mload(0x40)\n      dup1\n      swap2\n      sub\n      swap1\n      return\n        /* \"Contracts.sol\":162:189  bool public isEnded = false */\n    tag_4:\n      tag_13\n      tag_14\n      jump\t// in\n    tag_13:\n      mload(0x40)\n      tag_15\n      swap2\n      swap1\n      tag_16\n      jump\t// in\n    tag_15:\n      mload(0x40)\n      dup1\n      swap2\n      sub\n      swap1\n      return\n        /* \"Contracts.sol\":398:472  function reset() public{... */\n    tag_5:\n      tag_17\n      tag_18\n      jump\t// in\n    tag_17:\n      stop\n        /* \"Contracts.sol\":136:156  uint256 public score */\n    tag_6:\n      tag_19\n      tag_20\n      jump\t// in\n    tag_19:\n      mload(0x40)\n      tag_21\n      swap2\n      swap1\n      tag_22\n      jump\t// in\n    tag_21:\n      mload(0x40)\n      dup1\n      swap2\n      sub\n      swap1\n      return\n        /* \"Contracts.sol\":478:1034  function check(uint256 _userNum) public returns(string memory) {... */\n    tag_10:\n        /* \"Contracts.sol\":526:539  string memory */\n      0x60\n        /* \"Contracts.sol\":570:574  true */\n      0x01\n        /* \"Contracts.sol\":559:574  isEnded == true */\n      iszero\n      iszero\n        /* \"Contracts.sol\":559:566  isEnded */\n      0x01\n      0x00\n      swap1\n      sload\n      swap1\n      0x0100\n      exp\n      swap1\n      div\n      0xff\n      and\n        /* \"Contracts.sol\":559:574  isEnded == true */\n      iszero\n      iszero\n      eq\n        /* \"Contracts.sol\":551:627  require(isEnded == true,\"Match has ended.. Press Reset button to Restart..\") */\n      tag_24\n      jumpi\n      mload(0x40)\n      0x08c379a000000000000000000000000000000000000000000000000000000000\n      dup2\n      mstore\n      0x04\n      add\n      tag_25\n      swap1\n      tag_26\n      jump\t// in\n    tag_25:\n      mload(0x40)\n      dup1\n      swap2\n      sub\n      swap1\n      revert\n    tag_24:\n        /* \"Contracts.sol\":656:657  1 */\n      0x01\n        /* \"Contracts.sol\":645:653  _userNum */\n      dup3\n        /* \"Contracts.sol\":645:657  _userNum >=1 */\n      lt\n      iszero\n        /* \"Contracts.sol\":645:674  _userNum >=1 && _userNum <= 6 */\n      dup1\n      iszero\n      tag_27\n      jumpi\n      pop\n        /* \"Contracts.sol\":673:674  6 */\n      0x06\n        /* \"Contracts.sol\":661:669  _userNum */\n      dup3\n        /* \"Contracts.sol\":661:674  _userNum <= 6 */\n      gt\n      iszero\n        /* \"Contracts.sol\":645:674  _userNum >=1 && _userNum <= 6 */\n    tag_27:\n        /* \"Contracts.sol\":637:714  require(_userNum >=1 && _userNum <= 6, \"Give a valid number between 1 and 6\") */\n      tag_28\n      jumpi\n      mload(0x40)\n      0x08c379a000000000000000000000000000000000000000000000000000000000\n      dup2\n      mstore\n      0x04\n      add\n      tag_29\n      swap1\n      tag_30\n      jump\t// in\n    tag_29:\n      mload(0x40)\n      dup1\n      swap2\n      sub\n      swap1\n      revert\n    tag_28:\n        /* \"Contracts.sol\":725:745  uint256 randomNumber */\n      0x00\n        /* \"Contracts.sol\":759:760  1 */\n      0x01\n        /* \"Contracts.sol\":748:758  randomNo() */\n      tag_31\n        /* \"Contracts.sol\":748:756  randomNo */\n      tag_32\n        /* \"Contracts.sol\":748:758  randomNo() */\n      jump\t// in\n    tag_31:\n        /* \"Contracts.sol\":748:760  randomNo()+1 */\n      tag_33\n      swap2\n      swap1\n      tag_34\n      jump\t// in\n    tag_33:\n        /* \"Contracts.sol\":725:760  uint256 randomNumber = randomNo()+1 */\n      swap1\n      pop\n        /* \"Contracts.sol\":786:798  randomNumber */\n      dup1\n        /* \"Contracts.sol\":774:782  _userNum */\n      dup4\n        /* \"Contracts.sol\":774:798  _userNum != randomNumber */\n      eq\n        /* \"Contracts.sol\":771:1028  if(_userNum != randomNumber){... */\n      tag_35\n      jumpi\n        /* \"Contracts.sol\":822:834  randomNumber */\n      dup1\n        /* \"Contracts.sol\":813:818  score */\n      0x00\n      dup1\n        /* \"Contracts.sol\":813:834  score += randomNumber */\n      dup3\n      dup3\n      sload\n      tag_36\n      swap2\n      swap1\n      tag_34\n      jump\t// in\n    tag_36:\n      swap3\n      pop\n      pop\n      dup2\n      swap1\n      sstore\n      pop\n        /* \"Contracts.sol\":869:899  Strings.toString(randomNumber) */\n      tag_37\n        /* \"Contracts.sol\":886:898  randomNumber */\n      dup2\n        /* \"Contracts.sol\":869:885  Strings.toString */\n      tag_38\n        /* \"Contracts.sol\":869:899  Strings.toString(randomNumber) */\n      jump\t// in\n    tag_37:\n        /* \"Contracts.sol\":855:908  string.concat(Strings.toString(randomNumber),\" RUNS\") */\n      add(0x20, mload(0x40))\n      tag_39\n      swap2\n      swap1\n      tag_40\n      jump\t// in\n    tag_39:\n      mload(0x40)\n      0x20\n      dup2\n      dup4\n      sub\n      sub\n      dup2\n      mstore\n      swap1\n      0x40\n      mstore\n        /* \"Contracts.sol\":848:908  return string.concat(Strings.toString(randomNumber),\" RUNS\") */\n      swap2\n      pop\n      pop\n      jump(tag_23)\n        /* \"Contracts.sol\":771:1028  if(_userNum != randomNumber){... */\n    tag_35:\n        /* \"Contracts.sol\":947:951  true */\n      0x01\n        /* \"Contracts.sol\":937:944  isEnded */\n      dup1\n      0x00\n        /* \"Contracts.sol\":937:951  isEnded = true */\n      0x0100\n      exp\n      dup2\n      sload\n      dup2\n      0xff\n      mul\n      not\n      and\n      swap1\n      dup4\n      iszero\n      iszero\n      mul\n      or\n      swap1\n      sstore\n      pop\n        /* \"Contracts.sol\":986:1009  Strings.toString(score) */\n      tag_42\n        /* \"Contracts.sol\":1003:1008  score */\n      sload(0x00)\n        /* \"Contracts.sol\":986:1002  Strings.toString */\n      tag_38\n        /* \"Contracts.sol\":986:1009  Strings.toString(score) */\n      jump\t// in\n    tag_42:\n        /* \"Contracts.sol\":972:1017  string.concat(Strings.toString(score),\" OUT\") */\n      add(0x20, mload(0x40))\n      tag_43\n      swap2\n      swap1\n      tag_44\n      jump\t// in\n    tag_43:\n      mload(0x40)\n      0x20\n      dup2\n      dup4\n      sub\n      sub\n      dup2\n      mstore\n      swap1\n      0x40\n      mstore\n        /* \"Contracts.sol\":965:1017  return string.concat(Strings.toString(score),\" OUT\") */\n      swap2\n      pop\n      pop\n        /* \"Contracts.sol\":478:1034  function check(uint256 _userNum) public returns(string memory) {... */\n    tag_23:\n      swap2\n      swap1\n      pop\n      jump\t// out\n        /* \"Contracts.sol\":162:189  bool public isEnded = false */\n    tag_14:\n      0x01\n      0x00\n      swap1\n      sload\n      swap1\n      0x0100\n      exp\n      swap1\n      div\n      0xff\n      and\n      dup2\n      jump\t// out\n        /* \"Contracts.sol\":398:472  function reset() public{... */\n    tag_18:\n        /* \"Contracts.sol\":439:440  0 */\n      0x00\n        /* \"Contracts.sol\":431:436  score */\n      dup1\n        /* \"Contracts.sol\":431:440  score = 0 */\n      dup2\n      swap1\n      sstore\n      pop\n        /* \"Contracts.sol\":460:465  false */\n      0x00\n        /* \"Contracts.sol\":450:457  isEnded */\n      0x01\n      0x00\n        /* \"Contracts.sol\":450:465  isEnded = false */\n      0x0100\n      exp\n      dup2\n      sload\n      dup2\n      0xff\n      mul\n      not\n      and\n      swap1\n      dup4\n      iszero\n      iszero\n      mul\n      or\n      swap1\n      sstore\n      pop\n        /* \"Contracts.sol\":398:472  function reset() public{... */\n      jump\t// out\n        /* \"Contracts.sol\":136:156  uint256 public score */\n    tag_20:\n      sload(0x00)\n      dup2\n      jump\t// out\n        /* \"Contracts.sol\":223:392  function randomNo() private returns (uint) {... */\n    tag_32:\n        /* \"Contracts.sol\":260:264  uint */\n      0x00\n        /* \"Contracts.sol\":276:285  randNonce */\n      0x02\n      0x00\n        /* \"Contracts.sol\":276:287  randNonce++ */\n      dup2\n      sload\n      dup1\n      swap3\n      swap2\n      swap1\n      tag_47\n      swap1\n      tag_48\n      jump\t// in\n    tag_47:\n      swap2\n      swap1\n      pop\n      sstore\n      pop\n        /* \"Contracts.sol\":384:385  6 */\n      0x06\n        /* \"Contracts.sol\":340:355  block.timestamp */\n      timestamp\n        /* \"Contracts.sol\":357:367  msg.sender */\n      caller\n        /* \"Contracts.sol\":369:378  randNonce */\n      sload(0x02)\n        /* \"Contracts.sol\":323:379  abi.encodePacked(block.timestamp, msg.sender, randNonce) */\n      add(0x20, mload(0x40))\n      tag_49\n      swap4\n      swap3\n      swap2\n      swap1\n      tag_50\n      jump\t// in\n    tag_49:\n      mload(0x40)\n      0x20\n      dup2\n      dup4\n      sub\n      sub\n      dup2\n      mstore\n      swap1\n      0x40\n      mstore\n        /* \"Contracts.sol\":313:380  keccak256(abi.encodePacked(block.timestamp, msg.sender, randNonce)) */\n      dup1\n      mload\n      swap1\n      0x20\n      add\n      keccak256\n        /* \"Contracts.sol\":305:381  uint256(keccak256(abi.encodePacked(block.timestamp, msg.sender, randNonce))) */\n      0x00\n      shr\n        /* \"Contracts.sol\":305:385  uint256(keccak256(abi.encodePacked(block.timestamp, msg.sender, randNonce))) % 6 */\n      tag_51\n      swap2\n      swap1\n      tag_52\n      jump\t// in\n    tag_51:\n        /* \"Contracts.sol\":298:385  return uint256(keccak256(abi.encodePacked(block.timestamp, msg.sender, randNonce))) % 6 */\n      swap1\n      pop\n        /* \"Contracts.sol\":223:392  function randomNo() private returns (uint) {... */\n      swap1\n      jump\t// out\n        /* \"@openzeppelin/contracts/utils/Strings.sol\":392:1095  function toString(uint256 value) internal pure returns (string memory) {... */\n    tag_38:\n        /* \"@openzeppelin/contracts/utils/Strings.sol\":448:461  string memory */\n      0x60\n        /* \"@openzeppelin/contracts/utils/Strings.sol\":674:675  0 */\n      0x00\n        /* \"@openzeppelin/contracts/utils/Strings.sol\":665:670  value */\n      dup3\n        /* \"@openzeppelin/contracts/utils/Strings.sol\":665:675  value == 0 */\n      eq\n        /* \"@openzeppelin/contracts/utils/Strings.sol\":661:712  if (value == 0) {... */\n      iszero\n      tag_54\n      jumpi\n        /* \"@openzeppelin/contracts/utils/Strings.sol\":691:701  return \"0\" */\n      mload(0x40)\n      dup1\n      0x40\n      add\n      0x40\n      mstore\n      dup1\n      0x01\n      dup2\n      mstore\n      0x20\n      add\n      0x3000000000000000000000000000000000000000000000000000000000000000\n      dup2\n      mstore\n      pop\n      swap1\n      pop\n      jump(tag_53)\n        /* \"@openzeppelin/contracts/utils/Strings.sol\":661:712  if (value == 0) {... */\n    tag_54:\n        /* \"@openzeppelin/contracts/utils/Strings.sol\":721:733  uint256 temp */\n      0x00\n        /* \"@openzeppelin/contracts/utils/Strings.sol\":736:741  value */\n      dup3\n        /* \"@openzeppelin/contracts/utils/Strings.sol\":721:741  uint256 temp = value */\n      swap1\n      pop\n        /* \"@openzeppelin/contracts/utils/Strings.sol\":751:765  uint256 digits */\n      0x00\n        /* \"@openzeppelin/contracts/utils/Strings.sol\":775:850  while (temp != 0) {... */\n    tag_55:\n        /* \"@openzeppelin/contracts/utils/Strings.sol\":790:791  0 */\n      0x00\n        /* \"@openzeppelin/contracts/utils/Strings.sol\":782:786  temp */\n      dup3\n        /* \"@openzeppelin/contracts/utils/Strings.sol\":782:791  temp != 0 */\n      eq\n        /* \"@openzeppelin/contracts/utils/Strings.sol\":775:850  while (temp != 0) {... */\n      tag_56\n      jumpi\n        /* \"@openzeppelin/contracts/utils/Strings.sol\":807:815  digits++ */\n      dup1\n      dup1\n      tag_57\n      swap1\n      tag_48\n      jump\t// in\n    tag_57:\n      swap2\n      pop\n      pop\n        /* \"@openzeppelin/contracts/utils/Strings.sol\":837:839  10 */\n      0x0a\n        /* \"@openzeppelin/contracts/utils/Strings.sol\":829:839  temp /= 10 */\n      dup3\n      tag_58\n      swap2\n      swap1\n      tag_59\n      jump\t// in\n    tag_58:\n      swap2\n      pop\n        /* \"@openzeppelin/contracts/utils/Strings.sol\":775:850  while (temp != 0) {... */\n      jump(tag_55)\n    tag_56:\n        /* \"@openzeppelin/contracts/utils/Strings.sol\":859:878  bytes memory buffer */\n      0x00\n        /* \"@openzeppelin/contracts/utils/Strings.sol\":891:897  digits */\n      dup2\n        /* \"@openzeppelin/contracts/utils/Strings.sol\":881:898  new bytes(digits) */\n      0xffffffffffffffff\n      dup2\n      gt\n      iszero\n      tag_60\n      jumpi\n      tag_61\n      tag_62\n      jump\t// in\n    tag_61:\n    tag_60:\n      mload(0x40)\n      swap1\n      dup1\n      dup3\n      mstore\n      dup1\n      0x1f\n      add\n      not(0x1f)\n      and\n      0x20\n      add\n      dup3\n      add\n      0x40\n      mstore\n      dup1\n      iszero\n      tag_63\n      jumpi\n      dup2\n      0x20\n      add\n      0x01\n      dup3\n      mul\n      dup1\n      calldatasize\n      dup4\n      calldatacopy\n      dup1\n      dup3\n      add\n      swap2\n      pop\n      pop\n      swap1\n      pop\n    tag_63:\n      pop\n        /* \"@openzeppelin/contracts/utils/Strings.sol\":859:898  bytes memory buffer = new bytes(digits) */\n      swap1\n      pop\n        /* \"@openzeppelin/contracts/utils/Strings.sol\":908:1058  while (value != 0) {... */\n    tag_64:\n        /* \"@openzeppelin/contracts/utils/Strings.sol\":924:925  0 */\n      0x00\n        /* \"@openzeppelin/contracts/utils/Strings.sol\":915:920  value */\n      dup6\n        /* \"@openzeppelin/contracts/utils/Strings.sol\":915:925  value != 0 */\n      eq\n        /* \"@openzeppelin/contracts/utils/Strings.sol\":908:1058  while (value != 0) {... */\n      tag_65\n      jumpi\n        /* \"@openzeppelin/contracts/utils/Strings.sol\":951:952  1 */\n      0x01\n        /* \"@openzeppelin/contracts/utils/Strings.sol\":941:952  digits -= 1 */\n      dup3\n      tag_66\n      swap2\n      swap1\n      tag_67\n      jump\t// in\n    tag_66:\n      swap2\n      pop\n        /* \"@openzeppelin/contracts/utils/Strings.sol\":1017:1019  10 */\n      0x0a\n        /* \"@openzeppelin/contracts/utils/Strings.sol\":1009:1014  value */\n      dup6\n        /* \"@openzeppelin/contracts/utils/Strings.sol\":1009:1019  value % 10 */\n      tag_68\n      swap2\n      swap1\n      tag_52\n      jump\t// in\n    tag_68:\n        /* \"@openzeppelin/contracts/utils/Strings.sol\":996:998  48 */\n      0x30\n        /* \"@openzeppelin/contracts/utils/Strings.sol\":996:1020  48 + uint256(value % 10) */\n      tag_69\n      swap2\n      swap1\n      tag_34\n      jump\t// in\n    tag_69:\n        /* \"@openzeppelin/contracts/utils/Strings.sol\":983:1022  bytes1(uint8(48 + uint256(value % 10))) */\n      0xf8\n      shl\n        /* \"@openzeppelin/contracts/utils/Strings.sol\":966:972  buffer */\n      dup2\n        /* \"@openzeppelin/contracts/utils/Strings.sol\":973:979  digits */\n      dup4\n        /* \"@openzeppelin/contracts/utils/Strings.sol\":966:980  buffer[digits] */\n      dup2\n      mload\n      dup2\n      lt\n      tag_70\n      jumpi\n      tag_71\n      tag_72\n      jump\t// in\n    tag_71:\n    tag_70:\n      0x20\n      add\n      add\n        /* \"@openzeppelin/contracts/utils/Strings.sol\":966:1022  buffer[digits] = bytes1(uint8(48 + uint256(value % 10))) */\n      swap1\n      not(0xffffffffffffffffffffffffffffffffffffffffffffffffffffffffffffff)\n      and\n      swap1\n      dup2\n      0x00\n      byte\n      swap1\n      mstore8\n      pop\n        /* \"@openzeppelin/contracts/utils/Strings.sol\":1045:1047  10 */\n      0x0a\n        /* \"@openzeppelin/contracts/utils/Strings.sol\":1036:1047  value /= 10 */\n      dup6\n      tag_73\n      swap2\n      swap1\n      tag_59\n      jump\t// in\n    tag_73:\n      swap5\n      pop\n        /* \"@openzeppelin/contracts/utils/Strings.sol\":908:1058  while (value != 0) {... */\n      jump(tag_64)\n    tag_65:\n        /* \"@openzeppelin/contracts/utils/Strings.sol\":1081:1087  buffer */\n      dup1\n        /* \"@openzeppelin/contracts/utils/Strings.sol\":1067:1088  return string(buffer) */\n      swap4\n      pop\n      pop\n      pop\n      pop\n        /* \"@openzeppelin/contracts/utils/Strings.sol\":392:1095  function toString(uint256 value) internal pure returns (string memory) {... */\n    tag_53:\n      swap2\n      swap1\n      pop\n      jump\t// out\n        /* \"#utility.yul\":88:205   */\n    tag_75:\n        /* \"#utility.yul\":197:198   */\n      0x00\n        /* \"#utility.yul\":194:195   */\n      dup1\n        /* \"#utility.yul\":187:199   */\n      revert\n        /* \"#utility.yul\":334:411   */\n    tag_77:\n        /* \"#utility.yul\":371:378   */\n      0x00\n        /* \"#utility.yul\":400:405   */\n      dup2\n        /* \"#utility.yul\":389:405   */\n      swap1\n      pop\n        /* \"#utility.yul\":334:411   */\n      swap2\n      swap1\n      pop\n      jump\t// out\n        /* \"#utility.yul\":417:539   */\n    tag_78:\n        /* \"#utility.yul\":490:514   */\n      tag_112\n        /* \"#utility.yul\":508:513   */\n      dup2\n        /* \"#utility.yul\":490:514   */\n      tag_77\n      jump\t// in\n    tag_112:\n        /* \"#utility.yul\":483:488   */\n      dup2\n        /* \"#utility.yul\":480:515   */\n      eq\n        /* \"#utility.yul\":470:533   */\n      tag_113\n      jumpi\n        /* \"#utility.yul\":529:530   */\n      0x00\n        /* \"#utility.yul\":526:527   */\n      dup1\n        /* \"#utility.yul\":519:531   */\n      revert\n        /* \"#utility.yul\":470:533   */\n    tag_113:\n        /* \"#utility.yul\":417:539   */\n      pop\n      jump\t// out\n        /* \"#utility.yul\":545:684   */\n    tag_79:\n        /* \"#utility.yul\":591:596   */\n      0x00\n        /* \"#utility.yul\":629:635   */\n      dup2\n        /* \"#utility.yul\":616:636   */\n      calldataload\n        /* \"#utility.yul\":607:636   */\n      swap1\n      pop\n        /* \"#utility.yul\":645:678   */\n      tag_115\n        /* \"#utility.yul\":672:677   */\n      dup2\n        /* \"#utility.yul\":645:678   */\n      tag_78\n      jump\t// in\n    tag_115:\n        /* \"#utility.yul\":545:684   */\n      swap3\n      swap2\n      pop\n      pop\n      jump\t// out\n        /* \"#utility.yul\":690:1019   */\n    tag_9:\n        /* \"#utility.yul\":749:755   */\n      0x00\n        /* \"#utility.yul\":798:800   */\n      0x20\n        /* \"#utility.yul\":786:795   */\n      dup3\n        /* \"#utility.yul\":777:784   */\n      dup5\n        /* \"#utility.yul\":773:796   */\n      sub\n        /* \"#utility.yul\":769:801   */\n      slt\n        /* \"#utility.yul\":766:885   */\n      iszero\n      tag_117\n      jumpi\n        /* \"#utility.yul\":804:883   */\n      tag_118\n      tag_75\n      jump\t// in\n    tag_118:\n        /* \"#utility.yul\":766:885   */\n    tag_117:\n        /* \"#utility.yul\":924:925   */\n      0x00\n        /* \"#utility.yul\":949:1002   */\n      tag_119\n        /* \"#utility.yul\":994:1001   */\n      dup5\n        /* \"#utility.yul\":985:991   */\n      dup3\n        /* \"#utility.yul\":974:983   */\n      dup6\n        /* \"#utility.yul\":970:992   */\n      add\n        /* \"#utility.yul\":949:1002   */\n      tag_79\n      jump\t// in\n    tag_119:\n        /* \"#utility.yul\":939:1002   */\n      swap2\n      pop\n        /* \"#utility.yul\":895:1012   */\n      pop\n        /* \"#utility.yul\":690:1019   */\n      swap3\n      swap2\n      pop\n      pop\n      jump\t// out\n        /* \"#utility.yul\":1025:1124   */\n    tag_80:\n        /* \"#utility.yul\":1077:1083   */\n      0x00\n        /* \"#utility.yul\":1111:1116   */\n      dup2\n        /* \"#utility.yul\":1105:1117   */\n      mload\n        /* \"#utility.yul\":1095:1117   */\n      swap1\n      pop\n        /* \"#utility.yul\":1025:1124   */\n      swap2\n      swap1\n      pop\n      jump\t// out\n        /* \"#utility.yul\":1130:1299   */\n    tag_81:\n        /* \"#utility.yul\":1214:1225   */\n      0x00\n        /* \"#utility.yul\":1248:1254   */\n      dup3\n        /* \"#utility.yul\":1243:1246   */\n      dup3\n        /* \"#utility.yul\":1236:1255   */\n      mstore\n        /* \"#utility.yul\":1288:1292   */\n      0x20\n        /* \"#utility.yul\":1283:1286   */\n      dup3\n        /* \"#utility.yul\":1279:1293   */\n      add\n        /* \"#utility.yul\":1264:1293   */\n      swap1\n      pop\n        /* \"#utility.yul\":1130:1299   */\n      swap3\n      swap2\n      pop\n      pop\n      jump\t// out\n        /* \"#utility.yul\":1305:1612   */\n    tag_82:\n        /* \"#utility.yul\":1373:1374   */\n      0x00\n        /* \"#utility.yul\":1383:1496   */\n    tag_123:\n        /* \"#utility.yul\":1397:1403   */\n      dup4\n        /* \"#utility.yul\":1394:1395   */\n      dup2\n        /* \"#utility.yul\":1391:1404   */\n      lt\n        /* \"#utility.yul\":1383:1496   */\n      iszero\n      tag_125\n      jumpi\n        /* \"#utility.yul\":1482:1483   */\n      dup1\n        /* \"#utility.yul\":1477:1480   */\n      dup3\n        /* \"#utility.yul\":1473:1484   */\n      add\n        /* \"#utility.yul\":1467:1485   */\n      mload\n        /* \"#utility.yul\":1463:1464   */\n      dup2\n        /* \"#utility.yul\":1458:1461   */\n      dup5\n        /* \"#utility.yul\":1454:1465   */\n      add\n        /* \"#utility.yul\":1447:1486   */\n      mstore\n        /* \"#utility.yul\":1419:1421   */\n      0x20\n        /* \"#utility.yul\":1416:1417   */\n      dup2\n        /* \"#utility.yul\":1412:1422   */\n      add\n        /* \"#utility.yul\":1407:1422   */\n      swap1\n      pop\n        /* \"#utility.yul\":1383:1496   */\n      jump(tag_123)\n    tag_125:\n        /* \"#utility.yul\":1514:1520   */\n      dup4\n        /* \"#utility.yul\":1511:1512   */\n      dup2\n        /* \"#utility.yul\":1508:1521   */\n      gt\n        /* \"#utility.yul\":1505:1606   */\n      iszero\n      tag_126\n      jumpi\n        /* \"#utility.yul\":1594:1595   */\n      0x00\n        /* \"#utility.yul\":1585:1591   */\n      dup5\n        /* \"#utility.yul\":1580:1583   */\n      dup5\n        /* \"#utility.yul\":1576:1592   */\n      add\n        /* \"#utility.yul\":1569:1596   */\n      mstore\n        /* \"#utility.yul\":1505:1606   */\n    tag_126:\n        /* \"#utility.yul\":1354:1612   */\n      pop\n        /* \"#utility.yul\":1305:1612   */\n      pop\n      pop\n      pop\n      jump\t// out\n        /* \"#utility.yul\":1618:1720   */\n    tag_83:\n        /* \"#utility.yul\":1659:1665   */\n      0x00\n        /* \"#utility.yul\":1710:1712   */\n      0x1f\n        /* \"#utility.yul\":1706:1713   */\n      not\n        /* \"#utility.yul\":1701:1703   */\n      0x1f\n        /* \"#utility.yul\":1694:1699   */\n      dup4\n        /* \"#utility.yul\":1690:1704   */\n      add\n        /* \"#utility.yul\":1686:1714   */\n      and\n        /* \"#utility.yul\":1676:1714   */\n      swap1\n      pop\n        /* \"#utility.yul\":1618:1720   */\n      swap2\n      swap1\n      pop\n      jump\t// out\n        /* \"#utility.yul\":1726:2090   */\n    tag_84:\n        /* \"#utility.yul\":1814:1817   */\n      0x00\n        /* \"#utility.yul\":1842:1881   */\n      tag_129\n        /* \"#utility.yul\":1875:1880   */\n      dup3\n        /* \"#utility.yul\":1842:1881   */\n      tag_80\n      jump\t// in\n    tag_129:\n        /* \"#utility.yul\":1897:1968   */\n      tag_130\n        /* \"#utility.yul\":1961:1967   */\n      dup2\n        /* \"#utility.yul\":1956:1959   */\n      dup6\n        /* \"#utility.yul\":1897:1968   */\n      tag_81\n      jump\t// in\n    tag_130:\n        /* \"#utility.yul\":1890:1968   */\n      swap4\n      pop\n        /* \"#utility.yul\":1977:2029   */\n      tag_131\n        /* \"#utility.yul\":2022:2028   */\n      dup2\n        /* \"#utility.yul\":2017:2020   */\n      dup6\n        /* \"#utility.yul\":2010:2014   */\n      0x20\n        /* \"#utility.yul\":2003:2008   */\n      dup7\n        /* \"#utility.yul\":1999:2015   */\n      add\n        /* \"#utility.yul\":1977:2029   */\n      tag_82\n      jump\t// in\n    tag_131:\n        /* \"#utility.yul\":2054:2083   */\n      tag_132\n        /* \"#utility.yul\":2076:2082   */\n      dup2\n        /* \"#utility.yul\":2054:2083   */\n      tag_83\n      jump\t// in\n    tag_132:\n        /* \"#utility.yul\":2049:2052   */\n      dup5\n        /* \"#utility.yul\":2045:2084   */\n      add\n        /* \"#utility.yul\":2038:2084   */\n      swap2\n      pop\n        /* \"#utility.yul\":1818:2090   */\n      pop\n        /* \"#utility.yul\":1726:2090   */\n      swap3\n      swap2\n      pop\n      pop\n      jump\t// out\n        /* \"#utility.yul\":2096:2409   */\n    tag_12:\n        /* \"#utility.yul\":2209:2213   */\n      0x00\n        /* \"#utility.yul\":2247:2249   */\n      0x20\n        /* \"#utility.yul\":2236:2245   */\n      dup3\n        /* \"#utility.yul\":2232:2250   */\n      add\n        /* \"#utility.yul\":2224:2250   */\n      swap1\n      pop\n        /* \"#utility.yul\":2296:2305   */\n      dup2\n        /* \"#utility.yul\":2290:2294   */\n      dup2\n        /* \"#utility.yul\":2286:2306   */\n      sub\n        /* \"#utility.yul\":2282:2283   */\n      0x00\n        /* \"#utility.yul\":2271:2280   */\n      dup4\n        /* \"#utility.yul\":2267:2284   */\n      add\n        /* \"#utility.yul\":2260:2307   */\n      mstore\n        /* \"#utility.yul\":2324:2402   */\n      tag_134\n        /* \"#utility.yul\":2397:2401   */\n      dup2\n        /* \"#utility.yul\":2388:2394   */\n      dup5\n        /* \"#utility.yul\":2324:2402   */\n      tag_84\n      jump\t// in\n    tag_134:\n        /* \"#utility.yul\":2316:2402   */\n      swap1\n      pop\n        /* \"#utility.yul\":2096:2409   */\n      swap3\n      swap2\n      pop\n      pop\n      jump\t// out\n        /* \"#utility.yul\":2415:2505   */\n    tag_85:\n        /* \"#utility.yul\":2449:2456   */\n      0x00\n        /* \"#utility.yul\":2492:2497   */\n      dup2\n        /* \"#utility.yul\":2485:2498   */\n      iszero\n        /* \"#utility.yul\":2478:2499   */\n      iszero\n        /* \"#utility.yul\":2467:2499   */\n      swap1\n      pop\n        /* \"#utility.yul\":2415:2505   */\n      swap2\n      swap1\n      pop\n      jump\t// out\n        /* \"#utility.yul\":2511:2620   */\n    tag_86:\n        /* \"#utility.yul\":2592:2613   */\n      tag_137\n        /* \"#utility.yul\":2607:2612   */\n      dup2\n        /* \"#utility.yul\":2592:2613   */\n      tag_85\n      jump\t// in\n    tag_137:\n        /* \"#utility.yul\":2587:2590   */\n      dup3\n        /* \"#utility.yul\":2580:2614   */\n      mstore\n        /* \"#utility.yul\":2511:2620   */\n      pop\n      pop\n      jump\t// out\n        /* \"#utility.yul\":2626:2836   */\n    tag_16:\n        /* \"#utility.yul\":2713:2717   */\n      0x00\n        /* \"#utility.yul\":2751:2753   */\n      0x20\n        /* \"#utility.yul\":2740:2749   */\n      dup3\n        /* \"#utility.yul\":2736:2754   */\n      add\n        /* \"#utility.yul\":2728:2754   */\n      swap1\n      pop\n        /* \"#utility.yul\":2764:2829   */\n      tag_139\n        /* \"#utility.yul\":2826:2827   */\n      0x00\n        /* \"#utility.yul\":2815:2824   */\n      dup4\n        /* \"#utility.yul\":2811:2828   */\n      add\n        /* \"#utility.yul\":2802:2808   */\n      dup5\n        /* \"#utility.yul\":2764:2829   */\n      tag_86\n      jump\t// in\n    tag_139:\n        /* \"#utility.yul\":2626:2836   */\n      swap3\n      swap2\n      pop\n      pop\n      jump\t// out\n        /* \"#utility.yul\":2842:2960   */\n    tag_87:\n        /* \"#utility.yul\":2929:2953   */\n      tag_141\n        /* \"#utility.yul\":2947:2952   */\n      dup2\n        /* \"#utility.yul\":2929:2953   */\n      tag_77\n      jump\t// in\n    tag_141:\n        /* \"#utility.yul\":2924:2927   */\n      dup3\n        /* \"#utility.yul\":2917:2954   */\n      mstore\n        /* \"#utility.yul\":2842:2960   */\n      pop\n      pop\n      jump\t// out\n        /* \"#utility.yul\":2966:3188   */\n    tag_22:\n        /* \"#utility.yul\":3059:3063   */\n      0x00\n        /* \"#utility.yul\":3097:3099   */\n      0x20\n        /* \"#utility.yul\":3086:3095   */\n      dup3\n        /* \"#utility.yul\":3082:3100   */\n      add\n        /* \"#utility.yul\":3074:3100   */\n      swap1\n      pop\n        /* \"#utility.yul\":3110:3181   */\n      tag_143\n        /* \"#utility.yul\":3178:3179   */\n      0x00\n        /* \"#utility.yul\":3167:3176   */\n      dup4\n        /* \"#utility.yul\":3163:3180   */\n      add\n        /* \"#utility.yul\":3154:3160   */\n      dup5\n        /* \"#utility.yul\":3110:3181   */\n      tag_87\n      jump\t// in\n    tag_143:\n        /* \"#utility.yul\":2966:3188   */\n      swap3\n      swap2\n      pop\n      pop\n      jump\t// out\n        /* \"#utility.yul\":3194:3430   */\n    tag_88:\n        /* \"#utility.yul\":3334:3368   */\n      0x4d617463682068617320656e6465642e2e205072657373205265736574206275\n        /* \"#utility.yul\":3330:3331   */\n      0x00\n        /* \"#utility.yul\":3322:3328   */\n      dup3\n        /* \"#utility.yul\":3318:3332   */\n      add\n        /* \"#utility.yul\":3311:3369   */\n      mstore\n        /* \"#utility.yul\":3403:3422   */\n      0x74746f6e20746f20526573746172742e2e000000000000000000000000000000\n        /* \"#utility.yul\":3398:3400   */\n      0x20\n        /* \"#utility.yul\":3390:3396   */\n      dup3\n        /* \"#utility.yul\":3386:3401   */\n      add\n        /* \"#utility.yul\":3379:3423   */\n      mstore\n        /* \"#utility.yul\":3194:3430   */\n      pop\n      jump\t// out\n        /* \"#utility.yul\":3436:3802   */\n    tag_89:\n        /* \"#utility.yul\":3578:3581   */\n      0x00\n        /* \"#utility.yul\":3599:3666   */\n      tag_146\n        /* \"#utility.yul\":3663:3665   */\n      0x31\n        /* \"#utility.yul\":3658:3661   */\n      dup4\n        /* \"#utility.yul\":3599:3666   */\n      tag_81\n      jump\t// in\n    tag_146:\n        /* \"#utility.yul\":3592:3666   */\n      swap2\n      pop\n        /* \"#utility.yul\":3675:3768   */\n      tag_147\n        /* \"#utility.yul\":3764:3767   */\n      dup3\n        /* \"#utility.yul\":3675:3768   */\n      tag_88\n      jump\t// in\n    tag_147:\n        /* \"#utility.yul\":3793:3795   */\n      0x40\n        /* \"#utility.yul\":3788:3791   */\n      dup3\n        /* \"#utility.yul\":3784:3796   */\n      add\n        /* \"#utility.yul\":3777:3796   */\n      swap1\n      pop\n        /* \"#utility.yul\":3436:3802   */\n      swap2\n      swap1\n      pop\n      jump\t// out\n        /* \"#utility.yul\":3808:4227   */\n    tag_26:\n        /* \"#utility.yul\":3974:3978   */\n      0x00\n        /* \"#utility.yul\":4012:4014   */\n      0x20\n        /* \"#utility.yul\":4001:4010   */\n      dup3\n        /* \"#utility.yul\":3997:4015   */\n      add\n        /* \"#utility.yul\":3989:4015   */\n      swap1\n      pop\n        /* \"#utility.yul\":4061:4070   */\n      dup2\n        /* \"#utility.yul\":4055:4059   */\n      dup2\n        /* \"#utility.yul\":4051:4071   */\n      sub\n        /* \"#utility.yul\":4047:4048   */\n      0x00\n        /* \"#utility.yul\":4036:4045   */\n      dup4\n        /* \"#utility.yul\":4032:4049   */\n      add\n        /* \"#utility.yul\":4025:4072   */\n      mstore\n        /* \"#utility.yul\":4089:4220   */\n      tag_149\n        /* \"#utility.yul\":4215:4219   */\n      dup2\n        /* \"#utility.yul\":4089:4220   */\n      tag_89\n      jump\t// in\n    tag_149:\n        /* \"#utility.yul\":4081:4220   */\n      swap1\n      pop\n        /* \"#utility.yul\":3808:4227   */\n      swap2\n      swap1\n      pop\n      jump\t// out\n        /* \"#utility.yul\":4233:4455   */\n    tag_90:\n        /* \"#utility.yul\":4373:4407   */\n      0x4769766520612076616c6964206e756d626572206265747765656e203120616e\n        /* \"#utility.yul\":4369:4370   */\n      0x00\n        /* \"#utility.yul\":4361:4367   */\n      dup3\n        /* \"#utility.yul\":4357:4371   */\n      add\n        /* \"#utility.yul\":4350:4408   */\n      mstore\n        /* \"#utility.yul\":4442:4447   */\n      0x6420360000000000000000000000000000000000000000000000000000000000\n        /* \"#utility.yul\":4437:4439   */\n      0x20\n        /* \"#utility.yul\":4429:4435   */\n      dup3\n        /* \"#utility.yul\":4425:4440   */\n      add\n        /* \"#utility.yul\":4418:4448   */\n      mstore\n        /* \"#utility.yul\":4233:4455   */\n      pop\n      jump\t// out\n        /* \"#utility.yul\":4461:4827   */\n    tag_91:\n        /* \"#utility.yul\":4603:4606   */\n      0x00\n        /* \"#utility.yul\":4624:4691   */\n      tag_152\n        /* \"#utility.yul\":4688:4690   */\n      0x23\n        /* \"#utility.yul\":4683:4686   */\n      dup4\n        /* \"#utility.yul\":4624:4691   */\n      tag_81\n      jump\t// in\n    tag_152:\n        /* \"#utility.yul\":4617:4691   */\n      swap2\n      pop\n        /* \"#utility.yul\":4700:4793   */\n      tag_153\n        /* \"#utility.yul\":4789:4792   */\n      dup3\n        /* \"#utility.yul\":4700:4793   */\n      tag_90\n      jump\t// in\n    tag_153:\n        /* \"#utility.yul\":4818:4820   */\n      0x40\n        /* \"#utility.yul\":4813:4816   */\n      dup3\n        /* \"#utility.yul\":4809:4821   */\n      add\n        /* \"#utility.yul\":4802:4821   */\n      swap1\n      pop\n        /* \"#utility.yul\":4461:4827   */\n      swap2\n      swap1\n      pop\n      jump\t// out\n        /* \"#utility.yul\":4833:5252   */\n    tag_30:\n        /* \"#utility.yul\":4999:5003   */\n      0x00\n        /* \"#utility.yul\":5037:5039   */\n      0x20\n        /* \"#utility.yul\":5026:5035   */\n      dup3\n        /* \"#utility.yul\":5022:5040   */\n      add\n        /* \"#utility.yul\":5014:5040   */\n      swap1\n      pop\n        /* \"#utility.yul\":5086:5095   */\n      dup2\n        /* \"#utility.yul\":5080:5084   */\n      dup2\n        /* \"#utility.yul\":5076:5096   */\n      sub\n        /* \"#utility.yul\":5072:5073   */\n      0x00\n        /* \"#utility.yul\":5061:5070   */\n      dup4\n        /* \"#utility.yul\":5057:5074   */\n      add\n        /* \"#utility.yul\":5050:5097   */\n      mstore\n        /* \"#utility.yul\":5114:5245   */\n      tag_155\n        /* \"#utility.yul\":5240:5244   */\n      dup2\n        /* \"#utility.yul\":5114:5245   */\n      tag_91\n      jump\t// in\n    tag_155:\n        /* \"#utility.yul\":5106:5245   */\n      swap1\n      pop\n        /* \"#utility.yul\":4833:5252   */\n      swap2\n      swap1\n      pop\n      jump\t// out\n        /* \"#utility.yul\":5258:5438   */\n    tag_92:\n        /* \"#utility.yul\":5306:5383   */\n      0x4e487b7100000000000000000000000000000000000000000000000000000000\n        /* \"#utility.yul\":5303:5304   */\n      0x00\n        /* \"#utility.yul\":5296:5384   */\n      mstore\n        /* \"#utility.yul\":5403:5407   */\n      0x11\n        /* \"#utility.yul\":5400:5401   */\n      0x04\n        /* \"#utility.yul\":5393:5408   */\n      mstore\n        /* \"#utility.yul\":5427:5431   */\n      0x24\n        /* \"#utility.yul\":5424:5425   */\n      0x00\n        /* \"#utility.yul\":5417:5432   */\n      revert\n        /* \"#utility.yul\":5444:5749   */\n    tag_34:\n        /* \"#utility.yul\":5484:5487   */\n      0x00\n        /* \"#utility.yul\":5503:5523   */\n      tag_158\n        /* \"#utility.yul\":5521:5522   */\n      dup3\n        /* \"#utility.yul\":5503:5523   */\n      tag_77\n      jump\t// in\n    tag_158:\n        /* \"#utility.yul\":5498:5523   */\n      swap2\n      pop\n        /* \"#utility.yul\":5537:5557   */\n      tag_159\n        /* \"#utility.yul\":5555:5556   */\n      dup4\n        /* \"#utility.yul\":5537:5557   */\n      tag_77\n      jump\t// in\n    tag_159:\n        /* \"#utility.yul\":5532:5557   */\n      swap3\n      pop\n        /* \"#utility.yul\":5691:5692   */\n      dup3\n        /* \"#utility.yul\":5623:5689   */\n      0xffffffffffffffffffffffffffffffffffffffffffffffffffffffffffffffff\n        /* \"#utility.yul\":5619:5693   */\n      sub\n        /* \"#utility.yul\":5616:5617   */\n      dup3\n        /* \"#utility.yul\":5613:5694   */\n      gt\n        /* \"#utility.yul\":5610:5717   */\n      iszero\n      tag_160\n      jumpi\n        /* \"#utility.yul\":5697:5715   */\n      tag_161\n      tag_92\n      jump\t// in\n    tag_161:\n        /* \"#utility.yul\":5610:5717   */\n    tag_160:\n        /* \"#utility.yul\":5741:5742   */\n      dup3\n        /* \"#utility.yul\":5738:5739   */\n      dup3\n        /* \"#utility.yul\":5734:5743   */\n      add\n        /* \"#utility.yul\":5727:5743   */\n      swap1\n      pop\n        /* \"#utility.yul\":5444:5749   */\n      swap3\n      swap2\n      pop\n      pop\n      jump\t// out\n        /* \"#utility.yul\":5755:5903   */\n    tag_93:\n        /* \"#utility.yul\":5857:5868   */\n      0x00\n        /* \"#utility.yul\":5894:5897   */\n      dup2\n        /* \"#utility.yul\":5879:5897   */\n      swap1\n      pop\n        /* \"#utility.yul\":5755:5903   */\n      swap3\n      swap2\n      pop\n      pop\n      jump\t// out\n        /* \"#utility.yul\":5909:6286   */\n    tag_94:\n        /* \"#utility.yul\":6015:6018   */\n      0x00\n        /* \"#utility.yul\":6043:6082   */\n      tag_164\n        /* \"#utility.yul\":6076:6081   */\n      dup3\n        /* \"#utility.yul\":6043:6082   */\n      tag_80\n      jump\t// in\n    tag_164:\n        /* \"#utility.yul\":6098:6187   */\n      tag_165\n        /* \"#utility.yul\":6180:6186   */\n      dup2\n        /* \"#utility.yul\":6175:6178   */\n      dup6\n        /* \"#utility.yul\":6098:6187   */\n      tag_93\n      jump\t// in\n    tag_165:\n        /* \"#utility.yul\":6091:6187   */\n      swap4\n      pop\n        /* \"#utility.yul\":6196:6248   */\n      tag_166\n        /* \"#utility.yul\":6241:6247   */\n      dup2\n        /* \"#utility.yul\":6236:6239   */\n      dup6\n        /* \"#utility.yul\":6229:6233   */\n      0x20\n        /* \"#utility.yul\":6222:6227   */\n      dup7\n        /* \"#utility.yul\":6218:6234   */\n      add\n        /* \"#utility.yul\":6196:6248   */\n      tag_82\n      jump\t// in\n    tag_166:\n        /* \"#utility.yul\":6273:6279   */\n      dup1\n        /* \"#utility.yul\":6268:6271   */\n      dup5\n        /* \"#utility.yul\":6264:6280   */\n      add\n        /* \"#utility.yul\":6257:6280   */\n      swap2\n      pop\n        /* \"#utility.yul\":6019:6286   */\n      pop\n        /* \"#utility.yul\":5909:6286   */\n      swap3\n      swap2\n      pop\n      pop\n      jump\t// out\n        /* \"#utility.yul\":6292:6474   */\n    tag_95:\n        /* \"#utility.yul\":6460:6467   */\n      0x2052554e53000000000000000000000000000000000000000000000000000000\n        /* \"#utility.yul\":6455:6458   */\n      dup2\n        /* \"#utility.yul\":6448:6468   */\n      mstore\n        /* \"#utility.yul\":6292:6474   */\n      pop\n      jump\t// out\n        /* \"#utility.yul\":6480:7019   */\n    tag_40:\n        /* \"#utility.yul\":6702:6705   */\n      0x00\n        /* \"#utility.yul\":6724:6819   */\n      tag_169\n        /* \"#utility.yul\":6815:6818   */\n      dup3\n        /* \"#utility.yul\":6806:6812   */\n      dup5\n        /* \"#utility.yul\":6724:6819   */\n      tag_94\n      jump\t// in\n    tag_169:\n        /* \"#utility.yul\":6717:6819   */\n      swap2\n      pop\n        /* \"#utility.yul\":6829:6966   */\n      tag_170\n        /* \"#utility.yul\":6962:6965   */\n      dup3\n        /* \"#utility.yul\":6829:6966   */\n      tag_95\n      jump\t// in\n    tag_170:\n        /* \"#utility.yul\":6991:6992   */\n      0x05\n        /* \"#utility.yul\":6986:6989   */\n      dup3\n        /* \"#utility.yul\":6982:6993   */\n      add\n        /* \"#utility.yul\":6975:6993   */\n      swap2\n      pop\n        /* \"#utility.yul\":7010:7013   */\n      dup2\n        /* \"#utility.yul\":7003:7013   */\n      swap1\n      pop\n        /* \"#utility.yul\":6480:7019   */\n      swap3\n      swap2\n      pop\n      pop\n      jump\t// out\n        /* \"#utility.yul\":7025:7206   */\n    tag_96:\n        /* \"#utility.yul\":7193:7199   */\n      0x204f555400000000000000000000000000000000000000000000000000000000\n        /* \"#utility.yul\":7188:7191   */\n      dup2\n        /* \"#utility.yul\":7181:7200   */\n      mstore\n        /* \"#utility.yul\":7025:7206   */\n      pop\n      jump\t// out\n        /* \"#utility.yul\":7212:7751   */\n    tag_44:\n        /* \"#utility.yul\":7434:7437   */\n      0x00\n        /* \"#utility.yul\":7456:7551   */\n      tag_173\n        /* \"#utility.yul\":7547:7550   */\n      dup3\n        /* \"#utility.yul\":7538:7544   */\n      dup5\n        /* \"#utility.yul\":7456:7551   */\n      tag_94\n      jump\t// in\n    tag_173:\n        /* \"#utility.yul\":7449:7551   */\n      swap2\n      pop\n        /* \"#utility.yul\":7561:7698   */\n      tag_174\n        /* \"#utility.yul\":7694:7697   */\n      dup3\n        /* \"#utility.yul\":7561:7698   */\n      tag_96\n      jump\t// in\n    tag_174:\n        /* \"#utility.yul\":7723:7724   */\n      0x04\n        /* \"#utility.yul\":7718:7721   */\n      dup3\n        /* \"#utility.yul\":7714:7725   */\n      add\n        /* \"#utility.yul\":7707:7725   */\n      swap2\n      pop\n        /* \"#utility.yul\":7742:7745   */\n      dup2\n        /* \"#utility.yul\":7735:7745   */\n      swap1\n      pop\n        /* \"#utility.yul\":7212:7751   */\n      swap3\n      swap2\n      pop\n      pop\n      jump\t// out\n        /* \"#utility.yul\":7757:7990   */\n    tag_48:\n        /* \"#utility.yul\":7796:7799   */\n      0x00\n        /* \"#utility.yul\":7819:7843   */\n      tag_176\n        /* \"#utility.yul\":7837:7842   */\n      dup3\n        /* \"#utility.yul\":7819:7843   */\n      tag_77\n      jump\t// in\n    tag_176:\n        /* \"#utility.yul\":7810:7843   */\n      swap2\n      pop\n        /* \"#utility.yul\":7865:7931   */\n      0xffffffffffffffffffffffffffffffffffffffffffffffffffffffffffffffff\n        /* \"#utility.yul\":7858:7863   */\n      dup3\n        /* \"#utility.yul\":7855:7932   */\n      eq\n        /* \"#utility.yul\":7852:7955   */\n      iszero\n      tag_177\n      jumpi\n        /* \"#utility.yul\":7935:7953   */\n      tag_178\n      tag_92\n      jump\t// in\n    tag_178:\n        /* \"#utility.yul\":7852:7955   */\n    tag_177:\n        /* \"#utility.yul\":7982:7983   */\n      0x01\n        /* \"#utility.yul\":7975:7980   */\n      dup3\n        /* \"#utility.yul\":7971:7984   */\n      add\n        /* \"#utility.yul\":7964:7984   */\n      swap1\n      pop\n        /* \"#utility.yul\":7757:7990   */\n      swap2\n      swap1\n      pop\n      jump\t// out\n        /* \"#utility.yul\":7996:8075   */\n    tag_97:\n        /* \"#utility.yul\":8035:8042   */\n      0x00\n        /* \"#utility.yul\":8064:8069   */\n      dup2\n        /* \"#utility.yul\":8053:8069   */\n      swap1\n      pop\n        /* \"#utility.yul\":7996:8075   */\n      swap2\n      swap1\n      pop\n      jump\t// out\n        /* \"#utility.yul\":8081:8238   */\n    tag_98:\n        /* \"#utility.yul\":8186:8231   */\n      tag_181\n        /* \"#utility.yul\":8206:8230   */\n      tag_182\n        /* \"#utility.yul\":8224:8229   */\n      dup3\n        /* \"#utility.yul\":8206:8230   */\n      tag_77\n      jump\t// in\n    tag_182:\n        /* \"#utility.yul\":8186:8231   */\n      tag_97\n      jump\t// in\n    tag_181:\n        /* \"#utility.yul\":8181:8184   */\n      dup3\n        /* \"#utility.yul\":8174:8232   */\n      mstore\n        /* \"#utility.yul\":8081:8238   */\n      pop\n      pop\n      jump\t// out\n        /* \"#utility.yul\":8244:8370   */\n    tag_99:\n        /* \"#utility.yul\":8281:8288   */\n      0x00\n        /* \"#utility.yul\":8321:8363   */\n      0xffffffffffffffffffffffffffffffffffffffff\n        /* \"#utility.yul\":8314:8319   */\n      dup3\n        /* \"#utility.yul\":8310:8364   */\n      and\n        /* \"#utility.yul\":8299:8364   */\n      swap1\n      pop\n        /* \"#utility.yul\":8244:8370   */\n      swap2\n      swap1\n      pop\n      jump\t// out\n        /* \"#utility.yul\":8376:8472   */\n    tag_100:\n        /* \"#utility.yul\":8413:8420   */\n      0x00\n        /* \"#utility.yul\":8442:8466   */\n      tag_185\n        /* \"#utility.yul\":8460:8465   */\n      dup3\n        /* \"#utility.yul\":8442:8466   */\n      tag_99\n      jump\t// in\n    tag_185:\n        /* \"#utility.yul\":8431:8466   */\n      swap1\n      pop\n        /* \"#utility.yul\":8376:8472   */\n      swap2\n      swap1\n      pop\n      jump\t// out\n        /* \"#utility.yul\":8478:8572   */\n    tag_101:\n        /* \"#utility.yul\":8511:8519   */\n      0x00\n        /* \"#utility.yul\":8559:8564   */\n      dup2\n        /* \"#utility.yul\":8555:8557   */\n      0x60\n        /* \"#utility.yul\":8551:8565   */\n      shl\n        /* \"#utility.yul\":8530:8565   */\n      swap1\n      pop\n        /* \"#utility.yul\":8478:8572   */\n      swap2\n      swap1\n      pop\n      jump\t// out\n        /* \"#utility.yul\":8578:8672   */\n    tag_102:\n        /* \"#utility.yul\":8617:8624   */\n      0x00\n        /* \"#utility.yul\":8646:8666   */\n      tag_188\n        /* \"#utility.yul\":8660:8665   */\n      dup3\n        /* \"#utility.yul\":8646:8666   */\n      tag_101\n      jump\t// in\n    tag_188:\n        /* \"#utility.yul\":8635:8666   */\n      swap1\n      pop\n        /* \"#utility.yul\":8578:8672   */\n      swap2\n      swap1\n      pop\n      jump\t// out\n        /* \"#utility.yul\":8678:8778   */\n    tag_103:\n        /* \"#utility.yul\":8717:8724   */\n      0x00\n        /* \"#utility.yul\":8746:8772   */\n      tag_190\n        /* \"#utility.yul\":8766:8771   */\n      dup3\n        /* \"#utility.yul\":8746:8772   */\n      tag_102\n      jump\t// in\n    tag_190:\n        /* \"#utility.yul\":8735:8772   */\n      swap1\n      pop\n        /* \"#utility.yul\":8678:8778   */\n      swap2\n      swap1\n      pop\n      jump\t// out\n        /* \"#utility.yul\":8784:8941   */\n    tag_104:\n        /* \"#utility.yul\":8889:8934   */\n      tag_192\n        /* \"#utility.yul\":8909:8933   */\n      tag_193\n        /* \"#utility.yul\":8927:8932   */\n      dup3\n        /* \"#utility.yul\":8909:8933   */\n      tag_100\n      jump\t// in\n    tag_193:\n        /* \"#utility.yul\":8889:8934   */\n      tag_103\n      jump\t// in\n    tag_192:\n        /* \"#utility.yul\":8884:8887   */\n      dup3\n        /* \"#utility.yul\":8877:8935   */\n      mstore\n        /* \"#utility.yul\":8784:8941   */\n      pop\n      pop\n      jump\t// out\n        /* \"#utility.yul\":8947:9485   */\n    tag_50:\n        /* \"#utility.yul\":9115:9118   */\n      0x00\n        /* \"#utility.yul\":9130:9205   */\n      tag_195\n        /* \"#utility.yul\":9201:9204   */\n      dup3\n        /* \"#utility.yul\":9192:9198   */\n      dup7\n        /* \"#utility.yul\":9130:9205   */\n      tag_98\n      jump\t// in\n    tag_195:\n        /* \"#utility.yul\":9230:9232   */\n      0x20\n        /* \"#utility.yul\":9225:9228   */\n      dup3\n        /* \"#utility.yul\":9221:9233   */\n      add\n        /* \"#utility.yul\":9214:9233   */\n      swap2\n      pop\n        /* \"#utility.yul\":9243:9318   */\n      tag_196\n        /* \"#utility.yul\":9314:9317   */\n      dup3\n        /* \"#utility.yul\":9305:9311   */\n      dup6\n        /* \"#utility.yul\":9243:9318   */\n      tag_104\n      jump\t// in\n    tag_196:\n        /* \"#utility.yul\":9343:9345   */\n      0x14\n        /* \"#utility.yul\":9338:9341   */\n      dup3\n        /* \"#utility.yul\":9334:9346   */\n      add\n        /* \"#utility.yul\":9327:9346   */\n      swap2\n      pop\n        /* \"#utility.yul\":9356:9431   */\n      tag_197\n        /* \"#utility.yul\":9427:9430   */\n      dup3\n        /* \"#utility.yul\":9418:9424   */\n      dup5\n        /* \"#utility.yul\":9356:9431   */\n      tag_98\n      jump\t// in\n    tag_197:\n        /* \"#utility.yul\":9456:9458   */\n      0x20\n        /* \"#utility.yul\":9451:9454   */\n      dup3\n        /* \"#utility.yul\":9447:9459   */\n      add\n        /* \"#utility.yul\":9440:9459   */\n      swap2\n      pop\n        /* \"#utility.yul\":9476:9479   */\n      dup2\n        /* \"#utility.yul\":9469:9479   */\n      swap1\n      pop\n        /* \"#utility.yul\":8947:9485   */\n      swap5\n      swap4\n      pop\n      pop\n      pop\n      pop\n      jump\t// out\n        /* \"#utility.yul\":9491:9671   */\n    tag_105:\n        /* \"#utility.yul\":9539:9616   */\n      0x4e487b7100000000000000000000000000000000000000000000000000000000\n        /* \"#utility.yul\":9536:9537   */\n      0x00\n        /* \"#utility.yul\":9529:9617   */\n      mstore\n        /* \"#utility.yul\":9636:9640   */\n      0x12\n        /* \"#utility.yul\":9633:9634   */\n      0x04\n        /* \"#utility.yul\":9626:9641   */\n      mstore\n        /* \"#utility.yul\":9660:9664   */\n      0x24\n        /* \"#utility.yul\":9657:9658   */\n      0x00\n        /* \"#utility.yul\":9650:9665   */\n      revert\n        /* \"#utility.yul\":9677:9853   */\n    tag_52:\n        /* \"#utility.yul\":9709:9710   */\n      0x00\n        /* \"#utility.yul\":9726:9746   */\n      tag_200\n        /* \"#utility.yul\":9744:9745   */\n      dup3\n        /* \"#utility.yul\":9726:9746   */\n      tag_77\n      jump\t// in\n    tag_200:\n        /* \"#utility.yul\":9721:9746   */\n      swap2\n      pop\n        /* \"#utility.yul\":9760:9780   */\n      tag_201\n        /* \"#utility.yul\":9778:9779   */\n      dup4\n        /* \"#utility.yul\":9760:9780   */\n      tag_77\n      jump\t// in\n    tag_201:\n        /* \"#utility.yul\":9755:9780   */\n      swap3\n      pop\n        /* \"#utility.yul\":9799:9800   */\n      dup3\n        /* \"#utility.yul\":9789:9824   */\n      tag_202\n      jumpi\n        /* \"#utility.yul\":9804:9822   */\n      tag_203\n      tag_105\n      jump\t// in\n    tag_203:\n        /* \"#utility.yul\":9789:9824   */\n    tag_202:\n        /* \"#utility.yul\":9845:9846   */\n      dup3\n        /* \"#utility.yul\":9842:9843   */\n      dup3\n        /* \"#utility.yul\":9838:9847   */\n      mod\n        /* \"#utility.yul\":9833:9847   */\n      swap1\n      pop\n        /* \"#utility.yul\":9677:9853   */\n      swap3\n      swap2\n      pop\n      pop\n      jump\t// out\n        /* \"#utility.yul\":9859:10044   */\n    tag_59:\n        /* \"#utility.yul\":9899:9900   */\n      0x00\n        /* \"#utility.yul\":9916:9936   */\n      tag_205\n        /* \"#utility.yul\":9934:9935   */\n      dup3\n        /* \"#utility.yul\":9916:9936   */\n      tag_77\n      jump\t// in\n    tag_205:\n        /* \"#utility.yul\":9911:9936   */\n      swap2\n      pop\n        /* \"#utility.yul\":9950:9970   */\n      tag_206\n        /* \"#utility.yul\":9968:9969   */\n      dup4\n        /* \"#utility.yul\":9950:9970   */\n      tag_77\n      jump\t// in\n    tag_206:\n        /* \"#utility.yul\":9945:9970   */\n      swap3\n      pop\n        /* \"#utility.yul\":9989:9990   */\n      dup3\n        /* \"#utility.yul\":9979:10014   */\n      tag_207\n      jumpi\n        /* \"#utility.yul\":9994:10012   */\n      tag_208\n      tag_105\n      jump\t// in\n    tag_208:\n        /* \"#utility.yul\":9979:10014   */\n    tag_207:\n        /* \"#utility.yul\":10036:10037   */\n      dup3\n        /* \"#utility.yul\":10033:10034   */\n      dup3\n        /* \"#utility.yul\":10029:10038   */\n      div\n        /* \"#utility.yul\":10024:10038   */\n      swap1\n      pop\n        /* \"#utility.yul\":9859:10044   */\n      swap3\n      swap2\n      pop\n      pop\n      jump\t// out\n        /* \"#utility.yul\":10050:10230   */\n    tag_62:\n        /* \"#utility.yul\":10098:10175   */\n      0x4e487b7100000000000000000000000000000000000000000000000000000000\n        /* \"#utility.yul\":10095:10096   */\n      0x00\n        /* \"#utility.yul\":10088:10176   */\n      mstore\n        /* \"#utility.yul\":10195:10199   */\n      0x41\n        /* \"#utility.yul\":10192:10193   */\n      0x04\n        /* \"#utility.yul\":10185:10200   */\n      mstore\n        /* \"#utility.yul\":10219:10223   */\n      0x24\n        /* \"#utility.yul\":10216:10217   */\n      0x00\n        /* \"#utility.yul\":10209:10224   */\n      revert\n        /* \"#utility.yul\":10236:10427   */\n    tag_67:\n        /* \"#utility.yul\":10276:10280   */\n      0x00\n        /* \"#utility.yul\":10296:10316   */\n      tag_211\n        /* \"#utility.yul\":10314:10315   */\n      dup3\n        /* \"#utility.yul\":10296:10316   */\n      tag_77\n      jump\t// in\n    tag_211:\n        /* \"#utility.yul\":10291:10316   */\n      swap2\n      pop\n        /* \"#utility.yul\":10330:10350   */\n      tag_212\n        /* \"#utility.yul\":10348:10349   */\n      dup4\n        /* \"#utility.yul\":10330:10350   */\n      tag_77\n      jump\t// in\n    tag_212:\n        /* \"#utility.yul\":10325:10350   */\n      swap3\n      pop\n        /* \"#utility.yul\":10369:10370   */\n      dup3\n        /* \"#utility.yul\":10366:10367   */\n      dup3\n        /* \"#utility.yul\":10363:10371   */\n      lt\n        /* \"#utility.yul\":10360:10394   */\n      iszero\n      tag_213\n      jumpi\n        /* \"#utility.yul\":10374:10392   */\n      tag_214\n      tag_92\n      jump\t// in\n    tag_214:\n        /* \"#utility.yul\":10360:10394   */\n    tag_213:\n        /* \"#utility.yul\":10419:10420   */\n      dup3\n        /* \"#utility.yul\":10416:10417   */\n      dup3\n        /* \"#utility.yul\":10412:10421   */\n      sub\n        /* \"#utility.yul\":10404:10421   */\n      swap1\n      pop\n        /* \"#utility.yul\":10236:10427   */\n      swap3\n      swap2\n      pop\n      pop\n      jump\t// out\n        /* \"#utility.yul\":10433:10613   */\n    tag_72:\n        /* \"#utility.yul\":10481:10558   */\n      0x4e487b7100000000000000000000000000000000000000000000000000000000\n        /* \"#utility.yul\":10478:10479   */\n      0x00\n        /* \"#utility.yul\":10471:10559   */\n      mstore\n        /* \"#utility.yul\":10578:10582   */\n      0x32\n        /* \"#utility.yul\":10575:10576   */\n      0x04\n        /* \"#utility.yul\":10568:10583   */\n      mstore\n        /* \"#utility.yul\":10602:10606   */\n      0x24\n        /* \"#utility.yul\":10599:10600   */\n      0x00\n        /* \"#utility.yul\":10592:10607   */\n      revert\n\n    auxdata: 0xa26469706673582212209869517fe1ebb565ace8bb4f902abdbe932f5e5310033a9497142e0718dd8eb164736f6c634300080c0033\n}\n",
				"bytecode": {
					"linkReferences": {},
					"object": "60806040526000600160006101000a81548160ff021916908315150217905550600060025534801561003057600080fd5b50610a97806100406000396000f3fe608060405234801561001057600080fd5b506004361061004c5760003560e01c80635f72f45014610051578063a4fd6f5614610081578063d826f88f1461009f578063efedc669146100a9575b600080fd5b61006b60048036038101906100669190610458565b6100c7565b604051610078919061051e565b60405180910390f35b610089610224565b604051610096919061055b565b60405180910390f35b6100a7610237565b005b6100b161025b565b6040516100be9190610585565b60405180910390f35b606060011515600160009054906101000a900460ff1615151461011f576040517f08c379a000000000000000000000000000000000000000000000000000000000815260040161011690610612565b60405180910390fd5b60018210158015610131575060068211155b610170576040517f08c379a0000000000000000000000000000000000000000000000000000000008152600401610167906106a4565b60405180910390fd5b6000600161017c610261565b61018691906106f3565b90508083146101d757806000808282546101a091906106f3565b925050819055506101b0816102bc565b6040516020016101c091906107ab565b60405160208183030381529060405291505061021f565b60018060006101000a81548160ff0219169083151502179055506101fc6000546102bc565b60405160200161020c91906107f7565b6040516020818303038152906040529150505b919050565b600160009054906101000a900460ff1681565b600080819055506000600160006101000a81548160ff021916908315150217905550565b60005481565b6000600260008154809291906102769061081d565b91905055506006423360025460405160200161029493929190610901565b6040516020818303038152906040528051906020012060001c6102b7919061096d565b905090565b60606000821415610304576040518060400160405280600181526020017f30000000000000000000000000000000000000000000000000000000000000008152509050610418565b600082905060005b6000821461033657808061031f9061081d565b915050600a8261032f919061099e565b915061030c565b60008167ffffffffffffffff811115610352576103516109cf565b5b6040519080825280601f01601f1916602001820160405280156103845781602001600182028036833780820191505090505b5090505b600085146104115760018261039d91906109fe565b9150600a856103ac919061096d565b60306103b891906106f3565b60f81b8183815181106103ce576103cd610a32565b5b60200101907effffffffffffffffffffffffffffffffffffffffffffffffffffffffffffff1916908160001a905350600a8561040a919061099e565b9450610388565b8093505050505b919050565b600080fd5b6000819050919050565b61043581610422565b811461044057600080fd5b50565b6000813590506104528161042c565b92915050565b60006020828403121561046e5761046d61041d565b5b600061047c84828501610443565b91505092915050565b600081519050919050565b600082825260208201905092915050565b60005b838110156104bf5780820151818401526020810190506104a4565b838111156104ce576000848401525b50505050565b6000601f19601f8301169050919050565b60006104f082610485565b6104fa8185610490565b935061050a8185602086016104a1565b610513816104d4565b840191505092915050565b6000602082019050818103600083015261053881846104e5565b905092915050565b60008115159050919050565b61055581610540565b82525050565b6000602082019050610570600083018461054c565b92915050565b61057f81610422565b82525050565b600060208201905061059a6000830184610576565b92915050565b7f4d617463682068617320656e6465642e2e20507265737320526573657420627560008201527f74746f6e20746f20526573746172742e2e000000000000000000000000000000602082015250565b60006105fc603183610490565b9150610607826105a0565b604082019050919050565b6000602082019050818103600083015261062b816105ef565b9050919050565b7f4769766520612076616c6964206e756d626572206265747765656e203120616e60008201527f6420360000000000000000000000000000000000000000000000000000000000602082015250565b600061068e602383610490565b915061069982610632565b604082019050919050565b600060208201905081810360008301526106bd81610681565b9050919050565b7f4e487b7100000000000000000000000000000000000000000000000000000000600052601160045260246000fd5b60006106fe82610422565b915061070983610422565b9250827fffffffffffffffffffffffffffffffffffffffffffffffffffffffffffffffff0382111561073e5761073d6106c4565b5b828201905092915050565b600081905092915050565b600061075f82610485565b6107698185610749565b93506107798185602086016104a1565b80840191505092915050565b7f2052554e53000000000000000000000000000000000000000000000000000000815250565b60006107b78284610754565b91506107c282610785565b60058201915081905092915050565b7f204f555400000000000000000000000000000000000000000000000000000000815250565b60006108038284610754565b915061080e826107d1565b60048201915081905092915050565b600061082882610422565b91507fffffffffffffffffffffffffffffffffffffffffffffffffffffffffffffffff82141561085b5761085a6106c4565b5b600182019050919050565b6000819050919050565b61088161087c82610422565b610866565b82525050565b600073ffffffffffffffffffffffffffffffffffffffff82169050919050565b60006108b282610887565b9050919050565b60008160601b9050919050565b60006108d1826108b9565b9050919050565b60006108e3826108c6565b9050919050565b6108fb6108f6826108a7565b6108d8565b82525050565b600061090d8286610870565b60208201915061091d82856108ea565b60148201915061092d8284610870565b602082019150819050949350505050565b7f4e487b7100000000000000000000000000000000000000000000000000000000600052601260045260246000fd5b600061097882610422565b915061098383610422565b9250826109935761099261093e565b5b828206905092915050565b60006109a982610422565b91506109b483610422565b9250826109c4576109c361093e565b5b828204905092915050565b7f4e487b7100000000000000000000000000000000000000000000000000000000600052604160045260246000fd5b6000610a0982610422565b9150610a1483610422565b925082821015610a2757610a266106c4565b5b828203905092915050565b7f4e487b7100000000000000000000000000000000000000000000000000000000600052603260045260246000fdfea26469706673582212209869517fe1ebb565ace8bb4f902abdbe932f5e5310033a9497142e0718dd8eb164736f6c634300080c0033",
					"opcodes": "PUSH1 0x80 PUSH1 0x40 MSTORE PUSH1 0x0 PUSH1 0x1 PUSH1 0x0 PUSH2 0x100 EXP DUP2 SLOAD DUP2 PUSH1 0xFF MUL NOT AND SWAP1 DUP4 ISZERO ISZERO MUL OR SWAP1 SSTORE POP PUSH1 0x0 PUSH1 0x2 SSTORE CALLVALUE DUP1 ISZERO PUSH2 0x30 JUMPI PUSH1 0x0 DUP1 REVERT JUMPDEST POP PUSH2 0xA97 DUP1 PUSH2 0x40 PUSH1 0x0 CODECOPY PUSH1 0x0 RETURN INVALID PUSH1 0x80 PUSH1 0x40 MSTORE CALLVALUE DUP1 ISZERO PUSH2 0x10 JUMPI PUSH1 0x0 DUP1 REVERT JUMPDEST POP PUSH1 0x4 CALLDATASIZE LT PUSH2 0x4C JUMPI PUSH1 0x0 CALLDATALOAD PUSH1 0xE0 SHR DUP1 PUSH4 0x5F72F450 EQ PUSH2 0x51 JUMPI DUP1 PUSH4 0xA4FD6F56 EQ PUSH2 0x81 JUMPI DUP1 PUSH4 0xD826F88F EQ PUSH2 0x9F JUMPI DUP1 PUSH4 0xEFEDC669 EQ PUSH2 0xA9 JUMPI JUMPDEST PUSH1 0x0 DUP1 REVERT JUMPDEST PUSH2 0x6B PUSH1 0x4 DUP1 CALLDATASIZE SUB DUP2 ADD SWAP1 PUSH2 0x66 SWAP2 SWAP1 PUSH2 0x458 JUMP JUMPDEST PUSH2 0xC7 JUMP JUMPDEST PUSH1 0x40 MLOAD PUSH2 0x78 SWAP2 SWAP1 PUSH2 0x51E JUMP JUMPDEST PUSH1 0x40 MLOAD DUP1 SWAP2 SUB SWAP1 RETURN JUMPDEST PUSH2 0x89 PUSH2 0x224 JUMP JUMPDEST PUSH1 0x40 MLOAD PUSH2 0x96 SWAP2 SWAP1 PUSH2 0x55B JUMP JUMPDEST PUSH1 0x40 MLOAD DUP1 SWAP2 SUB SWAP1 RETURN JUMPDEST PUSH2 0xA7 PUSH2 0x237 JUMP JUMPDEST STOP JUMPDEST PUSH2 0xB1 PUSH2 0x25B JUMP JUMPDEST PUSH1 0x40 MLOAD PUSH2 0xBE SWAP2 SWAP1 PUSH2 0x585 JUMP JUMPDEST PUSH1 0x40 MLOAD DUP1 SWAP2 SUB SWAP1 RETURN JUMPDEST PUSH1 0x60 PUSH1 0x1 ISZERO ISZERO PUSH1 0x1 PUSH1 0x0 SWAP1 SLOAD SWAP1 PUSH2 0x100 EXP SWAP1 DIV PUSH1 0xFF AND ISZERO ISZERO EQ PUSH2 0x11F JUMPI PUSH1 0x40 MLOAD PUSH32 0x8C379A000000000000000000000000000000000000000000000000000000000 DUP2 MSTORE PUSH1 0x4 ADD PUSH2 0x116 SWAP1 PUSH2 0x612 JUMP JUMPDEST PUSH1 0x40 MLOAD DUP1 SWAP2 SUB SWAP1 REVERT JUMPDEST PUSH1 0x1 DUP3 LT ISZERO DUP1 ISZERO PUSH2 0x131 JUMPI POP PUSH1 0x6 DUP3 GT ISZERO JUMPDEST PUSH2 0x170 JUMPI PUSH1 0x40 MLOAD PUSH32 0x8C379A000000000000000000000000000000000000000000000000000000000 DUP2 MSTORE PUSH1 0x4 ADD PUSH2 0x167 SWAP1 PUSH2 0x6A4 JUMP JUMPDEST PUSH1 0x40 MLOAD DUP1 SWAP2 SUB SWAP1 REVERT JUMPDEST PUSH1 0x0 PUSH1 0x1 PUSH2 0x17C PUSH2 0x261 JUMP JUMPDEST PUSH2 0x186 SWAP2 SWAP1 PUSH2 0x6F3 JUMP JUMPDEST SWAP1 POP DUP1 DUP4 EQ PUSH2 0x1D7 JUMPI DUP1 PUSH1 0x0 DUP1 DUP3 DUP3 SLOAD PUSH2 0x1A0 SWAP2 SWAP1 PUSH2 0x6F3 JUMP JUMPDEST SWAP3 POP POP DUP2 SWAP1 SSTORE POP PUSH2 0x1B0 DUP2 PUSH2 0x2BC JUMP JUMPDEST PUSH1 0x40 MLOAD PUSH1 0x20 ADD PUSH2 0x1C0 SWAP2 SWAP1 PUSH2 0x7AB JUMP JUMPDEST PUSH1 0x40 MLOAD PUSH1 0x20 DUP2 DUP4 SUB SUB DUP2 MSTORE SWAP1 PUSH1 0x40 MSTORE SWAP2 POP POP PUSH2 0x21F JUMP JUMPDEST PUSH1 0x1 DUP1 PUSH1 0x0 PUSH2 0x100 EXP DUP2 SLOAD DUP2 PUSH1 0xFF MUL NOT AND SWAP1 DUP4 ISZERO ISZERO MUL OR SWAP1 SSTORE POP PUSH2 0x1FC PUSH1 0x0 SLOAD PUSH2 0x2BC JUMP JUMPDEST PUSH1 0x40 MLOAD PUSH1 0x20 ADD PUSH2 0x20C SWAP2 SWAP1 PUSH2 0x7F7 JUMP JUMPDEST PUSH1 0x40 MLOAD PUSH1 0x20 DUP2 DUP4 SUB SUB DUP2 MSTORE SWAP1 PUSH1 0x40 MSTORE SWAP2 POP POP JUMPDEST SWAP2 SWAP1 POP JUMP JUMPDEST PUSH1 0x1 PUSH1 0x0 SWAP1 SLOAD SWAP1 PUSH2 0x100 EXP SWAP1 DIV PUSH1 0xFF AND DUP2 JUMP JUMPDEST PUSH1 0x0 DUP1 DUP2 SWAP1 SSTORE POP PUSH1 0x0 PUSH1 0x1 PUSH1 0x0 PUSH2 0x100 EXP DUP2 SLOAD DUP2 PUSH1 0xFF MUL NOT AND SWAP1 DUP4 ISZERO ISZERO MUL OR SWAP1 SSTORE POP JUMP JUMPDEST PUSH1 0x0 SLOAD DUP2 JUMP JUMPDEST PUSH1 0x0 PUSH1 0x2 PUSH1 0x0 DUP2 SLOAD DUP1 SWAP3 SWAP2 SWAP1 PUSH2 0x276 SWAP1 PUSH2 0x81D JUMP JUMPDEST SWAP2 SWAP1 POP SSTORE POP PUSH1 0x6 TIMESTAMP CALLER PUSH1 0x2 SLOAD PUSH1 0x40 MLOAD PUSH1 0x20 ADD PUSH2 0x294 SWAP4 SWAP3 SWAP2 SWAP1 PUSH2 0x901 JUMP JUMPDEST PUSH1 0x40 MLOAD PUSH1 0x20 DUP2 DUP4 SUB SUB DUP2 MSTORE SWAP1 PUSH1 0x40 MSTORE DUP1 MLOAD SWAP1 PUSH1 0x20 ADD KECCAK256 PUSH1 0x0 SHR PUSH2 0x2B7 SWAP2 SWAP1 PUSH2 0x96D JUMP JUMPDEST SWAP1 POP SWAP1 JUMP JUMPDEST PUSH1 0x60 PUSH1 0x0 DUP3 EQ ISZERO PUSH2 0x304 JUMPI PUSH1 0x40 MLOAD DUP1 PUSH1 0x40 ADD PUSH1 0x40 MSTORE DUP1 PUSH1 0x1 DUP2 MSTORE PUSH1 0x20 ADD PUSH32 0x3000000000000000000000000000000000000000000000000000000000000000 DUP2 MSTORE POP SWAP1 POP PUSH2 0x418 JUMP JUMPDEST PUSH1 0x0 DUP3 SWAP1 POP PUSH1 0x0 JUMPDEST PUSH1 0x0 DUP3 EQ PUSH2 0x336 JUMPI DUP1 DUP1 PUSH2 0x31F SWAP1 PUSH2 0x81D JUMP JUMPDEST SWAP2 POP POP PUSH1 0xA DUP3 PUSH2 0x32F SWAP2 SWAP1 PUSH2 0x99E JUMP JUMPDEST SWAP2 POP PUSH2 0x30C JUMP JUMPDEST PUSH1 0x0 DUP2 PUSH8 0xFFFFFFFFFFFFFFFF DUP2 GT ISZERO PUSH2 0x352 JUMPI PUSH2 0x351 PUSH2 0x9CF JUMP JUMPDEST JUMPDEST PUSH1 0x40 MLOAD SWAP1 DUP1 DUP3 MSTORE DUP1 PUSH1 0x1F ADD PUSH1 0x1F NOT AND PUSH1 0x20 ADD DUP3 ADD PUSH1 0x40 MSTORE DUP1 ISZERO PUSH2 0x384 JUMPI DUP2 PUSH1 0x20 ADD PUSH1 0x1 DUP3 MUL DUP1 CALLDATASIZE DUP4 CALLDATACOPY DUP1 DUP3 ADD SWAP2 POP POP SWAP1 POP JUMPDEST POP SWAP1 POP JUMPDEST PUSH1 0x0 DUP6 EQ PUSH2 0x411 JUMPI PUSH1 0x1 DUP3 PUSH2 0x39D SWAP2 SWAP1 PUSH2 0x9FE JUMP JUMPDEST SWAP2 POP PUSH1 0xA DUP6 PUSH2 0x3AC SWAP2 SWAP1 PUSH2 0x96D JUMP JUMPDEST PUSH1 0x30 PUSH2 0x3B8 SWAP2 SWAP1 PUSH2 0x6F3 JUMP JUMPDEST PUSH1 0xF8 SHL DUP2 DUP4 DUP2 MLOAD DUP2 LT PUSH2 0x3CE JUMPI PUSH2 0x3CD PUSH2 0xA32 JUMP JUMPDEST JUMPDEST PUSH1 0x20 ADD ADD SWAP1 PUSH31 0xFFFFFFFFFFFFFFFFFFFFFFFFFFFFFFFFFFFFFFFFFFFFFFFFFFFFFFFFFFFFFF NOT AND SWAP1 DUP2 PUSH1 0x0 BYTE SWAP1 MSTORE8 POP PUSH1 0xA DUP6 PUSH2 0x40A SWAP2 SWAP1 PUSH2 0x99E JUMP JUMPDEST SWAP5 POP PUSH2 0x388 JUMP JUMPDEST DUP1 SWAP4 POP POP POP POP JUMPDEST SWAP2 SWAP1 POP JUMP JUMPDEST PUSH1 0x0 DUP1 REVERT JUMPDEST PUSH1 0x0 DUP2 SWAP1 POP SWAP2 SWAP1 POP JUMP JUMPDEST PUSH2 0x435 DUP2 PUSH2 0x422 JUMP JUMPDEST DUP2 EQ PUSH2 0x440 JUMPI PUSH1 0x0 DUP1 REVERT JUMPDEST POP JUMP JUMPDEST PUSH1 0x0 DUP2 CALLDATALOAD SWAP1 POP PUSH2 0x452 DUP2 PUSH2 0x42C JUMP JUMPDEST SWAP3 SWAP2 POP POP JUMP JUMPDEST PUSH1 0x0 PUSH1 0x20 DUP3 DUP5 SUB SLT ISZERO PUSH2 0x46E JUMPI PUSH2 0x46D PUSH2 0x41D JUMP JUMPDEST JUMPDEST PUSH1 0x0 PUSH2 0x47C DUP5 DUP3 DUP6 ADD PUSH2 0x443 JUMP JUMPDEST SWAP2 POP POP SWAP3 SWAP2 POP POP JUMP JUMPDEST PUSH1 0x0 DUP2 MLOAD SWAP1 POP SWAP2 SWAP1 POP JUMP JUMPDEST PUSH1 0x0 DUP3 DUP3 MSTORE PUSH1 0x20 DUP3 ADD SWAP1 POP SWAP3 SWAP2 POP POP JUMP JUMPDEST PUSH1 0x0 JUMPDEST DUP4 DUP2 LT ISZERO PUSH2 0x4BF JUMPI DUP1 DUP3 ADD MLOAD DUP2 DUP5 ADD MSTORE PUSH1 0x20 DUP2 ADD SWAP1 POP PUSH2 0x4A4 JUMP JUMPDEST DUP4 DUP2 GT ISZERO PUSH2 0x4CE JUMPI PUSH1 0x0 DUP5 DUP5 ADD MSTORE JUMPDEST POP POP POP POP JUMP JUMPDEST PUSH1 0x0 PUSH1 0x1F NOT PUSH1 0x1F DUP4 ADD AND SWAP1 POP SWAP2 SWAP1 POP JUMP JUMPDEST PUSH1 0x0 PUSH2 0x4F0 DUP3 PUSH2 0x485 JUMP JUMPDEST PUSH2 0x4FA DUP2 DUP6 PUSH2 0x490 JUMP JUMPDEST SWAP4 POP PUSH2 0x50A DUP2 DUP6 PUSH1 0x20 DUP7 ADD PUSH2 0x4A1 JUMP JUMPDEST PUSH2 0x513 DUP2 PUSH2 0x4D4 JUMP JUMPDEST DUP5 ADD SWAP2 POP POP SWAP3 SWAP2 POP POP JUMP JUMPDEST PUSH1 0x0 PUSH1 0x20 DUP3 ADD SWAP1 POP DUP2 DUP2 SUB PUSH1 0x0 DUP4 ADD MSTORE PUSH2 0x538 DUP2 DUP5 PUSH2 0x4E5 JUMP JUMPDEST SWAP1 POP SWAP3 SWAP2 POP POP JUMP JUMPDEST PUSH1 0x0 DUP2 ISZERO ISZERO SWAP1 POP SWAP2 SWAP1 POP JUMP JUMPDEST PUSH2 0x555 DUP2 PUSH2 0x540 JUMP JUMPDEST DUP3 MSTORE POP POP JUMP JUMPDEST PUSH1 0x0 PUSH1 0x20 DUP3 ADD SWAP1 POP PUSH2 0x570 PUSH1 0x0 DUP4 ADD DUP5 PUSH2 0x54C JUMP JUMPDEST SWAP3 SWAP2 POP POP JUMP JUMPDEST PUSH2 0x57F DUP2 PUSH2 0x422 JUMP JUMPDEST DUP3 MSTORE POP POP JUMP JUMPDEST PUSH1 0x0 PUSH1 0x20 DUP3 ADD SWAP1 POP PUSH2 0x59A PUSH1 0x0 DUP4 ADD DUP5 PUSH2 0x576 JUMP JUMPDEST SWAP3 SWAP2 POP POP JUMP JUMPDEST PUSH32 0x4D617463682068617320656E6465642E2E205072657373205265736574206275 PUSH1 0x0 DUP3 ADD MSTORE PUSH32 0x74746F6E20746F20526573746172742E2E000000000000000000000000000000 PUSH1 0x20 DUP3 ADD MSTORE POP JUMP JUMPDEST PUSH1 0x0 PUSH2 0x5FC PUSH1 0x31 DUP4 PUSH2 0x490 JUMP JUMPDEST SWAP2 POP PUSH2 0x607 DUP3 PUSH2 0x5A0 JUMP JUMPDEST PUSH1 0x40 DUP3 ADD SWAP1 POP SWAP2 SWAP1 POP JUMP JUMPDEST PUSH1 0x0 PUSH1 0x20 DUP3 ADD SWAP1 POP DUP2 DUP2 SUB PUSH1 0x0 DUP4 ADD MSTORE PUSH2 0x62B DUP2 PUSH2 0x5EF JUMP JUMPDEST SWAP1 POP SWAP2 SWAP1 POP JUMP JUMPDEST PUSH32 0x4769766520612076616C6964206E756D626572206265747765656E203120616E PUSH1 0x0 DUP3 ADD MSTORE PUSH32 0x6420360000000000000000000000000000000000000000000000000000000000 PUSH1 0x20 DUP3 ADD MSTORE POP JUMP JUMPDEST PUSH1 0x0 PUSH2 0x68E PUSH1 0x23 DUP4 PUSH2 0x490 JUMP JUMPDEST SWAP2 POP PUSH2 0x699 DUP3 PUSH2 0x632 JUMP JUMPDEST PUSH1 0x40 DUP3 ADD SWAP1 POP SWAP2 SWAP1 POP JUMP JUMPDEST PUSH1 0x0 PUSH1 0x20 DUP3 ADD SWAP1 POP DUP2 DUP2 SUB PUSH1 0x0 DUP4 ADD MSTORE PUSH2 0x6BD DUP2 PUSH2 0x681 JUMP JUMPDEST SWAP1 POP SWAP2 SWAP1 POP JUMP JUMPDEST PUSH32 0x4E487B7100000000000000000000000000000000000000000000000000000000 PUSH1 0x0 MSTORE PUSH1 0x11 PUSH1 0x4 MSTORE PUSH1 0x24 PUSH1 0x0 REVERT JUMPDEST PUSH1 0x0 PUSH2 0x6FE DUP3 PUSH2 0x422 JUMP JUMPDEST SWAP2 POP PUSH2 0x709 DUP4 PUSH2 0x422 JUMP JUMPDEST SWAP3 POP DUP3 PUSH32 0xFFFFFFFFFFFFFFFFFFFFFFFFFFFFFFFFFFFFFFFFFFFFFFFFFFFFFFFFFFFFFFFF SUB DUP3 GT ISZERO PUSH2 0x73E JUMPI PUSH2 0x73D PUSH2 0x6C4 JUMP JUMPDEST JUMPDEST DUP3 DUP3 ADD SWAP1 POP SWAP3 SWAP2 POP POP JUMP JUMPDEST PUSH1 0x0 DUP2 SWAP1 POP SWAP3 SWAP2 POP POP JUMP JUMPDEST PUSH1 0x0 PUSH2 0x75F DUP3 PUSH2 0x485 JUMP JUMPDEST PUSH2 0x769 DUP2 DUP6 PUSH2 0x749 JUMP JUMPDEST SWAP4 POP PUSH2 0x779 DUP2 DUP6 PUSH1 0x20 DUP7 ADD PUSH2 0x4A1 JUMP JUMPDEST DUP1 DUP5 ADD SWAP2 POP POP SWAP3 SWAP2 POP POP JUMP JUMPDEST PUSH32 0x2052554E53000000000000000000000000000000000000000000000000000000 DUP2 MSTORE POP JUMP JUMPDEST PUSH1 0x0 PUSH2 0x7B7 DUP3 DUP5 PUSH2 0x754 JUMP JUMPDEST SWAP2 POP PUSH2 0x7C2 DUP3 PUSH2 0x785 JUMP JUMPDEST PUSH1 0x5 DUP3 ADD SWAP2 POP DUP2 SWAP1 POP SWAP3 SWAP2 POP POP JUMP JUMPDEST PUSH32 0x204F555400000000000000000000000000000000000000000000000000000000 DUP2 MSTORE POP JUMP JUMPDEST PUSH1 0x0 PUSH2 0x803 DUP3 DUP5 PUSH2 0x754 JUMP JUMPDEST SWAP2 POP PUSH2 0x80E DUP3 PUSH2 0x7D1 JUMP JUMPDEST PUSH1 0x4 DUP3 ADD SWAP2 POP DUP2 SWAP1 POP SWAP3 SWAP2 POP POP JUMP JUMPDEST PUSH1 0x0 PUSH2 0x828 DUP3 PUSH2 0x422 JUMP JUMPDEST SWAP2 POP PUSH32 0xFFFFFFFFFFFFFFFFFFFFFFFFFFFFFFFFFFFFFFFFFFFFFFFFFFFFFFFFFFFFFFFF DUP3 EQ ISZERO PUSH2 0x85B JUMPI PUSH2 0x85A PUSH2 0x6C4 JUMP JUMPDEST JUMPDEST PUSH1 0x1 DUP3 ADD SWAP1 POP SWAP2 SWAP1 POP JUMP JUMPDEST PUSH1 0x0 DUP2 SWAP1 POP SWAP2 SWAP1 POP JUMP JUMPDEST PUSH2 0x881 PUSH2 0x87C DUP3 PUSH2 0x422 JUMP JUMPDEST PUSH2 0x866 JUMP JUMPDEST DUP3 MSTORE POP POP JUMP JUMPDEST PUSH1 0x0 PUSH20 0xFFFFFFFFFFFFFFFFFFFFFFFFFFFFFFFFFFFFFFFF DUP3 AND SWAP1 POP SWAP2 SWAP1 POP JUMP JUMPDEST PUSH1 0x0 PUSH2 0x8B2 DUP3 PUSH2 0x887 JUMP JUMPDEST SWAP1 POP SWAP2 SWAP1 POP JUMP JUMPDEST PUSH1 0x0 DUP2 PUSH1 0x60 SHL SWAP1 POP SWAP2 SWAP1 POP JUMP JUMPDEST PUSH1 0x0 PUSH2 0x8D1 DUP3 PUSH2 0x8B9 JUMP JUMPDEST SWAP1 POP SWAP2 SWAP1 POP JUMP JUMPDEST PUSH1 0x0 PUSH2 0x8E3 DUP3 PUSH2 0x8C6 JUMP JUMPDEST SWAP1 POP SWAP2 SWAP1 POP JUMP JUMPDEST PUSH2 0x8FB PUSH2 0x8F6 DUP3 PUSH2 0x8A7 JUMP JUMPDEST PUSH2 0x8D8 JUMP JUMPDEST DUP3 MSTORE POP POP JUMP JUMPDEST PUSH1 0x0 PUSH2 0x90D DUP3 DUP7 PUSH2 0x870 JUMP JUMPDEST PUSH1 0x20 DUP3 ADD SWAP2 POP PUSH2 0x91D DUP3 DUP6 PUSH2 0x8EA JUMP JUMPDEST PUSH1 0x14 DUP3 ADD SWAP2 POP PUSH2 0x92D DUP3 DUP5 PUSH2 0x870 JUMP JUMPDEST PUSH1 0x20 DUP3 ADD SWAP2 POP DUP2 SWAP1 POP SWAP5 SWAP4 POP POP POP POP JUMP JUMPDEST PUSH32 0x4E487B7100000000000000000000000000000000000000000000000000000000 PUSH1 0x0 MSTORE PUSH1 0x12 PUSH1 0x4 MSTORE PUSH1 0x24 PUSH1 0x0 REVERT JUMPDEST PUSH1 0x0 PUSH2 0x978 DUP3 PUSH2 0x422 JUMP JUMPDEST SWAP2 POP PUSH2 0x983 DUP4 PUSH2 0x422 JUMP JUMPDEST SWAP3 POP DUP3 PUSH2 0x993 JUMPI PUSH2 0x992 PUSH2 0x93E JUMP JUMPDEST JUMPDEST DUP3 DUP3 MOD SWAP1 POP SWAP3 SWAP2 POP POP JUMP JUMPDEST PUSH1 0x0 PUSH2 0x9A9 DUP3 PUSH2 0x422 JUMP JUMPDEST SWAP2 POP PUSH2 0x9B4 DUP4 PUSH2 0x422 JUMP JUMPDEST SWAP3 POP DUP3 PUSH2 0x9C4 JUMPI PUSH2 0x9C3 PUSH2 0x93E JUMP JUMPDEST JUMPDEST DUP3 DUP3 DIV SWAP1 POP SWAP3 SWAP2 POP POP JUMP JUMPDEST PUSH32 0x4E487B7100000000000000000000000000000000000000000000000000000000 PUSH1 0x0 MSTORE PUSH1 0x41 PUSH1 0x4 MSTORE PUSH1 0x24 PUSH1 0x0 REVERT JUMPDEST PUSH1 0x0 PUSH2 0xA09 DUP3 PUSH2 0x422 JUMP JUMPDEST SWAP2 POP PUSH2 0xA14 DUP4 PUSH2 0x422 JUMP JUMPDEST SWAP3 POP DUP3 DUP3 LT ISZERO PUSH2 0xA27 JUMPI PUSH2 0xA26 PUSH2 0x6C4 JUMP JUMPDEST JUMPDEST DUP3 DUP3 SUB SWAP1 POP SWAP3 SWAP2 POP POP JUMP JUMPDEST PUSH32 0x4E487B7100000000000000000000000000000000000000000000000000000000 PUSH1 0x0 MSTORE PUSH1 0x32 PUSH1 0x4 MSTORE PUSH1 0x24 PUSH1 0x0 REVERT INVALID LOG2 PUSH5 0x6970667358 0x22 SLT KECCAK256 SWAP9 PUSH10 0x517FE1EBB565ACE8BB4F SWAP1 0x2A 0xBD 0xBE SWAP4 0x2F 0x5E MSTORE8 LT SUB GASPRICE SWAP5 SWAP8 EQ 0x2E SMOD XOR 0xDD DUP15 0xB1 PUSH5 0x736F6C6343 STOP ADDMOD 0xC STOP CALLER "
				},
				"gasEstimates": {
					"creation": {
						"codeDepositCost": "542200",
						"executionCost": "29848",
						"totalCost": "572048"
					},
					"external": {
						"check(uint256)": "infinite",
						"isEnded()": "2471",
						"reset()": "29447",
						"score()": "2473"
					},
					"internal": {
						"randomNo()": "infinite"
					}
				},
				"methodIdentifiers": {
					"check(uint256)": "5f72f450",
					"isEnded()": "a4fd6f56",
					"reset()": "d826f88f",
					"score()": "efedc669"
				}
			},
			"storageLayout": {
				"storage": [
					{
						"astId": 230,
						"contract": "Contracts.sol:oddEvenGame",
						"label": "score",
						"offset": 0,
						"slot": "0",
						"type": "t_uint256"
					},
					{
						"astId": 233,
						"contract": "Contracts.sol:oddEvenGame",
						"label": "isEnded",
						"offset": 0,
						"slot": "1",
						"type": "t_bool"
					},
					{
						"astId": 236,
						"contract": "Contracts.sol:oddEvenGame",
						"label": "randNonce",
						"offset": 0,
						"slot": "2",
						"type": "t_uint256"
					}
				],
				"types": {
					"t_bool": {
						"encoding": "inplace",
						"label": "bool",
						"numberOfBytes": "1"
					},
					"t_uint256": {
						"encoding": "inplace",
						"label": "uint256",
						"numberOfBytes": "32"
					}
				}
			},
			"userdoc": {
				"kind": "user",
				"methods": {},
				"version": 1
			}
		}
	}
}