{
	"Contracts.sol": {
		"oeGame": {
			"abi": [
				{
					"inputs": [
						{
							"internalType": "uint256",
							"name": "_num",
							"type": "uint256"
						}
					],
					"name": "check",
					"outputs": [
						{
							"internalType": "string",
							"name": "",
							"type": "string"
						}
					],
					"stateMutability": "nonpayable",
					"type": "function"
				},
				{
					"inputs": [],
					"name": "score",
					"outputs": [
						{
							"internalType": "uint256",
							"name": "",
							"type": "uint256"
						}
					],
					"stateMutability": "view",
					"type": "function"
				}
			],
			"devdoc": {
				"kind": "dev",
				"methods": {},
				"version": 1
			},
			"evm": {
				"assembly": "    /* \"Contracts.sol\":176:867  contract oeGame{... */\n  mstore(0x40, 0x80)\n    /* \"Contracts.sol\":265:266  0 */\n  0x00\n    /* \"Contracts.sol\":245:266  uint256 randNonce = 0 */\n  0x02\n  sstore\n    /* \"Contracts.sol\":176:867  contract oeGame{... */\n  callvalue\n  dup1\n  iszero\n  tag_1\n  jumpi\n  0x00\n  dup1\n  revert\ntag_1:\n  pop\n  dataSize(sub_0)\n  dup1\n  dataOffset(sub_0)\n  0x00\n  codecopy\n  0x00\n  return\nstop\n\nsub_0: assembly {\n        /* \"Contracts.sol\":176:867  contract oeGame{... */\n      mstore(0x40, 0x80)\n      callvalue\n      dup1\n      iszero\n      tag_1\n      jumpi\n      0x00\n      dup1\n      revert\n    tag_1:\n      pop\n      jumpi(tag_2, lt(calldatasize, 0x04))\n      shr(0xe0, calldataload(0x00))\n      dup1\n      0x5f72f450\n      eq\n      tag_3\n      jumpi\n      dup1\n      0xefedc669\n      eq\n      tag_4\n      jumpi\n    tag_2:\n      0x00\n      dup1\n      revert\n        /* \"Contracts.sol\":443:865  function check(uint256 _num) public returns(string memory) {... */\n    tag_3:\n      tag_5\n      0x04\n      dup1\n      calldatasize\n      sub\n      dup2\n      add\n      swap1\n      tag_6\n      swap2\n      swap1\n      tag_7\n      jump\t// in\n    tag_6:\n      tag_8\n      jump\t// in\n    tag_5:\n      mload(0x40)\n      tag_9\n      swap2\n      swap1\n      tag_10\n      jump\t// in\n    tag_9:\n      mload(0x40)\n      dup1\n      swap2\n      sub\n      swap1\n      return\n        /* \"Contracts.sol\":214:234  uint256 public score */\n    tag_4:\n      tag_11\n      tag_12\n      jump\t// in\n    tag_11:\n      mload(0x40)\n      tag_13\n      swap2\n      swap1\n      tag_14\n      jump\t// in\n    tag_13:\n      mload(0x40)\n      dup1\n      swap2\n      sub\n      swap1\n      return\n        /* \"Contracts.sol\":443:865  function check(uint256 _num) public returns(string memory) {... */\n    tag_8:\n        /* \"Contracts.sol\":487:500  string memory */\n      0x60\n        /* \"Contracts.sol\":527:528  1 */\n      0x01\n        /* \"Contracts.sol\":520:524  _num */\n      dup3\n        /* \"Contracts.sol\":520:528  _num >=1 */\n      lt\n      iszero\n        /* \"Contracts.sol\":520:541  _num >=1 && _num <= 6 */\n      dup1\n      iszero\n      tag_16\n      jumpi\n      pop\n        /* \"Contracts.sol\":540:541  6 */\n      0x06\n        /* \"Contracts.sol\":532:536  _num */\n      dup3\n        /* \"Contracts.sol\":532:541  _num <= 6 */\n      gt\n      iszero\n        /* \"Contracts.sol\":520:541  _num >=1 && _num <= 6 */\n    tag_16:\n        /* \"Contracts.sol\":512:581  require(_num >=1 && _num <= 6, \"Give a valid number between 1 and 6\") */\n      tag_17\n      jumpi\n      mload(0x40)\n      0x08c379a000000000000000000000000000000000000000000000000000000000\n      dup2\n      mstore\n      0x04\n      add\n      tag_18\n      swap1\n      tag_19\n      jump\t// in\n    tag_18:\n      mload(0x40)\n      dup1\n      swap2\n      sub\n      swap1\n      revert\n    tag_17:\n        /* \"Contracts.sol\":592:612  uint256 randomNumber */\n      0x00\n        /* \"Contracts.sol\":615:623  random() */\n      tag_20\n        /* \"Contracts.sol\":615:621  random */\n      tag_21\n        /* \"Contracts.sol\":615:623  random() */\n      jump\t// in\n    tag_20:\n        /* \"Contracts.sol\":592:623  uint256 randomNumber = random() */\n      swap1\n      pop\n        /* \"Contracts.sol\":645:657  randomNumber */\n      dup1\n        /* \"Contracts.sol\":637:641  _num */\n      dup4\n        /* \"Contracts.sol\":637:657  _num != randomNumber */\n      eq\n        /* \"Contracts.sol\":634:859  if(_num != randomNumber){... */\n      tag_22\n      jumpi\n        /* \"Contracts.sol\":681:693  randomNumber */\n      dup1\n        /* \"Contracts.sol\":672:677  score */\n      0x01\n      0x00\n        /* \"Contracts.sol\":672:693  score += randomNumber */\n      dup3\n      dup3\n      sload\n      tag_23\n      swap2\n      swap1\n      tag_24\n      jump\t// in\n    tag_23:\n      swap3\n      pop\n      pop\n      dup2\n      swap1\n      sstore\n      pop\n        /* \"Contracts.sol\":728:758  Strings.toString(randomNumber) */\n      tag_25\n        /* \"Contracts.sol\":745:757  randomNumber */\n      dup2\n        /* \"Contracts.sol\":728:744  Strings.toString */\n      tag_26\n        /* \"Contracts.sol\":728:758  Strings.toString(randomNumber) */\n      jump\t// in\n    tag_25:\n        /* \"Contracts.sol\":714:767  string.concat(Strings.toString(randomNumber),\" RUNS\") */\n      add(0x20, mload(0x40))\n      tag_27\n      swap2\n      swap1\n      tag_28\n      jump\t// in\n    tag_27:\n      mload(0x40)\n      0x20\n      dup2\n      dup4\n      sub\n      sub\n      dup2\n      mstore\n      swap1\n      0x40\n      mstore\n        /* \"Contracts.sol\":707:767  return string.concat(Strings.toString(randomNumber),\" RUNS\") */\n      swap2\n      pop\n      pop\n      jump(tag_15)\n        /* \"Contracts.sol\":634:859  if(_num != randomNumber){... */\n    tag_22:\n        /* \"Contracts.sol\":817:840  Strings.toString(score) */\n      tag_30\n        /* \"Contracts.sol\":834:839  score */\n      sload(0x01)\n        /* \"Contracts.sol\":817:833  Strings.toString */\n      tag_26\n        /* \"Contracts.sol\":817:840  Strings.toString(score) */\n      jump\t// in\n    tag_30:\n        /* \"Contracts.sol\":803:848  string.concat(Strings.toString(score),\" OUT\") */\n      add(0x20, mload(0x40))\n      tag_31\n      swap2\n      swap1\n      tag_32\n      jump\t// in\n    tag_31:\n      mload(0x40)\n      0x20\n      dup2\n      dup4\n      sub\n      sub\n      dup2\n      mstore\n      swap1\n      0x40\n      mstore\n        /* \"Contracts.sol\":796:848  return string.concat(Strings.toString(score),\" OUT\") */\n      swap2\n      pop\n      pop\n        /* \"Contracts.sol\":443:865  function check(uint256 _num) public returns(string memory) {... */\n    tag_15:\n      swap2\n      swap1\n      pop\n      jump\t// out\n        /* \"Contracts.sol\":214:234  uint256 public score */\n    tag_12:\n      sload(0x01)\n      dup2\n      jump\t// out\n        /* \"Contracts.sol\":272:436  function random() private returns (uint) {... */\n    tag_21:\n        /* \"Contracts.sol\":307:311  uint */\n      0x00\n        /* \"Contracts.sol\":323:332  randNonce */\n      0x02\n      0x00\n        /* \"Contracts.sol\":323:334  randNonce++ */\n      dup2\n      sload\n      dup1\n      swap3\n      swap2\n      swap1\n      tag_34\n      swap1\n      tag_35\n      jump\t// in\n    tag_34:\n      swap2\n      swap1\n      pop\n      sstore\n      pop\n        /* \"Contracts.sol\":428:429  6 */\n      0x06\n        /* \"Contracts.sol\":384:399  block.timestamp */\n      timestamp\n        /* \"Contracts.sol\":401:411  msg.sender */\n      caller\n        /* \"Contracts.sol\":413:422  randNonce */\n      sload(0x02)\n        /* \"Contracts.sol\":367:423  abi.encodePacked(block.timestamp, msg.sender, randNonce) */\n      add(0x20, mload(0x40))\n      tag_36\n      swap4\n      swap3\n      swap2\n      swap1\n      tag_37\n      jump\t// in\n    tag_36:\n      mload(0x40)\n      0x20\n      dup2\n      dup4\n      sub\n      sub\n      dup2\n      mstore\n      swap1\n      0x40\n      mstore\n        /* \"Contracts.sol\":357:424  keccak256(abi.encodePacked(block.timestamp, msg.sender, randNonce)) */\n      dup1\n      mload\n      swap1\n      0x20\n      add\n      keccak256\n        /* \"Contracts.sol\":352:425  uint(keccak256(abi.encodePacked(block.timestamp, msg.sender, randNonce))) */\n      0x00\n      shr\n        /* \"Contracts.sol\":352:429  uint(keccak256(abi.encodePacked(block.timestamp, msg.sender, randNonce))) % 6 */\n      tag_38\n      swap2\n      swap1\n      tag_39\n      jump\t// in\n    tag_38:\n        /* \"Contracts.sol\":345:429  return uint(keccak256(abi.encodePacked(block.timestamp, msg.sender, randNonce))) % 6 */\n      swap1\n      pop\n        /* \"Contracts.sol\":272:436  function random() private returns (uint) {... */\n      swap1\n      jump\t// out\n        /* \"@openzeppelin/contracts/utils/Strings.sol\":392:1095  function toString(uint256 value) internal pure returns (string memory) {... */\n    tag_26:\n        /* \"@openzeppelin/contracts/utils/Strings.sol\":448:461  string memory */\n      0x60\n        /* \"@openzeppelin/contracts/utils/Strings.sol\":674:675  0 */\n      0x00\n        /* \"@openzeppelin/contracts/utils/Strings.sol\":665:670  value */\n      dup3\n        /* \"@openzeppelin/contracts/utils/Strings.sol\":665:675  value == 0 */\n      eq\n        /* \"@openzeppelin/contracts/utils/Strings.sol\":661:712  if (value == 0) {... */\n      iszero\n      tag_41\n      jumpi\n        /* \"@openzeppelin/contracts/utils/Strings.sol\":691:701  return \"0\" */\n      mload(0x40)\n      dup1\n      0x40\n      add\n      0x40\n      mstore\n      dup1\n      0x01\n      dup2\n      mstore\n      0x20\n      add\n      0x3000000000000000000000000000000000000000000000000000000000000000\n      dup2\n      mstore\n      pop\n      swap1\n      pop\n      jump(tag_40)\n        /* \"@openzeppelin/contracts/utils/Strings.sol\":661:712  if (value == 0) {... */\n    tag_41:\n        /* \"@openzeppelin/contracts/utils/Strings.sol\":721:733  uint256 temp */\n      0x00\n        /* \"@openzeppelin/contracts/utils/Strings.sol\":736:741  value */\n      dup3\n        /* \"@openzeppelin/contracts/utils/Strings.sol\":721:741  uint256 temp = value */\n      swap1\n      pop\n        /* \"@openzeppelin/contracts/utils/Strings.sol\":751:765  uint256 digits */\n      0x00\n        /* \"@openzeppelin/contracts/utils/Strings.sol\":775:850  while (temp != 0) {... */\n    tag_42:\n        /* \"@openzeppelin/contracts/utils/Strings.sol\":790:791  0 */\n      0x00\n        /* \"@openzeppelin/contracts/utils/Strings.sol\":782:786  temp */\n      dup3\n        /* \"@openzeppelin/contracts/utils/Strings.sol\":782:791  temp != 0 */\n      eq\n        /* \"@openzeppelin/contracts/utils/Strings.sol\":775:850  while (temp != 0) {... */\n      tag_43\n      jumpi\n        /* \"@openzeppelin/contracts/utils/Strings.sol\":807:815  digits++ */\n      dup1\n      dup1\n      tag_44\n      swap1\n      tag_35\n      jump\t// in\n    tag_44:\n      swap2\n      pop\n      pop\n        /* \"@openzeppelin/contracts/utils/Strings.sol\":837:839  10 */\n      0x0a\n        /* \"@openzeppelin/contracts/utils/Strings.sol\":829:839  temp /= 10 */\n      dup3\n      tag_45\n      swap2\n      swap1\n      tag_46\n      jump\t// in\n    tag_45:\n      swap2\n      pop\n        /* \"@openzeppelin/contracts/utils/Strings.sol\":775:850  while (temp != 0) {... */\n      jump(tag_42)\n    tag_43:\n        /* \"@openzeppelin/contracts/utils/Strings.sol\":859:878  bytes memory buffer */\n      0x00\n        /* \"@openzeppelin/contracts/utils/Strings.sol\":891:897  digits */\n      dup2\n        /* \"@openzeppelin/contracts/utils/Strings.sol\":881:898  new bytes(digits) */\n      0xffffffffffffffff\n      dup2\n      gt\n      iszero\n      tag_47\n      jumpi\n      tag_48\n      tag_49\n      jump\t// in\n    tag_48:\n    tag_47:\n      mload(0x40)\n      swap1\n      dup1\n      dup3\n      mstore\n      dup1\n      0x1f\n      add\n      not(0x1f)\n      and\n      0x20\n      add\n      dup3\n      add\n      0x40\n      mstore\n      dup1\n      iszero\n      tag_50\n      jumpi\n      dup2\n      0x20\n      add\n      0x01\n      dup3\n      mul\n      dup1\n      calldatasize\n      dup4\n      calldatacopy\n      dup1\n      dup3\n      add\n      swap2\n      pop\n      pop\n      swap1\n      pop\n    tag_50:\n      pop\n        /* \"@openzeppelin/contracts/utils/Strings.sol\":859:898  bytes memory buffer = new bytes(digits) */\n      swap1\n      pop\n        /* \"@openzeppelin/contracts/utils/Strings.sol\":908:1058  while (value != 0) {... */\n    tag_51:\n        /* \"@openzeppelin/contracts/utils/Strings.sol\":924:925  0 */\n      0x00\n        /* \"@openzeppelin/contracts/utils/Strings.sol\":915:920  value */\n      dup6\n        /* \"@openzeppelin/contracts/utils/Strings.sol\":915:925  value != 0 */\n      eq\n        /* \"@openzeppelin/contracts/utils/Strings.sol\":908:1058  while (value != 0) {... */\n      tag_52\n      jumpi\n        /* \"@openzeppelin/contracts/utils/Strings.sol\":951:952  1 */\n      0x01\n        /* \"@openzeppelin/contracts/utils/Strings.sol\":941:952  digits -= 1 */\n      dup3\n      tag_53\n      swap2\n      swap1\n      tag_54\n      jump\t// in\n    tag_53:\n      swap2\n      pop\n        /* \"@openzeppelin/contracts/utils/Strings.sol\":1017:1019  10 */\n      0x0a\n        /* \"@openzeppelin/contracts/utils/Strings.sol\":1009:1014  value */\n      dup6\n        /* \"@openzeppelin/contracts/utils/Strings.sol\":1009:1019  value % 10 */\n      tag_55\n      swap2\n      swap1\n      tag_39\n      jump\t// in\n    tag_55:\n        /* \"@openzeppelin/contracts/utils/Strings.sol\":996:998  48 */\n      0x30\n        /* \"@openzeppelin/contracts/utils/Strings.sol\":996:1020  48 + uint256(value % 10) */\n      tag_56\n      swap2\n      swap1\n      tag_24\n      jump\t// in\n    tag_56:\n        /* \"@openzeppelin/contracts/utils/Strings.sol\":983:1022  bytes1(uint8(48 + uint256(value % 10))) */\n      0xf8\n      shl\n        /* \"@openzeppelin/contracts/utils/Strings.sol\":966:972  buffer */\n      dup2\n        /* \"@openzeppelin/contracts/utils/Strings.sol\":973:979  digits */\n      dup4\n        /* \"@openzeppelin/contracts/utils/Strings.sol\":966:980  buffer[digits] */\n      dup2\n      mload\n      dup2\n      lt\n      tag_57\n      jumpi\n      tag_58\n      tag_59\n      jump\t// in\n    tag_58:\n    tag_57:\n      0x20\n      add\n      add\n        /* \"@openzeppelin/contracts/utils/Strings.sol\":966:1022  buffer[digits] = bytes1(uint8(48 + uint256(value % 10))) */\n      swap1\n      not(0xffffffffffffffffffffffffffffffffffffffffffffffffffffffffffffff)\n      and\n      swap1\n      dup2\n      0x00\n      byte\n      swap1\n      mstore8\n      pop\n        /* \"@openzeppelin/contracts/utils/Strings.sol\":1045:1047  10 */\n      0x0a\n        /* \"@openzeppelin/contracts/utils/Strings.sol\":1036:1047  value /= 10 */\n      dup6\n      tag_60\n      swap2\n      swap1\n      tag_46\n      jump\t// in\n    tag_60:\n      swap5\n      pop\n        /* \"@openzeppelin/contracts/utils/Strings.sol\":908:1058  while (value != 0) {... */\n      jump(tag_51)\n    tag_52:\n        /* \"@openzeppelin/contracts/utils/Strings.sol\":1081:1087  buffer */\n      dup1\n        /* \"@openzeppelin/contracts/utils/Strings.sol\":1067:1088  return string(buffer) */\n      swap4\n      pop\n      pop\n      pop\n      pop\n        /* \"@openzeppelin/contracts/utils/Strings.sol\":392:1095  function toString(uint256 value) internal pure returns (string memory) {... */\n    tag_40:\n      swap2\n      swap1\n      pop\n      jump\t// out\n        /* \"#utility.yul\":88:205   */\n    tag_62:\n        /* \"#utility.yul\":197:198   */\n      0x00\n        /* \"#utility.yul\":194:195   */\n      dup1\n        /* \"#utility.yul\":187:199   */\n      revert\n        /* \"#utility.yul\":334:411   */\n    tag_64:\n        /* \"#utility.yul\":371:378   */\n      0x00\n        /* \"#utility.yul\":400:405   */\n      dup2\n        /* \"#utility.yul\":389:405   */\n      swap1\n      pop\n        /* \"#utility.yul\":334:411   */\n      swap2\n      swap1\n      pop\n      jump\t// out\n        /* \"#utility.yul\":417:539   */\n    tag_65:\n        /* \"#utility.yul\":490:514   */\n      tag_95\n        /* \"#utility.yul\":508:513   */\n      dup2\n        /* \"#utility.yul\":490:514   */\n      tag_64\n      jump\t// in\n    tag_95:\n        /* \"#utility.yul\":483:488   */\n      dup2\n        /* \"#utility.yul\":480:515   */\n      eq\n        /* \"#utility.yul\":470:533   */\n      tag_96\n      jumpi\n        /* \"#utility.yul\":529:530   */\n      0x00\n        /* \"#utility.yul\":526:527   */\n      dup1\n        /* \"#utility.yul\":519:531   */\n      revert\n        /* \"#utility.yul\":470:533   */\n    tag_96:\n        /* \"#utility.yul\":417:539   */\n      pop\n      jump\t// out\n        /* \"#utility.yul\":545:684   */\n    tag_66:\n        /* \"#utility.yul\":591:596   */\n      0x00\n        /* \"#utility.yul\":629:635   */\n      dup2\n        /* \"#utility.yul\":616:636   */\n      calldataload\n        /* \"#utility.yul\":607:636   */\n      swap1\n      pop\n        /* \"#utility.yul\":645:678   */\n      tag_98\n        /* \"#utility.yul\":672:677   */\n      dup2\n        /* \"#utility.yul\":645:678   */\n      tag_65\n      jump\t// in\n    tag_98:\n        /* \"#utility.yul\":545:684   */\n      swap3\n      swap2\n      pop\n      pop\n      jump\t// out\n        /* \"#utility.yul\":690:1019   */\n    tag_7:\n        /* \"#utility.yul\":749:755   */\n      0x00\n        /* \"#utility.yul\":798:800   */\n      0x20\n        /* \"#utility.yul\":786:795   */\n      dup3\n        /* \"#utility.yul\":777:784   */\n      dup5\n        /* \"#utility.yul\":773:796   */\n      sub\n        /* \"#utility.yul\":769:801   */\n      slt\n        /* \"#utility.yul\":766:885   */\n      iszero\n      tag_100\n      jumpi\n        /* \"#utility.yul\":804:883   */\n      tag_101\n      tag_62\n      jump\t// in\n    tag_101:\n        /* \"#utility.yul\":766:885   */\n    tag_100:\n        /* \"#utility.yul\":924:925   */\n      0x00\n        /* \"#utility.yul\":949:1002   */\n      tag_102\n        /* \"#utility.yul\":994:1001   */\n      dup5\n        /* \"#utility.yul\":985:991   */\n      dup3\n        /* \"#utility.yul\":974:983   */\n      dup6\n        /* \"#utility.yul\":970:992   */\n      add\n        /* \"#utility.yul\":949:1002   */\n      tag_66\n      jump\t// in\n    tag_102:\n        /* \"#utility.yul\":939:1002   */\n      swap2\n      pop\n        /* \"#utility.yul\":895:1012   */\n      pop\n        /* \"#utility.yul\":690:1019   */\n      swap3\n      swap2\n      pop\n      pop\n      jump\t// out\n        /* \"#utility.yul\":1025:1124   */\n    tag_67:\n        /* \"#utility.yul\":1077:1083   */\n      0x00\n        /* \"#utility.yul\":1111:1116   */\n      dup2\n        /* \"#utility.yul\":1105:1117   */\n      mload\n        /* \"#utility.yul\":1095:1117   */\n      swap1\n      pop\n        /* \"#utility.yul\":1025:1124   */\n      swap2\n      swap1\n      pop\n      jump\t// out\n        /* \"#utility.yul\":1130:1299   */\n    tag_68:\n        /* \"#utility.yul\":1214:1225   */\n      0x00\n        /* \"#utility.yul\":1248:1254   */\n      dup3\n        /* \"#utility.yul\":1243:1246   */\n      dup3\n        /* \"#utility.yul\":1236:1255   */\n      mstore\n        /* \"#utility.yul\":1288:1292   */\n      0x20\n        /* \"#utility.yul\":1283:1286   */\n      dup3\n        /* \"#utility.yul\":1279:1293   */\n      add\n        /* \"#utility.yul\":1264:1293   */\n      swap1\n      pop\n        /* \"#utility.yul\":1130:1299   */\n      swap3\n      swap2\n      pop\n      pop\n      jump\t// out\n        /* \"#utility.yul\":1305:1612   */\n    tag_69:\n        /* \"#utility.yul\":1373:1374   */\n      0x00\n        /* \"#utility.yul\":1383:1496   */\n    tag_106:\n        /* \"#utility.yul\":1397:1403   */\n      dup4\n        /* \"#utility.yul\":1394:1395   */\n      dup2\n        /* \"#utility.yul\":1391:1404   */\n      lt\n        /* \"#utility.yul\":1383:1496   */\n      iszero\n      tag_108\n      jumpi\n        /* \"#utility.yul\":1482:1483   */\n      dup1\n        /* \"#utility.yul\":1477:1480   */\n      dup3\n        /* \"#utility.yul\":1473:1484   */\n      add\n        /* \"#utility.yul\":1467:1485   */\n      mload\n        /* \"#utility.yul\":1463:1464   */\n      dup2\n        /* \"#utility.yul\":1458:1461   */\n      dup5\n        /* \"#utility.yul\":1454:1465   */\n      add\n        /* \"#utility.yul\":1447:1486   */\n      mstore\n        /* \"#utility.yul\":1419:1421   */\n      0x20\n        /* \"#utility.yul\":1416:1417   */\n      dup2\n        /* \"#utility.yul\":1412:1422   */\n      add\n        /* \"#utility.yul\":1407:1422   */\n      swap1\n      pop\n        /* \"#utility.yul\":1383:1496   */\n      jump(tag_106)\n    tag_108:\n        /* \"#utility.yul\":1514:1520   */\n      dup4\n        /* \"#utility.yul\":1511:1512   */\n      dup2\n        /* \"#utility.yul\":1508:1521   */\n      gt\n        /* \"#utility.yul\":1505:1606   */\n      iszero\n      tag_109\n      jumpi\n        /* \"#utility.yul\":1594:1595   */\n      0x00\n        /* \"#utility.yul\":1585:1591   */\n      dup5\n        /* \"#utility.yul\":1580:1583   */\n      dup5\n        /* \"#utility.yul\":1576:1592   */\n      add\n        /* \"#utility.yul\":1569:1596   */\n      mstore\n        /* \"#utility.yul\":1505:1606   */\n    tag_109:\n        /* \"#utility.yul\":1354:1612   */\n      pop\n        /* \"#utility.yul\":1305:1612   */\n      pop\n      pop\n      pop\n      jump\t// out\n        /* \"#utility.yul\":1618:1720   */\n    tag_70:\n        /* \"#utility.yul\":1659:1665   */\n      0x00\n        /* \"#utility.yul\":1710:1712   */\n      0x1f\n        /* \"#utility.yul\":1706:1713   */\n      not\n        /* \"#utility.yul\":1701:1703   */\n      0x1f\n        /* \"#utility.yul\":1694:1699   */\n      dup4\n        /* \"#utility.yul\":1690:1704   */\n      add\n        /* \"#utility.yul\":1686:1714   */\n      and\n        /* \"#utility.yul\":1676:1714   */\n      swap1\n      pop\n        /* \"#utility.yul\":1618:1720   */\n      swap2\n      swap1\n      pop\n      jump\t// out\n        /* \"#utility.yul\":1726:2090   */\n    tag_71:\n        /* \"#utility.yul\":1814:1817   */\n      0x00\n        /* \"#utility.yul\":1842:1881   */\n      tag_112\n        /* \"#utility.yul\":1875:1880   */\n      dup3\n        /* \"#utility.yul\":1842:1881   */\n      tag_67\n      jump\t// in\n    tag_112:\n        /* \"#utility.yul\":1897:1968   */\n      tag_113\n        /* \"#utility.yul\":1961:1967   */\n      dup2\n        /* \"#utility.yul\":1956:1959   */\n      dup6\n        /* \"#utility.yul\":1897:1968   */\n      tag_68\n      jump\t// in\n    tag_113:\n        /* \"#utility.yul\":1890:1968   */\n      swap4\n      pop\n        /* \"#utility.yul\":1977:2029   */\n      tag_114\n        /* \"#utility.yul\":2022:2028   */\n      dup2\n        /* \"#utility.yul\":2017:2020   */\n      dup6\n        /* \"#utility.yul\":2010:2014   */\n      0x20\n        /* \"#utility.yul\":2003:2008   */\n      dup7\n        /* \"#utility.yul\":1999:2015   */\n      add\n        /* \"#utility.yul\":1977:2029   */\n      tag_69\n      jump\t// in\n    tag_114:\n        /* \"#utility.yul\":2054:2083   */\n      tag_115\n        /* \"#utility.yul\":2076:2082   */\n      dup2\n        /* \"#utility.yul\":2054:2083   */\n      tag_70\n      jump\t// in\n    tag_115:\n        /* \"#utility.yul\":2049:2052   */\n      dup5\n        /* \"#utility.yul\":2045:2084   */\n      add\n        /* \"#utility.yul\":2038:2084   */\n      swap2\n      pop\n        /* \"#utility.yul\":1818:2090   */\n      pop\n        /* \"#utility.yul\":1726:2090   */\n      swap3\n      swap2\n      pop\n      pop\n      jump\t// out\n        /* \"#utility.yul\":2096:2409   */\n    tag_10:\n        /* \"#utility.yul\":2209:2213   */\n      0x00\n        /* \"#utility.yul\":2247:2249   */\n      0x20\n        /* \"#utility.yul\":2236:2245   */\n      dup3\n        /* \"#utility.yul\":2232:2250   */\n      add\n        /* \"#utility.yul\":2224:2250   */\n      swap1\n      pop\n        /* \"#utility.yul\":2296:2305   */\n      dup2\n        /* \"#utility.yul\":2290:2294   */\n      dup2\n        /* \"#utility.yul\":2286:2306   */\n      sub\n        /* \"#utility.yul\":2282:2283   */\n      0x00\n        /* \"#utility.yul\":2271:2280   */\n      dup4\n        /* \"#utility.yul\":2267:2284   */\n      add\n        /* \"#utility.yul\":2260:2307   */\n      mstore\n        /* \"#utility.yul\":2324:2402   */\n      tag_117\n        /* \"#utility.yul\":2397:2401   */\n      dup2\n        /* \"#utility.yul\":2388:2394   */\n      dup5\n        /* \"#utility.yul\":2324:2402   */\n      tag_71\n      jump\t// in\n    tag_117:\n        /* \"#utility.yul\":2316:2402   */\n      swap1\n      pop\n        /* \"#utility.yul\":2096:2409   */\n      swap3\n      swap2\n      pop\n      pop\n      jump\t// out\n        /* \"#utility.yul\":2415:2533   */\n    tag_72:\n        /* \"#utility.yul\":2502:2526   */\n      tag_119\n        /* \"#utility.yul\":2520:2525   */\n      dup2\n        /* \"#utility.yul\":2502:2526   */\n      tag_64\n      jump\t// in\n    tag_119:\n        /* \"#utility.yul\":2497:2500   */\n      dup3\n        /* \"#utility.yul\":2490:2527   */\n      mstore\n        /* \"#utility.yul\":2415:2533   */\n      pop\n      pop\n      jump\t// out\n        /* \"#utility.yul\":2539:2761   */\n    tag_14:\n        /* \"#utility.yul\":2632:2636   */\n      0x00\n        /* \"#utility.yul\":2670:2672   */\n      0x20\n        /* \"#utility.yul\":2659:2668   */\n      dup3\n        /* \"#utility.yul\":2655:2673   */\n      add\n        /* \"#utility.yul\":2647:2673   */\n      swap1\n      pop\n        /* \"#utility.yul\":2683:2754   */\n      tag_121\n        /* \"#utility.yul\":2751:2752   */\n      0x00\n        /* \"#utility.yul\":2740:2749   */\n      dup4\n        /* \"#utility.yul\":2736:2753   */\n      add\n        /* \"#utility.yul\":2727:2733   */\n      dup5\n        /* \"#utility.yul\":2683:2754   */\n      tag_72\n      jump\t// in\n    tag_121:\n        /* \"#utility.yul\":2539:2761   */\n      swap3\n      swap2\n      pop\n      pop\n      jump\t// out\n        /* \"#utility.yul\":2767:2989   */\n    tag_73:\n        /* \"#utility.yul\":2907:2941   */\n      0x4769766520612076616c6964206e756d626572206265747765656e203120616e\n        /* \"#utility.yul\":2903:2904   */\n      0x00\n        /* \"#utility.yul\":2895:2901   */\n      dup3\n        /* \"#utility.yul\":2891:2905   */\n      add\n        /* \"#utility.yul\":2884:2942   */\n      mstore\n        /* \"#utility.yul\":2976:2981   */\n      0x6420360000000000000000000000000000000000000000000000000000000000\n        /* \"#utility.yul\":2971:2973   */\n      0x20\n        /* \"#utility.yul\":2963:2969   */\n      dup3\n        /* \"#utility.yul\":2959:2974   */\n      add\n        /* \"#utility.yul\":2952:2982   */\n      mstore\n        /* \"#utility.yul\":2767:2989   */\n      pop\n      jump\t// out\n        /* \"#utility.yul\":2995:3361   */\n    tag_74:\n        /* \"#utility.yul\":3137:3140   */\n      0x00\n        /* \"#utility.yul\":3158:3225   */\n      tag_124\n        /* \"#utility.yul\":3222:3224   */\n      0x23\n        /* \"#utility.yul\":3217:3220   */\n      dup4\n        /* \"#utility.yul\":3158:3225   */\n      tag_68\n      jump\t// in\n    tag_124:\n        /* \"#utility.yul\":3151:3225   */\n      swap2\n      pop\n        /* \"#utility.yul\":3234:3327   */\n      tag_125\n        /* \"#utility.yul\":3323:3326   */\n      dup3\n        /* \"#utility.yul\":3234:3327   */\n      tag_73\n      jump\t// in\n    tag_125:\n        /* \"#utility.yul\":3352:3354   */\n      0x40\n        /* \"#utility.yul\":3347:3350   */\n      dup3\n        /* \"#utility.yul\":3343:3355   */\n      add\n        /* \"#utility.yul\":3336:3355   */\n      swap1\n      pop\n        /* \"#utility.yul\":2995:3361   */\n      swap2\n      swap1\n      pop\n      jump\t// out\n        /* \"#utility.yul\":3367:3786   */\n    tag_19:\n        /* \"#utility.yul\":3533:3537   */\n      0x00\n        /* \"#utility.yul\":3571:3573   */\n      0x20\n        /* \"#utility.yul\":3560:3569   */\n      dup3\n        /* \"#utility.yul\":3556:3574   */\n      add\n        /* \"#utility.yul\":3548:3574   */\n      swap1\n      pop\n        /* \"#utility.yul\":3620:3629   */\n      dup2\n        /* \"#utility.yul\":3614:3618   */\n      dup2\n        /* \"#utility.yul\":3610:3630   */\n      sub\n        /* \"#utility.yul\":3606:3607   */\n      0x00\n        /* \"#utility.yul\":3595:3604   */\n      dup4\n        /* \"#utility.yul\":3591:3608   */\n      add\n        /* \"#utility.yul\":3584:3631   */\n      mstore\n        /* \"#utility.yul\":3648:3779   */\n      tag_127\n        /* \"#utility.yul\":3774:3778   */\n      dup2\n        /* \"#utility.yul\":3648:3779   */\n      tag_74\n      jump\t// in\n    tag_127:\n        /* \"#utility.yul\":3640:3779   */\n      swap1\n      pop\n        /* \"#utility.yul\":3367:3786   */\n      swap2\n      swap1\n      pop\n      jump\t// out\n        /* \"#utility.yul\":3792:3972   */\n    tag_75:\n        /* \"#utility.yul\":3840:3917   */\n      0x4e487b7100000000000000000000000000000000000000000000000000000000\n        /* \"#utility.yul\":3837:3838   */\n      0x00\n        /* \"#utility.yul\":3830:3918   */\n      mstore\n        /* \"#utility.yul\":3937:3941   */\n      0x11\n        /* \"#utility.yul\":3934:3935   */\n      0x04\n        /* \"#utility.yul\":3927:3942   */\n      mstore\n        /* \"#utility.yul\":3961:3965   */\n      0x24\n        /* \"#utility.yul\":3958:3959   */\n      0x00\n        /* \"#utility.yul\":3951:3966   */\n      revert\n        /* \"#utility.yul\":3978:4283   */\n    tag_24:\n        /* \"#utility.yul\":4018:4021   */\n      0x00\n        /* \"#utility.yul\":4037:4057   */\n      tag_130\n        /* \"#utility.yul\":4055:4056   */\n      dup3\n        /* \"#utility.yul\":4037:4057   */\n      tag_64\n      jump\t// in\n    tag_130:\n        /* \"#utility.yul\":4032:4057   */\n      swap2\n      pop\n        /* \"#utility.yul\":4071:4091   */\n      tag_131\n        /* \"#utility.yul\":4089:4090   */\n      dup4\n        /* \"#utility.yul\":4071:4091   */\n      tag_64\n      jump\t// in\n    tag_131:\n        /* \"#utility.yul\":4066:4091   */\n      swap3\n      pop\n        /* \"#utility.yul\":4225:4226   */\n      dup3\n        /* \"#utility.yul\":4157:4223   */\n      0xffffffffffffffffffffffffffffffffffffffffffffffffffffffffffffffff\n        /* \"#utility.yul\":4153:4227   */\n      sub\n        /* \"#utility.yul\":4150:4151   */\n      dup3\n        /* \"#utility.yul\":4147:4228   */\n      gt\n        /* \"#utility.yul\":4144:4251   */\n      iszero\n      tag_132\n      jumpi\n        /* \"#utility.yul\":4231:4249   */\n      tag_133\n      tag_75\n      jump\t// in\n    tag_133:\n        /* \"#utility.yul\":4144:4251   */\n    tag_132:\n        /* \"#utility.yul\":4275:4276   */\n      dup3\n        /* \"#utility.yul\":4272:4273   */\n      dup3\n        /* \"#utility.yul\":4268:4277   */\n      add\n        /* \"#utility.yul\":4261:4277   */\n      swap1\n      pop\n        /* \"#utility.yul\":3978:4283   */\n      swap3\n      swap2\n      pop\n      pop\n      jump\t// out\n        /* \"#utility.yul\":4289:4437   */\n    tag_76:\n        /* \"#utility.yul\":4391:4402   */\n      0x00\n        /* \"#utility.yul\":4428:4431   */\n      dup2\n        /* \"#utility.yul\":4413:4431   */\n      swap1\n      pop\n        /* \"#utility.yul\":4289:4437   */\n      swap3\n      swap2\n      pop\n      pop\n      jump\t// out\n        /* \"#utility.yul\":4443:4820   */\n    tag_77:\n        /* \"#utility.yul\":4549:4552   */\n      0x00\n        /* \"#utility.yul\":4577:4616   */\n      tag_136\n        /* \"#utility.yul\":4610:4615   */\n      dup3\n        /* \"#utility.yul\":4577:4616   */\n      tag_67\n      jump\t// in\n    tag_136:\n        /* \"#utility.yul\":4632:4721   */\n      tag_137\n        /* \"#utility.yul\":4714:4720   */\n      dup2\n        /* \"#utility.yul\":4709:4712   */\n      dup6\n        /* \"#utility.yul\":4632:4721   */\n      tag_76\n      jump\t// in\n    tag_137:\n        /* \"#utility.yul\":4625:4721   */\n      swap4\n      pop\n        /* \"#utility.yul\":4730:4782   */\n      tag_138\n        /* \"#utility.yul\":4775:4781   */\n      dup2\n        /* \"#utility.yul\":4770:4773   */\n      dup6\n        /* \"#utility.yul\":4763:4767   */\n      0x20\n        /* \"#utility.yul\":4756:4761   */\n      dup7\n        /* \"#utility.yul\":4752:4768   */\n      add\n        /* \"#utility.yul\":4730:4782   */\n      tag_69\n      jump\t// in\n    tag_138:\n        /* \"#utility.yul\":4807:4813   */\n      dup1\n        /* \"#utility.yul\":4802:4805   */\n      dup5\n        /* \"#utility.yul\":4798:4814   */\n      add\n        /* \"#utility.yul\":4791:4814   */\n      swap2\n      pop\n        /* \"#utility.yul\":4553:4820   */\n      pop\n        /* \"#utility.yul\":4443:4820   */\n      swap3\n      swap2\n      pop\n      pop\n      jump\t// out\n        /* \"#utility.yul\":4826:5008   */\n    tag_78:\n        /* \"#utility.yul\":4994:5001   */\n      0x2052554e53000000000000000000000000000000000000000000000000000000\n        /* \"#utility.yul\":4989:4992   */\n      dup2\n        /* \"#utility.yul\":4982:5002   */\n      mstore\n        /* \"#utility.yul\":4826:5008   */\n      pop\n      jump\t// out\n        /* \"#utility.yul\":5014:5553   */\n    tag_28:\n        /* \"#utility.yul\":5236:5239   */\n      0x00\n        /* \"#utility.yul\":5258:5353   */\n      tag_141\n        /* \"#utility.yul\":5349:5352   */\n      dup3\n        /* \"#utility.yul\":5340:5346   */\n      dup5\n        /* \"#utility.yul\":5258:5353   */\n      tag_77\n      jump\t// in\n    tag_141:\n        /* \"#utility.yul\":5251:5353   */\n      swap2\n      pop\n        /* \"#utility.yul\":5363:5500   */\n      tag_142\n        /* \"#utility.yul\":5496:5499   */\n      dup3\n        /* \"#utility.yul\":5363:5500   */\n      tag_78\n      jump\t// in\n    tag_142:\n        /* \"#utility.yul\":5525:5526   */\n      0x05\n        /* \"#utility.yul\":5520:5523   */\n      dup3\n        /* \"#utility.yul\":5516:5527   */\n      add\n        /* \"#utility.yul\":5509:5527   */\n      swap2\n      pop\n        /* \"#utility.yul\":5544:5547   */\n      dup2\n        /* \"#utility.yul\":5537:5547   */\n      swap1\n      pop\n        /* \"#utility.yul\":5014:5553   */\n      swap3\n      swap2\n      pop\n      pop\n      jump\t// out\n        /* \"#utility.yul\":5559:5740   */\n    tag_79:\n        /* \"#utility.yul\":5727:5733   */\n      0x204f555400000000000000000000000000000000000000000000000000000000\n        /* \"#utility.yul\":5722:5725   */\n      dup2\n        /* \"#utility.yul\":5715:5734   */\n      mstore\n        /* \"#utility.yul\":5559:5740   */\n      pop\n      jump\t// out\n        /* \"#utility.yul\":5746:6285   */\n    tag_32:\n        /* \"#utility.yul\":5968:5971   */\n      0x00\n        /* \"#utility.yul\":5990:6085   */\n      tag_145\n        /* \"#utility.yul\":6081:6084   */\n      dup3\n        /* \"#utility.yul\":6072:6078   */\n      dup5\n        /* \"#utility.yul\":5990:6085   */\n      tag_77\n      jump\t// in\n    tag_145:\n        /* \"#utility.yul\":5983:6085   */\n      swap2\n      pop\n        /* \"#utility.yul\":6095:6232   */\n      tag_146\n        /* \"#utility.yul\":6228:6231   */\n      dup3\n        /* \"#utility.yul\":6095:6232   */\n      tag_79\n      jump\t// in\n    tag_146:\n        /* \"#utility.yul\":6257:6258   */\n      0x04\n        /* \"#utility.yul\":6252:6255   */\n      dup3\n        /* \"#utility.yul\":6248:6259   */\n      add\n        /* \"#utility.yul\":6241:6259   */\n      swap2\n      pop\n        /* \"#utility.yul\":6276:6279   */\n      dup2\n        /* \"#utility.yul\":6269:6279   */\n      swap1\n      pop\n        /* \"#utility.yul\":5746:6285   */\n      swap3\n      swap2\n      pop\n      pop\n      jump\t// out\n        /* \"#utility.yul\":6291:6524   */\n    tag_35:\n        /* \"#utility.yul\":6330:6333   */\n      0x00\n        /* \"#utility.yul\":6353:6377   */\n      tag_148\n        /* \"#utility.yul\":6371:6376   */\n      dup3\n        /* \"#utility.yul\":6353:6377   */\n      tag_64\n      jump\t// in\n    tag_148:\n        /* \"#utility.yul\":6344:6377   */\n      swap2\n      pop\n        /* \"#utility.yul\":6399:6465   */\n      0xffffffffffffffffffffffffffffffffffffffffffffffffffffffffffffffff\n        /* \"#utility.yul\":6392:6397   */\n      dup3\n        /* \"#utility.yul\":6389:6466   */\n      eq\n        /* \"#utility.yul\":6386:6489   */\n      iszero\n      tag_149\n      jumpi\n        /* \"#utility.yul\":6469:6487   */\n      tag_150\n      tag_75\n      jump\t// in\n    tag_150:\n        /* \"#utility.yul\":6386:6489   */\n    tag_149:\n        /* \"#utility.yul\":6516:6517   */\n      0x01\n        /* \"#utility.yul\":6509:6514   */\n      dup3\n        /* \"#utility.yul\":6505:6518   */\n      add\n        /* \"#utility.yul\":6498:6518   */\n      swap1\n      pop\n        /* \"#utility.yul\":6291:6524   */\n      swap2\n      swap1\n      pop\n      jump\t// out\n        /* \"#utility.yul\":6530:6609   */\n    tag_80:\n        /* \"#utility.yul\":6569:6576   */\n      0x00\n        /* \"#utility.yul\":6598:6603   */\n      dup2\n        /* \"#utility.yul\":6587:6603   */\n      swap1\n      pop\n        /* \"#utility.yul\":6530:6609   */\n      swap2\n      swap1\n      pop\n      jump\t// out\n        /* \"#utility.yul\":6615:6772   */\n    tag_81:\n        /* \"#utility.yul\":6720:6765   */\n      tag_153\n        /* \"#utility.yul\":6740:6764   */\n      tag_154\n        /* \"#utility.yul\":6758:6763   */\n      dup3\n        /* \"#utility.yul\":6740:6764   */\n      tag_64\n      jump\t// in\n    tag_154:\n        /* \"#utility.yul\":6720:6765   */\n      tag_80\n      jump\t// in\n    tag_153:\n        /* \"#utility.yul\":6715:6718   */\n      dup3\n        /* \"#utility.yul\":6708:6766   */\n      mstore\n        /* \"#utility.yul\":6615:6772   */\n      pop\n      pop\n      jump\t// out\n        /* \"#utility.yul\":6778:6904   */\n    tag_82:\n        /* \"#utility.yul\":6815:6822   */\n      0x00\n        /* \"#utility.yul\":6855:6897   */\n      0xffffffffffffffffffffffffffffffffffffffff\n        /* \"#utility.yul\":6848:6853   */\n      dup3\n        /* \"#utility.yul\":6844:6898   */\n      and\n        /* \"#utility.yul\":6833:6898   */\n      swap1\n      pop\n        /* \"#utility.yul\":6778:6904   */\n      swap2\n      swap1\n      pop\n      jump\t// out\n        /* \"#utility.yul\":6910:7006   */\n    tag_83:\n        /* \"#utility.yul\":6947:6954   */\n      0x00\n        /* \"#utility.yul\":6976:7000   */\n      tag_157\n        /* \"#utility.yul\":6994:6999   */\n      dup3\n        /* \"#utility.yul\":6976:7000   */\n      tag_82\n      jump\t// in\n    tag_157:\n        /* \"#utility.yul\":6965:7000   */\n      swap1\n      pop\n        /* \"#utility.yul\":6910:7006   */\n      swap2\n      swap1\n      pop\n      jump\t// out\n        /* \"#utility.yul\":7012:7106   */\n    tag_84:\n        /* \"#utility.yul\":7045:7053   */\n      0x00\n        /* \"#utility.yul\":7093:7098   */\n      dup2\n        /* \"#utility.yul\":7089:7091   */\n      0x60\n        /* \"#utility.yul\":7085:7099   */\n      shl\n        /* \"#utility.yul\":7064:7099   */\n      swap1\n      pop\n        /* \"#utility.yul\":7012:7106   */\n      swap2\n      swap1\n      pop\n      jump\t// out\n        /* \"#utility.yul\":7112:7206   */\n    tag_85:\n        /* \"#utility.yul\":7151:7158   */\n      0x00\n        /* \"#utility.yul\":7180:7200   */\n      tag_160\n        /* \"#utility.yul\":7194:7199   */\n      dup3\n        /* \"#utility.yul\":7180:7200   */\n      tag_84\n      jump\t// in\n    tag_160:\n        /* \"#utility.yul\":7169:7200   */\n      swap1\n      pop\n        /* \"#utility.yul\":7112:7206   */\n      swap2\n      swap1\n      pop\n      jump\t// out\n        /* \"#utility.yul\":7212:7312   */\n    tag_86:\n        /* \"#utility.yul\":7251:7258   */\n      0x00\n        /* \"#utility.yul\":7280:7306   */\n      tag_162\n        /* \"#utility.yul\":7300:7305   */\n      dup3\n        /* \"#utility.yul\":7280:7306   */\n      tag_85\n      jump\t// in\n    tag_162:\n        /* \"#utility.yul\":7269:7306   */\n      swap1\n      pop\n        /* \"#utility.yul\":7212:7312   */\n      swap2\n      swap1\n      pop\n      jump\t// out\n        /* \"#utility.yul\":7318:7475   */\n    tag_87:\n        /* \"#utility.yul\":7423:7468   */\n      tag_164\n        /* \"#utility.yul\":7443:7467   */\n      tag_165\n        /* \"#utility.yul\":7461:7466   */\n      dup3\n        /* \"#utility.yul\":7443:7467   */\n      tag_83\n      jump\t// in\n    tag_165:\n        /* \"#utility.yul\":7423:7468   */\n      tag_86\n      jump\t// in\n    tag_164:\n        /* \"#utility.yul\":7418:7421   */\n      dup3\n        /* \"#utility.yul\":7411:7469   */\n      mstore\n        /* \"#utility.yul\":7318:7475   */\n      pop\n      pop\n      jump\t// out\n        /* \"#utility.yul\":7481:8019   */\n    tag_37:\n        /* \"#utility.yul\":7649:7652   */\n      0x00\n        /* \"#utility.yul\":7664:7739   */\n      tag_167\n        /* \"#utility.yul\":7735:7738   */\n      dup3\n        /* \"#utility.yul\":7726:7732   */\n      dup7\n        /* \"#utility.yul\":7664:7739   */\n      tag_81\n      jump\t// in\n    tag_167:\n        /* \"#utility.yul\":7764:7766   */\n      0x20\n        /* \"#utility.yul\":7759:7762   */\n      dup3\n        /* \"#utility.yul\":7755:7767   */\n      add\n        /* \"#utility.yul\":7748:7767   */\n      swap2\n      pop\n        /* \"#utility.yul\":7777:7852   */\n      tag_168\n        /* \"#utility.yul\":7848:7851   */\n      dup3\n        /* \"#utility.yul\":7839:7845   */\n      dup6\n        /* \"#utility.yul\":7777:7852   */\n      tag_87\n      jump\t// in\n    tag_168:\n        /* \"#utility.yul\":7877:7879   */\n      0x14\n        /* \"#utility.yul\":7872:7875   */\n      dup3\n        /* \"#utility.yul\":7868:7880   */\n      add\n        /* \"#utility.yul\":7861:7880   */\n      swap2\n      pop\n        /* \"#utility.yul\":7890:7965   */\n      tag_169\n        /* \"#utility.yul\":7961:7964   */\n      dup3\n        /* \"#utility.yul\":7952:7958   */\n      dup5\n        /* \"#utility.yul\":7890:7965   */\n      tag_81\n      jump\t// in\n    tag_169:\n        /* \"#utility.yul\":7990:7992   */\n      0x20\n        /* \"#utility.yul\":7985:7988   */\n      dup3\n        /* \"#utility.yul\":7981:7993   */\n      add\n        /* \"#utility.yul\":7974:7993   */\n      swap2\n      pop\n        /* \"#utility.yul\":8010:8013   */\n      dup2\n        /* \"#utility.yul\":8003:8013   */\n      swap1\n      pop\n        /* \"#utility.yul\":7481:8019   */\n      swap5\n      swap4\n      pop\n      pop\n      pop\n      pop\n      jump\t// out\n        /* \"#utility.yul\":8025:8205   */\n    tag_88:\n        /* \"#utility.yul\":8073:8150   */\n      0x4e487b7100000000000000000000000000000000000000000000000000000000\n        /* \"#utility.yul\":8070:8071   */\n      0x00\n        /* \"#utility.yul\":8063:8151   */\n      mstore\n        /* \"#utility.yul\":8170:8174   */\n      0x12\n        /* \"#utility.yul\":8167:8168   */\n      0x04\n        /* \"#utility.yul\":8160:8175   */\n      mstore\n        /* \"#utility.yul\":8194:8198   */\n      0x24\n        /* \"#utility.yul\":8191:8192   */\n      0x00\n        /* \"#utility.yul\":8184:8199   */\n      revert\n        /* \"#utility.yul\":8211:8387   */\n    tag_39:\n        /* \"#utility.yul\":8243:8244   */\n      0x00\n        /* \"#utility.yul\":8260:8280   */\n      tag_172\n        /* \"#utility.yul\":8278:8279   */\n      dup3\n        /* \"#utility.yul\":8260:8280   */\n      tag_64\n      jump\t// in\n    tag_172:\n        /* \"#utility.yul\":8255:8280   */\n      swap2\n      pop\n        /* \"#utility.yul\":8294:8314   */\n      tag_173\n        /* \"#utility.yul\":8312:8313   */\n      dup4\n        /* \"#utility.yul\":8294:8314   */\n      tag_64\n      jump\t// in\n    tag_173:\n        /* \"#utility.yul\":8289:8314   */\n      swap3\n      pop\n        /* \"#utility.yul\":8333:8334   */\n      dup3\n        /* \"#utility.yul\":8323:8358   */\n      tag_174\n      jumpi\n        /* \"#utility.yul\":8338:8356   */\n      tag_175\n      tag_88\n      jump\t// in\n    tag_175:\n        /* \"#utility.yul\":8323:8358   */\n    tag_174:\n        /* \"#utility.yul\":8379:8380   */\n      dup3\n        /* \"#utility.yul\":8376:8377   */\n      dup3\n        /* \"#utility.yul\":8372:8381   */\n      mod\n        /* \"#utility.yul\":8367:8381   */\n      swap1\n      pop\n        /* \"#utility.yul\":8211:8387   */\n      swap3\n      swap2\n      pop\n      pop\n      jump\t// out\n        /* \"#utility.yul\":8393:8578   */\n    tag_46:\n        /* \"#utility.yul\":8433:8434   */\n      0x00\n        /* \"#utility.yul\":8450:8470   */\n      tag_177\n        /* \"#utility.yul\":8468:8469   */\n      dup3\n        /* \"#utility.yul\":8450:8470   */\n      tag_64\n      jump\t// in\n    tag_177:\n        /* \"#utility.yul\":8445:8470   */\n      swap2\n      pop\n        /* \"#utility.yul\":8484:8504   */\n      tag_178\n        /* \"#utility.yul\":8502:8503   */\n      dup4\n        /* \"#utility.yul\":8484:8504   */\n      tag_64\n      jump\t// in\n    tag_178:\n        /* \"#utility.yul\":8479:8504   */\n      swap3\n      pop\n        /* \"#utility.yul\":8523:8524   */\n      dup3\n        /* \"#utility.yul\":8513:8548   */\n      tag_179\n      jumpi\n        /* \"#utility.yul\":8528:8546   */\n      tag_180\n      tag_88\n      jump\t// in\n    tag_180:\n        /* \"#utility.yul\":8513:8548   */\n    tag_179:\n        /* \"#utility.yul\":8570:8571   */\n      dup3\n        /* \"#utility.yul\":8567:8568   */\n      dup3\n        /* \"#utility.yul\":8563:8572   */\n      div\n        /* \"#utility.yul\":8558:8572   */\n      swap1\n      pop\n        /* \"#utility.yul\":8393:8578   */\n      swap3\n      swap2\n      pop\n      pop\n      jump\t// out\n        /* \"#utility.yul\":8584:8764   */\n    tag_49:\n        /* \"#utility.yul\":8632:8709   */\n      0x4e487b7100000000000000000000000000000000000000000000000000000000\n        /* \"#utility.yul\":8629:8630   */\n      0x00\n        /* \"#utility.yul\":8622:8710   */\n      mstore\n        /* \"#utility.yul\":8729:8733   */\n      0x41\n        /* \"#utility.yul\":8726:8727   */\n      0x04\n        /* \"#utility.yul\":8719:8734   */\n      mstore\n        /* \"#utility.yul\":8753:8757   */\n      0x24\n        /* \"#utility.yul\":8750:8751   */\n      0x00\n        /* \"#utility.yul\":8743:8758   */\n      revert\n        /* \"#utility.yul\":8770:8961   */\n    tag_54:\n        /* \"#utility.yul\":8810:8814   */\n      0x00\n        /* \"#utility.yul\":8830:8850   */\n      tag_183\n        /* \"#utility.yul\":8848:8849   */\n      dup3\n        /* \"#utility.yul\":8830:8850   */\n      tag_64\n      jump\t// in\n    tag_183:\n        /* \"#utility.yul\":8825:8850   */\n      swap2\n      pop\n        /* \"#utility.yul\":8864:8884   */\n      tag_184\n        /* \"#utility.yul\":8882:8883   */\n      dup4\n        /* \"#utility.yul\":8864:8884   */\n      tag_64\n      jump\t// in\n    tag_184:\n        /* \"#utility.yul\":8859:8884   */\n      swap3\n      pop\n        /* \"#utility.yul\":8903:8904   */\n      dup3\n        /* \"#utility.yul\":8900:8901   */\n      dup3\n        /* \"#utility.yul\":8897:8905   */\n      lt\n        /* \"#utility.yul\":8894:8928   */\n      iszero\n      tag_185\n      jumpi\n        /* \"#utility.yul\":8908:8926   */\n      tag_186\n      tag_75\n      jump\t// in\n    tag_186:\n        /* \"#utility.yul\":8894:8928   */\n    tag_185:\n        /* \"#utility.yul\":8953:8954   */\n      dup3\n        /* \"#utility.yul\":8950:8951   */\n      dup3\n        /* \"#utility.yul\":8946:8955   */\n      sub\n        /* \"#utility.yul\":8938:8955   */\n      swap1\n      pop\n        /* \"#utility.yul\":8770:8961   */\n      swap3\n      swap2\n      pop\n      pop\n      jump\t// out\n        /* \"#utility.yul\":8967:9147   */\n    tag_59:\n        /* \"#utility.yul\":9015:9092   */\n      0x4e487b7100000000000000000000000000000000000000000000000000000000\n        /* \"#utility.yul\":9012:9013   */\n      0x00\n        /* \"#utility.yul\":9005:9093   */\n      mstore\n        /* \"#utility.yul\":9112:9116   */\n      0x32\n        /* \"#utility.yul\":9109:9110   */\n      0x04\n        /* \"#utility.yul\":9102:9117   */\n      mstore\n        /* \"#utility.yul\":9136:9140   */\n      0x24\n        /* \"#utility.yul\":9133:9134   */\n      0x00\n        /* \"#utility.yul\":9126:9141   */\n      revert\n\n    auxdata: 0xa26469706673582212201d8d8df61d8f598db01667b619fcb8801296f6a1d7d2005edc8db528f95114d764736f6c634300080c0033\n}\n",
				"bytecode": {
					"linkReferences": {},
					"object": "6080604052600060025534801561001557600080fd5b506108df806100256000396000f3fe608060405234801561001057600080fd5b50600436106100365760003560e01c80635f72f4501461003b578063efedc6691461006b575b600080fd5b61005560048036038101906100509190610368565b610089565b604051610062919061042e565b60405180910390f35b61007361016b565b604051610080919061045f565b60405180910390f35b60606001821015801561009d575060068211155b6100dc576040517f08c379a00000000000000000000000000000000000000000000000000000000081526004016100d3906104ec565b60405180910390fd5b60006100e6610171565b9050808314610138578060016000828254610101919061053b565b92505081905550610111816101cc565b60405160200161012191906105f3565b604051602081830303815290604052915050610166565b6101436001546101cc565b604051602001610153919061063f565b6040516020818303038152906040529150505b919050565b60015481565b60006002600081548092919061018690610665565b9190505550600642336002546040516020016101a493929190610749565b6040516020818303038152906040528051906020012060001c6101c791906107b5565b905090565b60606000821415610214576040518060400160405280600181526020017f30000000000000000000000000000000000000000000000000000000000000008152509050610328565b600082905060005b6000821461024657808061022f90610665565b915050600a8261023f91906107e6565b915061021c565b60008167ffffffffffffffff81111561026257610261610817565b5b6040519080825280601f01601f1916602001820160405280156102945781602001600182028036833780820191505090505b5090505b60008514610321576001826102ad9190610846565b9150600a856102bc91906107b5565b60306102c8919061053b565b60f81b8183815181106102de576102dd61087a565b5b60200101907effffffffffffffffffffffffffffffffffffffffffffffffffffffffffffff1916908160001a905350600a8561031a91906107e6565b9450610298565b8093505050505b919050565b600080fd5b6000819050919050565b61034581610332565b811461035057600080fd5b50565b6000813590506103628161033c565b92915050565b60006020828403121561037e5761037d61032d565b5b600061038c84828501610353565b91505092915050565b600081519050919050565b600082825260208201905092915050565b60005b838110156103cf5780820151818401526020810190506103b4565b838111156103de576000848401525b50505050565b6000601f19601f8301169050919050565b600061040082610395565b61040a81856103a0565b935061041a8185602086016103b1565b610423816103e4565b840191505092915050565b6000602082019050818103600083015261044881846103f5565b905092915050565b61045981610332565b82525050565b60006020820190506104746000830184610450565b92915050565b7f4769766520612076616c6964206e756d626572206265747765656e203120616e60008201527f6420360000000000000000000000000000000000000000000000000000000000602082015250565b60006104d66023836103a0565b91506104e18261047a565b604082019050919050565b60006020820190508181036000830152610505816104c9565b9050919050565b7f4e487b7100000000000000000000000000000000000000000000000000000000600052601160045260246000fd5b600061054682610332565b915061055183610332565b9250827fffffffffffffffffffffffffffffffffffffffffffffffffffffffffffffffff038211156105865761058561050c565b5b828201905092915050565b600081905092915050565b60006105a782610395565b6105b18185610591565b93506105c18185602086016103b1565b80840191505092915050565b7f2052554e53000000000000000000000000000000000000000000000000000000815250565b60006105ff828461059c565b915061060a826105cd565b60058201915081905092915050565b7f204f555400000000000000000000000000000000000000000000000000000000815250565b600061064b828461059c565b915061065682610619565b60048201915081905092915050565b600061067082610332565b91507fffffffffffffffffffffffffffffffffffffffffffffffffffffffffffffffff8214156106a3576106a261050c565b5b600182019050919050565b6000819050919050565b6106c96106c482610332565b6106ae565b82525050565b600073ffffffffffffffffffffffffffffffffffffffff82169050919050565b60006106fa826106cf565b9050919050565b60008160601b9050919050565b600061071982610701565b9050919050565b600061072b8261070e565b9050919050565b61074361073e826106ef565b610720565b82525050565b600061075582866106b8565b6020820191506107658285610732565b60148201915061077582846106b8565b602082019150819050949350505050565b7f4e487b7100000000000000000000000000000000000000000000000000000000600052601260045260246000fd5b60006107c082610332565b91506107cb83610332565b9250826107db576107da610786565b5b828206905092915050565b60006107f182610332565b91506107fc83610332565b92508261080c5761080b610786565b5b828204905092915050565b7f4e487b7100000000000000000000000000000000000000000000000000000000600052604160045260246000fd5b600061085182610332565b915061085c83610332565b92508282101561086f5761086e61050c565b5b828203905092915050565b7f4e487b7100000000000000000000000000000000000000000000000000000000600052603260045260246000fdfea26469706673582212201d8d8df61d8f598db01667b619fcb8801296f6a1d7d2005edc8db528f95114d764736f6c634300080c0033",
					"opcodes": "PUSH1 0x80 PUSH1 0x40 MSTORE PUSH1 0x0 PUSH1 0x2 SSTORE CALLVALUE DUP1 ISZERO PUSH2 0x15 JUMPI PUSH1 0x0 DUP1 REVERT JUMPDEST POP PUSH2 0x8DF DUP1 PUSH2 0x25 PUSH1 0x0 CODECOPY PUSH1 0x0 RETURN INVALID PUSH1 0x80 PUSH1 0x40 MSTORE CALLVALUE DUP1 ISZERO PUSH2 0x10 JUMPI PUSH1 0x0 DUP1 REVERT JUMPDEST POP PUSH1 0x4 CALLDATASIZE LT PUSH2 0x36 JUMPI PUSH1 0x0 CALLDATALOAD PUSH1 0xE0 SHR DUP1 PUSH4 0x5F72F450 EQ PUSH2 0x3B JUMPI DUP1 PUSH4 0xEFEDC669 EQ PUSH2 0x6B JUMPI JUMPDEST PUSH1 0x0 DUP1 REVERT JUMPDEST PUSH2 0x55 PUSH1 0x4 DUP1 CALLDATASIZE SUB DUP2 ADD SWAP1 PUSH2 0x50 SWAP2 SWAP1 PUSH2 0x368 JUMP JUMPDEST PUSH2 0x89 JUMP JUMPDEST PUSH1 0x40 MLOAD PUSH2 0x62 SWAP2 SWAP1 PUSH2 0x42E JUMP JUMPDEST PUSH1 0x40 MLOAD DUP1 SWAP2 SUB SWAP1 RETURN JUMPDEST PUSH2 0x73 PUSH2 0x16B JUMP JUMPDEST PUSH1 0x40 MLOAD PUSH2 0x80 SWAP2 SWAP1 PUSH2 0x45F JUMP JUMPDEST PUSH1 0x40 MLOAD DUP1 SWAP2 SUB SWAP1 RETURN JUMPDEST PUSH1 0x60 PUSH1 0x1 DUP3 LT ISZERO DUP1 ISZERO PUSH2 0x9D JUMPI POP PUSH1 0x6 DUP3 GT ISZERO JUMPDEST PUSH2 0xDC JUMPI PUSH1 0x40 MLOAD PUSH32 0x8C379A000000000000000000000000000000000000000000000000000000000 DUP2 MSTORE PUSH1 0x4 ADD PUSH2 0xD3 SWAP1 PUSH2 0x4EC JUMP JUMPDEST PUSH1 0x40 MLOAD DUP1 SWAP2 SUB SWAP1 REVERT JUMPDEST PUSH1 0x0 PUSH2 0xE6 PUSH2 0x171 JUMP JUMPDEST SWAP1 POP DUP1 DUP4 EQ PUSH2 0x138 JUMPI DUP1 PUSH1 0x1 PUSH1 0x0 DUP3 DUP3 SLOAD PUSH2 0x101 SWAP2 SWAP1 PUSH2 0x53B JUMP JUMPDEST SWAP3 POP POP DUP2 SWAP1 SSTORE POP PUSH2 0x111 DUP2 PUSH2 0x1CC JUMP JUMPDEST PUSH1 0x40 MLOAD PUSH1 0x20 ADD PUSH2 0x121 SWAP2 SWAP1 PUSH2 0x5F3 JUMP JUMPDEST PUSH1 0x40 MLOAD PUSH1 0x20 DUP2 DUP4 SUB SUB DUP2 MSTORE SWAP1 PUSH1 0x40 MSTORE SWAP2 POP POP PUSH2 0x166 JUMP JUMPDEST PUSH2 0x143 PUSH1 0x1 SLOAD PUSH2 0x1CC JUMP JUMPDEST PUSH1 0x40 MLOAD PUSH1 0x20 ADD PUSH2 0x153 SWAP2 SWAP1 PUSH2 0x63F JUMP JUMPDEST PUSH1 0x40 MLOAD PUSH1 0x20 DUP2 DUP4 SUB SUB DUP2 MSTORE SWAP1 PUSH1 0x40 MSTORE SWAP2 POP POP JUMPDEST SWAP2 SWAP1 POP JUMP JUMPDEST PUSH1 0x1 SLOAD DUP2 JUMP JUMPDEST PUSH1 0x0 PUSH1 0x2 PUSH1 0x0 DUP2 SLOAD DUP1 SWAP3 SWAP2 SWAP1 PUSH2 0x186 SWAP1 PUSH2 0x665 JUMP JUMPDEST SWAP2 SWAP1 POP SSTORE POP PUSH1 0x6 TIMESTAMP CALLER PUSH1 0x2 SLOAD PUSH1 0x40 MLOAD PUSH1 0x20 ADD PUSH2 0x1A4 SWAP4 SWAP3 SWAP2 SWAP1 PUSH2 0x749 JUMP JUMPDEST PUSH1 0x40 MLOAD PUSH1 0x20 DUP2 DUP4 SUB SUB DUP2 MSTORE SWAP1 PUSH1 0x40 MSTORE DUP1 MLOAD SWAP1 PUSH1 0x20 ADD KECCAK256 PUSH1 0x0 SHR PUSH2 0x1C7 SWAP2 SWAP1 PUSH2 0x7B5 JUMP JUMPDEST SWAP1 POP SWAP1 JUMP JUMPDEST PUSH1 0x60 PUSH1 0x0 DUP3 EQ ISZERO PUSH2 0x214 JUMPI PUSH1 0x40 MLOAD DUP1 PUSH1 0x40 ADD PUSH1 0x40 MSTORE DUP1 PUSH1 0x1 DUP2 MSTORE PUSH1 0x20 ADD PUSH32 0x3000000000000000000000000000000000000000000000000000000000000000 DUP2 MSTORE POP SWAP1 POP PUSH2 0x328 JUMP JUMPDEST PUSH1 0x0 DUP3 SWAP1 POP PUSH1 0x0 JUMPDEST PUSH1 0x0 DUP3 EQ PUSH2 0x246 JUMPI DUP1 DUP1 PUSH2 0x22F SWAP1 PUSH2 0x665 JUMP JUMPDEST SWAP2 POP POP PUSH1 0xA DUP3 PUSH2 0x23F SWAP2 SWAP1 PUSH2 0x7E6 JUMP JUMPDEST SWAP2 POP PUSH2 0x21C JUMP JUMPDEST PUSH1 0x0 DUP2 PUSH8 0xFFFFFFFFFFFFFFFF DUP2 GT ISZERO PUSH2 0x262 JUMPI PUSH2 0x261 PUSH2 0x817 JUMP JUMPDEST JUMPDEST PUSH1 0x40 MLOAD SWAP1 DUP1 DUP3 MSTORE DUP1 PUSH1 0x1F ADD PUSH1 0x1F NOT AND PUSH1 0x20 ADD DUP3 ADD PUSH1 0x40 MSTORE DUP1 ISZERO PUSH2 0x294 JUMPI DUP2 PUSH1 0x20 ADD PUSH1 0x1 DUP3 MUL DUP1 CALLDATASIZE DUP4 CALLDATACOPY DUP1 DUP3 ADD SWAP2 POP POP SWAP1 POP JUMPDEST POP SWAP1 POP JUMPDEST PUSH1 0x0 DUP6 EQ PUSH2 0x321 JUMPI PUSH1 0x1 DUP3 PUSH2 0x2AD SWAP2 SWAP1 PUSH2 0x846 JUMP JUMPDEST SWAP2 POP PUSH1 0xA DUP6 PUSH2 0x2BC SWAP2 SWAP1 PUSH2 0x7B5 JUMP JUMPDEST PUSH1 0x30 PUSH2 0x2C8 SWAP2 SWAP1 PUSH2 0x53B JUMP JUMPDEST PUSH1 0xF8 SHL DUP2 DUP4 DUP2 MLOAD DUP2 LT PUSH2 0x2DE JUMPI PUSH2 0x2DD PUSH2 0x87A JUMP JUMPDEST JUMPDEST PUSH1 0x20 ADD ADD SWAP1 PUSH31 0xFFFFFFFFFFFFFFFFFFFFFFFFFFFFFFFFFFFFFFFFFFFFFFFFFFFFFFFFFFFFFF NOT AND SWAP1 DUP2 PUSH1 0x0 BYTE SWAP1 MSTORE8 POP PUSH1 0xA DUP6 PUSH2 0x31A SWAP2 SWAP1 PUSH2 0x7E6 JUMP JUMPDEST SWAP5 POP PUSH2 0x298 JUMP JUMPDEST DUP1 SWAP4 POP POP POP POP JUMPDEST SWAP2 SWAP1 POP JUMP JUMPDEST PUSH1 0x0 DUP1 REVERT JUMPDEST PUSH1 0x0 DUP2 SWAP1 POP SWAP2 SWAP1 POP JUMP JUMPDEST PUSH2 0x345 DUP2 PUSH2 0x332 JUMP JUMPDEST DUP2 EQ PUSH2 0x350 JUMPI PUSH1 0x0 DUP1 REVERT JUMPDEST POP JUMP JUMPDEST PUSH1 0x0 DUP2 CALLDATALOAD SWAP1 POP PUSH2 0x362 DUP2 PUSH2 0x33C JUMP JUMPDEST SWAP3 SWAP2 POP POP JUMP JUMPDEST PUSH1 0x0 PUSH1 0x20 DUP3 DUP5 SUB SLT ISZERO PUSH2 0x37E JUMPI PUSH2 0x37D PUSH2 0x32D JUMP JUMPDEST JUMPDEST PUSH1 0x0 PUSH2 0x38C DUP5 DUP3 DUP6 ADD PUSH2 0x353 JUMP JUMPDEST SWAP2 POP POP SWAP3 SWAP2 POP POP JUMP JUMPDEST PUSH1 0x0 DUP2 MLOAD SWAP1 POP SWAP2 SWAP1 POP JUMP JUMPDEST PUSH1 0x0 DUP3 DUP3 MSTORE PUSH1 0x20 DUP3 ADD SWAP1 POP SWAP3 SWAP2 POP POP JUMP JUMPDEST PUSH1 0x0 JUMPDEST DUP4 DUP2 LT ISZERO PUSH2 0x3CF JUMPI DUP1 DUP3 ADD MLOAD DUP2 DUP5 ADD MSTORE PUSH1 0x20 DUP2 ADD SWAP1 POP PUSH2 0x3B4 JUMP JUMPDEST DUP4 DUP2 GT ISZERO PUSH2 0x3DE JUMPI PUSH1 0x0 DUP5 DUP5 ADD MSTORE JUMPDEST POP POP POP POP JUMP JUMPDEST PUSH1 0x0 PUSH1 0x1F NOT PUSH1 0x1F DUP4 ADD AND SWAP1 POP SWAP2 SWAP1 POP JUMP JUMPDEST PUSH1 0x0 PUSH2 0x400 DUP3 PUSH2 0x395 JUMP JUMPDEST PUSH2 0x40A DUP2 DUP6 PUSH2 0x3A0 JUMP JUMPDEST SWAP4 POP PUSH2 0x41A DUP2 DUP6 PUSH1 0x20 DUP7 ADD PUSH2 0x3B1 JUMP JUMPDEST PUSH2 0x423 DUP2 PUSH2 0x3E4 JUMP JUMPDEST DUP5 ADD SWAP2 POP POP SWAP3 SWAP2 POP POP JUMP JUMPDEST PUSH1 0x0 PUSH1 0x20 DUP3 ADD SWAP1 POP DUP2 DUP2 SUB PUSH1 0x0 DUP4 ADD MSTORE PUSH2 0x448 DUP2 DUP5 PUSH2 0x3F5 JUMP JUMPDEST SWAP1 POP SWAP3 SWAP2 POP POP JUMP JUMPDEST PUSH2 0x459 DUP2 PUSH2 0x332 JUMP JUMPDEST DUP3 MSTORE POP POP JUMP JUMPDEST PUSH1 0x0 PUSH1 0x20 DUP3 ADD SWAP1 POP PUSH2 0x474 PUSH1 0x0 DUP4 ADD DUP5 PUSH2 0x450 JUMP JUMPDEST SWAP3 SWAP2 POP POP JUMP JUMPDEST PUSH32 0x4769766520612076616C6964206E756D626572206265747765656E203120616E PUSH1 0x0 DUP3 ADD MSTORE PUSH32 0x6420360000000000000000000000000000000000000000000000000000000000 PUSH1 0x20 DUP3 ADD MSTORE POP JUMP JUMPDEST PUSH1 0x0 PUSH2 0x4D6 PUSH1 0x23 DUP4 PUSH2 0x3A0 JUMP JUMPDEST SWAP2 POP PUSH2 0x4E1 DUP3 PUSH2 0x47A JUMP JUMPDEST PUSH1 0x40 DUP3 ADD SWAP1 POP SWAP2 SWAP1 POP JUMP JUMPDEST PUSH1 0x0 PUSH1 0x20 DUP3 ADD SWAP1 POP DUP2 DUP2 SUB PUSH1 0x0 DUP4 ADD MSTORE PUSH2 0x505 DUP2 PUSH2 0x4C9 JUMP JUMPDEST SWAP1 POP SWAP2 SWAP1 POP JUMP JUMPDEST PUSH32 0x4E487B7100000000000000000000000000000000000000000000000000000000 PUSH1 0x0 MSTORE PUSH1 0x11 PUSH1 0x4 MSTORE PUSH1 0x24 PUSH1 0x0 REVERT JUMPDEST PUSH1 0x0 PUSH2 0x546 DUP3 PUSH2 0x332 JUMP JUMPDEST SWAP2 POP PUSH2 0x551 DUP4 PUSH2 0x332 JUMP JUMPDEST SWAP3 POP DUP3 PUSH32 0xFFFFFFFFFFFFFFFFFFFFFFFFFFFFFFFFFFFFFFFFFFFFFFFFFFFFFFFFFFFFFFFF SUB DUP3 GT ISZERO PUSH2 0x586 JUMPI PUSH2 0x585 PUSH2 0x50C JUMP JUMPDEST JUMPDEST DUP3 DUP3 ADD SWAP1 POP SWAP3 SWAP2 POP POP JUMP JUMPDEST PUSH1 0x0 DUP2 SWAP1 POP SWAP3 SWAP2 POP POP JUMP JUMPDEST PUSH1 0x0 PUSH2 0x5A7 DUP3 PUSH2 0x395 JUMP JUMPDEST PUSH2 0x5B1 DUP2 DUP6 PUSH2 0x591 JUMP JUMPDEST SWAP4 POP PUSH2 0x5C1 DUP2 DUP6 PUSH1 0x20 DUP7 ADD PUSH2 0x3B1 JUMP JUMPDEST DUP1 DUP5 ADD SWAP2 POP POP SWAP3 SWAP2 POP POP JUMP JUMPDEST PUSH32 0x2052554E53000000000000000000000000000000000000000000000000000000 DUP2 MSTORE POP JUMP JUMPDEST PUSH1 0x0 PUSH2 0x5FF DUP3 DUP5 PUSH2 0x59C JUMP JUMPDEST SWAP2 POP PUSH2 0x60A DUP3 PUSH2 0x5CD JUMP JUMPDEST PUSH1 0x5 DUP3 ADD SWAP2 POP DUP2 SWAP1 POP SWAP3 SWAP2 POP POP JUMP JUMPDEST PUSH32 0x204F555400000000000000000000000000000000000000000000000000000000 DUP2 MSTORE POP JUMP JUMPDEST PUSH1 0x0 PUSH2 0x64B DUP3 DUP5 PUSH2 0x59C JUMP JUMPDEST SWAP2 POP PUSH2 0x656 DUP3 PUSH2 0x619 JUMP JUMPDEST PUSH1 0x4 DUP3 ADD SWAP2 POP DUP2 SWAP1 POP SWAP3 SWAP2 POP POP JUMP JUMPDEST PUSH1 0x0 PUSH2 0x670 DUP3 PUSH2 0x332 JUMP JUMPDEST SWAP2 POP PUSH32 0xFFFFFFFFFFFFFFFFFFFFFFFFFFFFFFFFFFFFFFFFFFFFFFFFFFFFFFFFFFFFFFFF DUP3 EQ ISZERO PUSH2 0x6A3 JUMPI PUSH2 0x6A2 PUSH2 0x50C JUMP JUMPDEST JUMPDEST PUSH1 0x1 DUP3 ADD SWAP1 POP SWAP2 SWAP1 POP JUMP JUMPDEST PUSH1 0x0 DUP2 SWAP1 POP SWAP2 SWAP1 POP JUMP JUMPDEST PUSH2 0x6C9 PUSH2 0x6C4 DUP3 PUSH2 0x332 JUMP JUMPDEST PUSH2 0x6AE JUMP JUMPDEST DUP3 MSTORE POP POP JUMP JUMPDEST PUSH1 0x0 PUSH20 0xFFFFFFFFFFFFFFFFFFFFFFFFFFFFFFFFFFFFFFFF DUP3 AND SWAP1 POP SWAP2 SWAP1 POP JUMP JUMPDEST PUSH1 0x0 PUSH2 0x6FA DUP3 PUSH2 0x6CF JUMP JUMPDEST SWAP1 POP SWAP2 SWAP1 POP JUMP JUMPDEST PUSH1 0x0 DUP2 PUSH1 0x60 SHL SWAP1 POP SWAP2 SWAP1 POP JUMP JUMPDEST PUSH1 0x0 PUSH2 0x719 DUP3 PUSH2 0x701 JUMP JUMPDEST SWAP1 POP SWAP2 SWAP1 POP JUMP JUMPDEST PUSH1 0x0 PUSH2 0x72B DUP3 PUSH2 0x70E JUMP JUMPDEST SWAP1 POP SWAP2 SWAP1 POP JUMP JUMPDEST PUSH2 0x743 PUSH2 0x73E DUP3 PUSH2 0x6EF JUMP JUMPDEST PUSH2 0x720 JUMP JUMPDEST DUP3 MSTORE POP POP JUMP JUMPDEST PUSH1 0x0 PUSH2 0x755 DUP3 DUP7 PUSH2 0x6B8 JUMP JUMPDEST PUSH1 0x20 DUP3 ADD SWAP2 POP PUSH2 0x765 DUP3 DUP6 PUSH2 0x732 JUMP JUMPDEST PUSH1 0x14 DUP3 ADD SWAP2 POP PUSH2 0x775 DUP3 DUP5 PUSH2 0x6B8 JUMP JUMPDEST PUSH1 0x20 DUP3 ADD SWAP2 POP DUP2 SWAP1 POP SWAP5 SWAP4 POP POP POP POP JUMP JUMPDEST PUSH32 0x4E487B7100000000000000000000000000000000000000000000000000000000 PUSH1 0x0 MSTORE PUSH1 0x12 PUSH1 0x4 MSTORE PUSH1 0x24 PUSH1 0x0 REVERT JUMPDEST PUSH1 0x0 PUSH2 0x7C0 DUP3 PUSH2 0x332 JUMP JUMPDEST SWAP2 POP PUSH2 0x7CB DUP4 PUSH2 0x332 JUMP JUMPDEST SWAP3 POP DUP3 PUSH2 0x7DB JUMPI PUSH2 0x7DA PUSH2 0x786 JUMP JUMPDEST JUMPDEST DUP3 DUP3 MOD SWAP1 POP SWAP3 SWAP2 POP POP JUMP JUMPDEST PUSH1 0x0 PUSH2 0x7F1 DUP3 PUSH2 0x332 JUMP JUMPDEST SWAP2 POP PUSH2 0x7FC DUP4 PUSH2 0x332 JUMP JUMPDEST SWAP3 POP DUP3 PUSH2 0x80C JUMPI PUSH2 0x80B PUSH2 0x786 JUMP JUMPDEST JUMPDEST DUP3 DUP3 DIV SWAP1 POP SWAP3 SWAP2 POP POP JUMP JUMPDEST PUSH32 0x4E487B7100000000000000000000000000000000000000000000000000000000 PUSH1 0x0 MSTORE PUSH1 0x41 PUSH1 0x4 MSTORE PUSH1 0x24 PUSH1 0x0 REVERT JUMPDEST PUSH1 0x0 PUSH2 0x851 DUP3 PUSH2 0x332 JUMP JUMPDEST SWAP2 POP PUSH2 0x85C DUP4 PUSH2 0x332 JUMP JUMPDEST SWAP3 POP DUP3 DUP3 LT ISZERO PUSH2 0x86F JUMPI PUSH2 0x86E PUSH2 0x50C JUMP JUMPDEST JUMPDEST DUP3 DUP3 SUB SWAP1 POP SWAP3 SWAP2 POP POP JUMP JUMPDEST PUSH32 0x4E487B7100000000000000000000000000000000000000000000000000000000 PUSH1 0x0 MSTORE PUSH1 0x32 PUSH1 0x4 MSTORE PUSH1 0x24 PUSH1 0x0 REVERT INVALID LOG2 PUSH5 0x6970667358 0x22 SLT KECCAK256 SAR DUP14 DUP14 0xF6 SAR DUP16 MSIZE DUP14 0xB0 AND PUSH8 0xB619FCB8801296F6 LOG1 0xD7 0xD2 STOP 0x5E 0xDC DUP14 0xB5 0x28 0xF9 MLOAD EQ 0xD7 PUSH5 0x736F6C6343 STOP ADDMOD 0xC STOP CALLER "
				},
				"gasEstimates": {
					"creation": {
						"codeDepositCost": "454200",
						"executionCost": "5492",
						"totalCost": "459692"
					},
					"external": {
						"check(uint256)": "infinite",
						"score()": "2429"
					},
					"internal": {
						"random()": "infinite"
					}
				},
				"methodIdentifiers": {
					"check(uint256)": "5f72f450",
					"score()": "efedc669"
				}
			},
			"storageLayout": {
				"storage": [
					{
						"astId": 230,
						"contract": "Contracts.sol:oeGame",
						"label": "num",
						"offset": 0,
						"slot": "0",
						"type": "t_uint256"
					},
					{
						"astId": 232,
						"contract": "Contracts.sol:oeGame",
						"label": "score",
						"offset": 0,
						"slot": "1",
						"type": "t_uint256"
					},
					{
						"astId": 235,
						"contract": "Contracts.sol:oeGame",
						"label": "randNonce",
						"offset": 0,
						"slot": "2",
						"type": "t_uint256"
					}
				],
				"types": {
					"t_uint256": {
						"encoding": "inplace",
						"label": "uint256",
						"numberOfBytes": "32"
					}
				}
			},
			"userdoc": {
				"kind": "user",
				"methods": {},
				"version": 1
			}
		}
	}
}