{
	"Contracts.sol": {
		"oeGame": {
			"abi": [
				{
					"inputs": [
						{
							"internalType": "uint256",
							"name": "_num",
							"type": "uint256"
						}
					],
					"name": "check",
					"outputs": [
						{
							"internalType": "string",
							"name": "",
							"type": "string"
						}
					],
					"stateMutability": "nonpayable",
					"type": "function"
				}
			],
			"devdoc": {
				"kind": "dev",
				"methods": {},
				"version": 1
			},
			"evm": {
				"assembly": "    /* \"Contracts.sol\":109:698  contract oeGame{... */\n  mstore(0x40, 0x80)\n    /* \"Contracts.sol\":191:192  0 */\n  0x00\n    /* \"Contracts.sol\":171:192  uint256 randNonce = 0 */\n  0x02\n  sstore\n    /* \"Contracts.sol\":109:698  contract oeGame{... */\n  callvalue\n  dup1\n  iszero\n  tag_1\n  jumpi\n  0x00\n  dup1\n  revert\ntag_1:\n  pop\n  dataSize(sub_0)\n  dup1\n  dataOffset(sub_0)\n  0x00\n  codecopy\n  0x00\n  return\nstop\n\nsub_0: assembly {\n        /* \"Contracts.sol\":109:698  contract oeGame{... */\n      mstore(0x40, 0x80)\n      callvalue\n      dup1\n      iszero\n      tag_1\n      jumpi\n      0x00\n      dup1\n      revert\n    tag_1:\n      pop\n      jumpi(tag_2, lt(calldatasize, 0x04))\n      shr(0xe0, calldataload(0x00))\n      dup1\n      0x5f72f450\n      eq\n      tag_3\n      jumpi\n    tag_2:\n      0x00\n      dup1\n      revert\n        /* \"Contracts.sol\":368:696  function check(uint256 _num) public returns(string memory) {... */\n    tag_3:\n      tag_4\n      0x04\n      dup1\n      calldatasize\n      sub\n      dup2\n      add\n      swap1\n      tag_5\n      swap2\n      swap1\n      tag_6\n      jump\t// in\n    tag_5:\n      tag_7\n      jump\t// in\n    tag_4:\n      mload(0x40)\n      tag_8\n      swap2\n      swap1\n      tag_9\n      jump\t// in\n    tag_8:\n      mload(0x40)\n      dup1\n      swap2\n      sub\n      swap1\n      return\n    tag_7:\n        /* \"Contracts.sol\":412:425  string memory */\n      0x60\n        /* \"Contracts.sol\":452:453  1 */\n      0x01\n        /* \"Contracts.sol\":445:449  _num */\n      dup3\n        /* \"Contracts.sol\":445:453  _num >=1 */\n      lt\n      iszero\n        /* \"Contracts.sol\":445:466  _num >=1 && _num <= 6 */\n      dup1\n      iszero\n      tag_11\n      jumpi\n      pop\n        /* \"Contracts.sol\":465:466  6 */\n      0x06\n        /* \"Contracts.sol\":457:461  _num */\n      dup3\n        /* \"Contracts.sol\":457:466  _num <= 6 */\n      gt\n      iszero\n        /* \"Contracts.sol\":445:466  _num >=1 && _num <= 6 */\n    tag_11:\n        /* \"Contracts.sol\":437:506  require(_num >=1 && _num <= 6, \"Give a valid number between 1 and 6\") */\n      tag_12\n      jumpi\n      mload(0x40)\n      0x08c379a000000000000000000000000000000000000000000000000000000000\n      dup2\n      mstore\n      0x04\n      add\n      tag_13\n      swap1\n      tag_14\n      jump\t// in\n    tag_13:\n      mload(0x40)\n      dup1\n      swap2\n      sub\n      swap1\n      revert\n    tag_12:\n        /* \"Contracts.sol\":517:537  uint256 randomNumber */\n      0x00\n        /* \"Contracts.sol\":540:541  1 */\n      0x01\n        /* \"Contracts.sol\":517:541  uint256 randomNumber = 1 */\n      swap1\n      pop\n        /* \"Contracts.sol\":563:575  randomNumber */\n      dup1\n        /* \"Contracts.sol\":555:559  _num */\n      dup4\n        /* \"Contracts.sol\":555:575  _num != randomNumber */\n      eq\n        /* \"Contracts.sol\":552:690  if(_num != randomNumber){... */\n      tag_15\n      jumpi\n        /* \"Contracts.sol\":599:611  randomNumber */\n      dup1\n        /* \"Contracts.sol\":590:595  score */\n      0x01\n      0x00\n        /* \"Contracts.sol\":590:611  score += randomNumber */\n      dup3\n      dup3\n      sload\n      tag_16\n      swap2\n      swap1\n      tag_17\n      jump\t// in\n    tag_16:\n      swap3\n      pop\n      pop\n      dup2\n      swap1\n      sstore\n      pop\n        /* \"Contracts.sol\":625:638  return \"RUNS\" */\n      mload(0x40)\n      dup1\n      0x40\n      add\n      0x40\n      mstore\n      dup1\n      0x04\n      dup2\n      mstore\n      0x20\n      add\n      0x52554e5300000000000000000000000000000000000000000000000000000000\n      dup2\n      mstore\n      pop\n      swap2\n      pop\n      pop\n      jump(tag_10)\n        /* \"Contracts.sol\":552:690  if(_num != randomNumber){... */\n    tag_15:\n        /* \"Contracts.sol\":667:679  return \"OUT\" */\n      mload(0x40)\n      dup1\n      0x40\n      add\n      0x40\n      mstore\n      dup1\n      0x03\n      dup2\n      mstore\n      0x20\n      add\n      0x4f55540000000000000000000000000000000000000000000000000000000000\n      dup2\n      mstore\n      pop\n      swap2\n      pop\n      pop\n        /* \"Contracts.sol\":368:696  function check(uint256 _num) public returns(string memory) {... */\n    tag_10:\n      swap2\n      swap1\n      pop\n      jump\t// out\n        /* \"#utility.yul\":7:146   */\n    tag_20:\n        /* \"#utility.yul\":53:58   */\n      0x00\n        /* \"#utility.yul\":91:97   */\n      dup2\n        /* \"#utility.yul\":78:98   */\n      calldataload\n        /* \"#utility.yul\":69:98   */\n      swap1\n      pop\n        /* \"#utility.yul\":107:140   */\n      tag_22\n        /* \"#utility.yul\":134:139   */\n      dup2\n        /* \"#utility.yul\":107:140   */\n      tag_23\n      jump\t// in\n    tag_22:\n        /* \"#utility.yul\":7:146   */\n      swap3\n      swap2\n      pop\n      pop\n      jump\t// out\n        /* \"#utility.yul\":152:481   */\n    tag_6:\n        /* \"#utility.yul\":211:217   */\n      0x00\n        /* \"#utility.yul\":260:262   */\n      0x20\n        /* \"#utility.yul\":248:257   */\n      dup3\n        /* \"#utility.yul\":239:246   */\n      dup5\n        /* \"#utility.yul\":235:258   */\n      sub\n        /* \"#utility.yul\":231:263   */\n      slt\n        /* \"#utility.yul\":228:347   */\n      iszero\n      tag_25\n      jumpi\n        /* \"#utility.yul\":266:345   */\n      tag_26\n      tag_27\n      jump\t// in\n    tag_26:\n        /* \"#utility.yul\":228:347   */\n    tag_25:\n        /* \"#utility.yul\":386:387   */\n      0x00\n        /* \"#utility.yul\":411:464   */\n      tag_28\n        /* \"#utility.yul\":456:463   */\n      dup5\n        /* \"#utility.yul\":447:453   */\n      dup3\n        /* \"#utility.yul\":436:445   */\n      dup6\n        /* \"#utility.yul\":432:454   */\n      add\n        /* \"#utility.yul\":411:464   */\n      tag_20\n      jump\t// in\n    tag_28:\n        /* \"#utility.yul\":401:464   */\n      swap2\n      pop\n        /* \"#utility.yul\":357:474   */\n      pop\n        /* \"#utility.yul\":152:481   */\n      swap3\n      swap2\n      pop\n      pop\n      jump\t// out\n        /* \"#utility.yul\":487:851   */\n    tag_29:\n        /* \"#utility.yul\":575:578   */\n      0x00\n        /* \"#utility.yul\":603:642   */\n      tag_31\n        /* \"#utility.yul\":636:641   */\n      dup3\n        /* \"#utility.yul\":603:642   */\n      tag_32\n      jump\t// in\n    tag_31:\n        /* \"#utility.yul\":658:729   */\n      tag_33\n        /* \"#utility.yul\":722:728   */\n      dup2\n        /* \"#utility.yul\":717:720   */\n      dup6\n        /* \"#utility.yul\":658:729   */\n      tag_34\n      jump\t// in\n    tag_33:\n        /* \"#utility.yul\":651:729   */\n      swap4\n      pop\n        /* \"#utility.yul\":738:790   */\n      tag_35\n        /* \"#utility.yul\":783:789   */\n      dup2\n        /* \"#utility.yul\":778:781   */\n      dup6\n        /* \"#utility.yul\":771:775   */\n      0x20\n        /* \"#utility.yul\":764:769   */\n      dup7\n        /* \"#utility.yul\":760:776   */\n      add\n        /* \"#utility.yul\":738:790   */\n      tag_36\n      jump\t// in\n    tag_35:\n        /* \"#utility.yul\":815:844   */\n      tag_37\n        /* \"#utility.yul\":837:843   */\n      dup2\n        /* \"#utility.yul\":815:844   */\n      tag_38\n      jump\t// in\n    tag_37:\n        /* \"#utility.yul\":810:813   */\n      dup5\n        /* \"#utility.yul\":806:845   */\n      add\n        /* \"#utility.yul\":799:845   */\n      swap2\n      pop\n        /* \"#utility.yul\":579:851   */\n      pop\n        /* \"#utility.yul\":487:851   */\n      swap3\n      swap2\n      pop\n      pop\n      jump\t// out\n        /* \"#utility.yul\":857:1223   */\n    tag_39:\n        /* \"#utility.yul\":999:1002   */\n      0x00\n        /* \"#utility.yul\":1020:1087   */\n      tag_41\n        /* \"#utility.yul\":1084:1086   */\n      0x23\n        /* \"#utility.yul\":1079:1082   */\n      dup4\n        /* \"#utility.yul\":1020:1087   */\n      tag_34\n      jump\t// in\n    tag_41:\n        /* \"#utility.yul\":1013:1087   */\n      swap2\n      pop\n        /* \"#utility.yul\":1096:1189   */\n      tag_42\n        /* \"#utility.yul\":1185:1188   */\n      dup3\n        /* \"#utility.yul\":1096:1189   */\n      tag_43\n      jump\t// in\n    tag_42:\n        /* \"#utility.yul\":1214:1216   */\n      0x40\n        /* \"#utility.yul\":1209:1212   */\n      dup3\n        /* \"#utility.yul\":1205:1217   */\n      add\n        /* \"#utility.yul\":1198:1217   */\n      swap1\n      pop\n        /* \"#utility.yul\":857:1223   */\n      swap2\n      swap1\n      pop\n      jump\t// out\n        /* \"#utility.yul\":1229:1542   */\n    tag_9:\n        /* \"#utility.yul\":1342:1346   */\n      0x00\n        /* \"#utility.yul\":1380:1382   */\n      0x20\n        /* \"#utility.yul\":1369:1378   */\n      dup3\n        /* \"#utility.yul\":1365:1383   */\n      add\n        /* \"#utility.yul\":1357:1383   */\n      swap1\n      pop\n        /* \"#utility.yul\":1429:1438   */\n      dup2\n        /* \"#utility.yul\":1423:1427   */\n      dup2\n        /* \"#utility.yul\":1419:1439   */\n      sub\n        /* \"#utility.yul\":1415:1416   */\n      0x00\n        /* \"#utility.yul\":1404:1413   */\n      dup4\n        /* \"#utility.yul\":1400:1417   */\n      add\n        /* \"#utility.yul\":1393:1440   */\n      mstore\n        /* \"#utility.yul\":1457:1535   */\n      tag_45\n        /* \"#utility.yul\":1530:1534   */\n      dup2\n        /* \"#utility.yul\":1521:1527   */\n      dup5\n        /* \"#utility.yul\":1457:1535   */\n      tag_29\n      jump\t// in\n    tag_45:\n        /* \"#utility.yul\":1449:1535   */\n      swap1\n      pop\n        /* \"#utility.yul\":1229:1542   */\n      swap3\n      swap2\n      pop\n      pop\n      jump\t// out\n        /* \"#utility.yul\":1548:1967   */\n    tag_14:\n        /* \"#utility.yul\":1714:1718   */\n      0x00\n        /* \"#utility.yul\":1752:1754   */\n      0x20\n        /* \"#utility.yul\":1741:1750   */\n      dup3\n        /* \"#utility.yul\":1737:1755   */\n      add\n        /* \"#utility.yul\":1729:1755   */\n      swap1\n      pop\n        /* \"#utility.yul\":1801:1810   */\n      dup2\n        /* \"#utility.yul\":1795:1799   */\n      dup2\n        /* \"#utility.yul\":1791:1811   */\n      sub\n        /* \"#utility.yul\":1787:1788   */\n      0x00\n        /* \"#utility.yul\":1776:1785   */\n      dup4\n        /* \"#utility.yul\":1772:1789   */\n      add\n        /* \"#utility.yul\":1765:1812   */\n      mstore\n        /* \"#utility.yul\":1829:1960   */\n      tag_47\n        /* \"#utility.yul\":1955:1959   */\n      dup2\n        /* \"#utility.yul\":1829:1960   */\n      tag_39\n      jump\t// in\n    tag_47:\n        /* \"#utility.yul\":1821:1960   */\n      swap1\n      pop\n        /* \"#utility.yul\":1548:1967   */\n      swap2\n      swap1\n      pop\n      jump\t// out\n        /* \"#utility.yul\":2054:2153   */\n    tag_32:\n        /* \"#utility.yul\":2106:2112   */\n      0x00\n        /* \"#utility.yul\":2140:2145   */\n      dup2\n        /* \"#utility.yul\":2134:2146   */\n      mload\n        /* \"#utility.yul\":2124:2146   */\n      swap1\n      pop\n        /* \"#utility.yul\":2054:2153   */\n      swap2\n      swap1\n      pop\n      jump\t// out\n        /* \"#utility.yul\":2159:2328   */\n    tag_34:\n        /* \"#utility.yul\":2243:2254   */\n      0x00\n        /* \"#utility.yul\":2277:2283   */\n      dup3\n        /* \"#utility.yul\":2272:2275   */\n      dup3\n        /* \"#utility.yul\":2265:2284   */\n      mstore\n        /* \"#utility.yul\":2317:2321   */\n      0x20\n        /* \"#utility.yul\":2312:2315   */\n      dup3\n        /* \"#utility.yul\":2308:2322   */\n      add\n        /* \"#utility.yul\":2293:2322   */\n      swap1\n      pop\n        /* \"#utility.yul\":2159:2328   */\n      swap3\n      swap2\n      pop\n      pop\n      jump\t// out\n        /* \"#utility.yul\":2334:2639   */\n    tag_17:\n        /* \"#utility.yul\":2374:2377   */\n      0x00\n        /* \"#utility.yul\":2393:2413   */\n      tag_53\n        /* \"#utility.yul\":2411:2412   */\n      dup3\n        /* \"#utility.yul\":2393:2413   */\n      tag_54\n      jump\t// in\n    tag_53:\n        /* \"#utility.yul\":2388:2413   */\n      swap2\n      pop\n        /* \"#utility.yul\":2427:2447   */\n      tag_55\n        /* \"#utility.yul\":2445:2446   */\n      dup4\n        /* \"#utility.yul\":2427:2447   */\n      tag_54\n      jump\t// in\n    tag_55:\n        /* \"#utility.yul\":2422:2447   */\n      swap3\n      pop\n        /* \"#utility.yul\":2581:2582   */\n      dup3\n        /* \"#utility.yul\":2513:2579   */\n      0xffffffffffffffffffffffffffffffffffffffffffffffffffffffffffffffff\n        /* \"#utility.yul\":2509:2583   */\n      sub\n        /* \"#utility.yul\":2506:2507   */\n      dup3\n        /* \"#utility.yul\":2503:2584   */\n      gt\n        /* \"#utility.yul\":2500:2607   */\n      iszero\n      tag_56\n      jumpi\n        /* \"#utility.yul\":2587:2605   */\n      tag_57\n      tag_58\n      jump\t// in\n    tag_57:\n        /* \"#utility.yul\":2500:2607   */\n    tag_56:\n        /* \"#utility.yul\":2631:2632   */\n      dup3\n        /* \"#utility.yul\":2628:2629   */\n      dup3\n        /* \"#utility.yul\":2624:2633   */\n      add\n        /* \"#utility.yul\":2617:2633   */\n      swap1\n      pop\n        /* \"#utility.yul\":2334:2639   */\n      swap3\n      swap2\n      pop\n      pop\n      jump\t// out\n        /* \"#utility.yul\":2645:2722   */\n    tag_54:\n        /* \"#utility.yul\":2682:2689   */\n      0x00\n        /* \"#utility.yul\":2711:2716   */\n      dup2\n        /* \"#utility.yul\":2700:2716   */\n      swap1\n      pop\n        /* \"#utility.yul\":2645:2722   */\n      swap2\n      swap1\n      pop\n      jump\t// out\n        /* \"#utility.yul\":2728:3035   */\n    tag_36:\n        /* \"#utility.yul\":2796:2797   */\n      0x00\n        /* \"#utility.yul\":2806:2919   */\n    tag_61:\n        /* \"#utility.yul\":2820:2826   */\n      dup4\n        /* \"#utility.yul\":2817:2818   */\n      dup2\n        /* \"#utility.yul\":2814:2827   */\n      lt\n        /* \"#utility.yul\":2806:2919   */\n      iszero\n      tag_63\n      jumpi\n        /* \"#utility.yul\":2905:2906   */\n      dup1\n        /* \"#utility.yul\":2900:2903   */\n      dup3\n        /* \"#utility.yul\":2896:2907   */\n      add\n        /* \"#utility.yul\":2890:2908   */\n      mload\n        /* \"#utility.yul\":2886:2887   */\n      dup2\n        /* \"#utility.yul\":2881:2884   */\n      dup5\n        /* \"#utility.yul\":2877:2888   */\n      add\n        /* \"#utility.yul\":2870:2909   */\n      mstore\n        /* \"#utility.yul\":2842:2844   */\n      0x20\n        /* \"#utility.yul\":2839:2840   */\n      dup2\n        /* \"#utility.yul\":2835:2845   */\n      add\n        /* \"#utility.yul\":2830:2845   */\n      swap1\n      pop\n        /* \"#utility.yul\":2806:2919   */\n      jump(tag_61)\n    tag_63:\n        /* \"#utility.yul\":2937:2943   */\n      dup4\n        /* \"#utility.yul\":2934:2935   */\n      dup2\n        /* \"#utility.yul\":2931:2944   */\n      gt\n        /* \"#utility.yul\":2928:3029   */\n      iszero\n      tag_64\n      jumpi\n        /* \"#utility.yul\":3017:3018   */\n      0x00\n        /* \"#utility.yul\":3008:3014   */\n      dup5\n        /* \"#utility.yul\":3003:3006   */\n      dup5\n        /* \"#utility.yul\":2999:3015   */\n      add\n        /* \"#utility.yul\":2992:3019   */\n      mstore\n        /* \"#utility.yul\":2928:3029   */\n    tag_64:\n        /* \"#utility.yul\":2777:3035   */\n      pop\n        /* \"#utility.yul\":2728:3035   */\n      pop\n      pop\n      pop\n      jump\t// out\n        /* \"#utility.yul\":3041:3221   */\n    tag_58:\n        /* \"#utility.yul\":3089:3166   */\n      0x4e487b7100000000000000000000000000000000000000000000000000000000\n        /* \"#utility.yul\":3086:3087   */\n      0x00\n        /* \"#utility.yul\":3079:3167   */\n      mstore\n        /* \"#utility.yul\":3186:3190   */\n      0x11\n        /* \"#utility.yul\":3183:3184   */\n      0x04\n        /* \"#utility.yul\":3176:3191   */\n      mstore\n        /* \"#utility.yul\":3210:3214   */\n      0x24\n        /* \"#utility.yul\":3207:3208   */\n      0x00\n        /* \"#utility.yul\":3200:3215   */\n      revert\n        /* \"#utility.yul\":3350:3467   */\n    tag_27:\n        /* \"#utility.yul\":3459:3460   */\n      0x00\n        /* \"#utility.yul\":3456:3457   */\n      dup1\n        /* \"#utility.yul\":3449:3461   */\n      revert\n        /* \"#utility.yul\":3473:3575   */\n    tag_38:\n        /* \"#utility.yul\":3514:3520   */\n      0x00\n        /* \"#utility.yul\":3565:3567   */\n      0x1f\n        /* \"#utility.yul\":3561:3568   */\n      not\n        /* \"#utility.yul\":3556:3558   */\n      0x1f\n        /* \"#utility.yul\":3549:3554   */\n      dup4\n        /* \"#utility.yul\":3545:3559   */\n      add\n        /* \"#utility.yul\":3541:3569   */\n      and\n        /* \"#utility.yul\":3531:3569   */\n      swap1\n      pop\n        /* \"#utility.yul\":3473:3575   */\n      swap2\n      swap1\n      pop\n      jump\t// out\n        /* \"#utility.yul\":3581:3803   */\n    tag_43:\n        /* \"#utility.yul\":3721:3755   */\n      0x4769766520612076616c6964206e756d626572206265747765656e203120616e\n        /* \"#utility.yul\":3717:3718   */\n      0x00\n        /* \"#utility.yul\":3709:3715   */\n      dup3\n        /* \"#utility.yul\":3705:3719   */\n      add\n        /* \"#utility.yul\":3698:3756   */\n      mstore\n        /* \"#utility.yul\":3790:3795   */\n      0x6420360000000000000000000000000000000000000000000000000000000000\n        /* \"#utility.yul\":3785:3787   */\n      0x20\n        /* \"#utility.yul\":3777:3783   */\n      dup3\n        /* \"#utility.yul\":3773:3788   */\n      add\n        /* \"#utility.yul\":3766:3796   */\n      mstore\n        /* \"#utility.yul\":3581:3803   */\n      pop\n      jump\t// out\n        /* \"#utility.yul\":3809:3931   */\n    tag_23:\n        /* \"#utility.yul\":3882:3906   */\n      tag_72\n        /* \"#utility.yul\":3900:3905   */\n      dup2\n        /* \"#utility.yul\":3882:3906   */\n      tag_54\n      jump\t// in\n    tag_72:\n        /* \"#utility.yul\":3875:3880   */\n      dup2\n        /* \"#utility.yul\":3872:3907   */\n      eq\n        /* \"#utility.yul\":3862:3925   */\n      tag_73\n      jumpi\n        /* \"#utility.yul\":3921:3922   */\n      0x00\n        /* \"#utility.yul\":3918:3919   */\n      dup1\n        /* \"#utility.yul\":3911:3923   */\n      revert\n        /* \"#utility.yul\":3862:3925   */\n    tag_73:\n        /* \"#utility.yul\":3809:3931   */\n      pop\n      jump\t// out\n\n    auxdata: 0xa2646970667358221220a33afc602d87e2d79dd3e1da7dc09fab2e7132f682b14aa8738878ca2fa1a46164736f6c63430008070033\n}\n",
				"bytecode": {
					"linkReferences": {},
					"object": "6080604052600060025534801561001557600080fd5b506103c6806100256000396000f3fe608060405234801561001057600080fd5b506004361061002b5760003560e01c80635f72f45014610030575b600080fd5b61004a6004803603810190610045919061016b565b610060565b60405161005791906101f4565b60405180910390f35b606060018210158015610074575060068211155b6100b3576040517f08c379a00000000000000000000000000000000000000000000000000000000081526004016100aa90610216565b60405180910390fd5b6000600190508083146101175780600160008282546100d29190610252565b925050819055506040518060400160405280600481526020017f52554e5300000000000000000000000000000000000000000000000000000000815250915050610151565b6040518060400160405280600381526020017f4f555400000000000000000000000000000000000000000000000000000000008152509150505b919050565b60008135905061016581610379565b92915050565b60006020828403121561018157610180610314565b5b600061018f84828501610156565b91505092915050565b60006101a382610236565b6101ad8185610241565b93506101bd8185602086016102b2565b6101c681610319565b840191505092915050565b60006101de602383610241565b91506101e98261032a565b604082019050919050565b6000602082019050818103600083015261020e8184610198565b905092915050565b6000602082019050818103600083015261022f816101d1565b9050919050565b600081519050919050565b600082825260208201905092915050565b600061025d826102a8565b9150610268836102a8565b9250827fffffffffffffffffffffffffffffffffffffffffffffffffffffffffffffffff0382111561029d5761029c6102e5565b5b828201905092915050565b6000819050919050565b60005b838110156102d05780820151818401526020810190506102b5565b838111156102df576000848401525b50505050565b7f4e487b7100000000000000000000000000000000000000000000000000000000600052601160045260246000fd5b600080fd5b6000601f19601f8301169050919050565b7f4769766520612076616c6964206e756d626572206265747765656e203120616e60008201527f6420360000000000000000000000000000000000000000000000000000000000602082015250565b610382816102a8565b811461038d57600080fd5b5056fea2646970667358221220a33afc602d87e2d79dd3e1da7dc09fab2e7132f682b14aa8738878ca2fa1a46164736f6c63430008070033",
					"opcodes": "PUSH1 0x80 PUSH1 0x40 MSTORE PUSH1 0x0 PUSH1 0x2 SSTORE CALLVALUE DUP1 ISZERO PUSH2 0x15 JUMPI PUSH1 0x0 DUP1 REVERT JUMPDEST POP PUSH2 0x3C6 DUP1 PUSH2 0x25 PUSH1 0x0 CODECOPY PUSH1 0x0 RETURN INVALID PUSH1 0x80 PUSH1 0x40 MSTORE CALLVALUE DUP1 ISZERO PUSH2 0x10 JUMPI PUSH1 0x0 DUP1 REVERT JUMPDEST POP PUSH1 0x4 CALLDATASIZE LT PUSH2 0x2B JUMPI PUSH1 0x0 CALLDATALOAD PUSH1 0xE0 SHR DUP1 PUSH4 0x5F72F450 EQ PUSH2 0x30 JUMPI JUMPDEST PUSH1 0x0 DUP1 REVERT JUMPDEST PUSH2 0x4A PUSH1 0x4 DUP1 CALLDATASIZE SUB DUP2 ADD SWAP1 PUSH2 0x45 SWAP2 SWAP1 PUSH2 0x16B JUMP JUMPDEST PUSH2 0x60 JUMP JUMPDEST PUSH1 0x40 MLOAD PUSH2 0x57 SWAP2 SWAP1 PUSH2 0x1F4 JUMP JUMPDEST PUSH1 0x40 MLOAD DUP1 SWAP2 SUB SWAP1 RETURN JUMPDEST PUSH1 0x60 PUSH1 0x1 DUP3 LT ISZERO DUP1 ISZERO PUSH2 0x74 JUMPI POP PUSH1 0x6 DUP3 GT ISZERO JUMPDEST PUSH2 0xB3 JUMPI PUSH1 0x40 MLOAD PUSH32 0x8C379A000000000000000000000000000000000000000000000000000000000 DUP2 MSTORE PUSH1 0x4 ADD PUSH2 0xAA SWAP1 PUSH2 0x216 JUMP JUMPDEST PUSH1 0x40 MLOAD DUP1 SWAP2 SUB SWAP1 REVERT JUMPDEST PUSH1 0x0 PUSH1 0x1 SWAP1 POP DUP1 DUP4 EQ PUSH2 0x117 JUMPI DUP1 PUSH1 0x1 PUSH1 0x0 DUP3 DUP3 SLOAD PUSH2 0xD2 SWAP2 SWAP1 PUSH2 0x252 JUMP JUMPDEST SWAP3 POP POP DUP2 SWAP1 SSTORE POP PUSH1 0x40 MLOAD DUP1 PUSH1 0x40 ADD PUSH1 0x40 MSTORE DUP1 PUSH1 0x4 DUP2 MSTORE PUSH1 0x20 ADD PUSH32 0x52554E5300000000000000000000000000000000000000000000000000000000 DUP2 MSTORE POP SWAP2 POP POP PUSH2 0x151 JUMP JUMPDEST PUSH1 0x40 MLOAD DUP1 PUSH1 0x40 ADD PUSH1 0x40 MSTORE DUP1 PUSH1 0x3 DUP2 MSTORE PUSH1 0x20 ADD PUSH32 0x4F55540000000000000000000000000000000000000000000000000000000000 DUP2 MSTORE POP SWAP2 POP POP JUMPDEST SWAP2 SWAP1 POP JUMP JUMPDEST PUSH1 0x0 DUP2 CALLDATALOAD SWAP1 POP PUSH2 0x165 DUP2 PUSH2 0x379 JUMP JUMPDEST SWAP3 SWAP2 POP POP JUMP JUMPDEST PUSH1 0x0 PUSH1 0x20 DUP3 DUP5 SUB SLT ISZERO PUSH2 0x181 JUMPI PUSH2 0x180 PUSH2 0x314 JUMP JUMPDEST JUMPDEST PUSH1 0x0 PUSH2 0x18F DUP5 DUP3 DUP6 ADD PUSH2 0x156 JUMP JUMPDEST SWAP2 POP POP SWAP3 SWAP2 POP POP JUMP JUMPDEST PUSH1 0x0 PUSH2 0x1A3 DUP3 PUSH2 0x236 JUMP JUMPDEST PUSH2 0x1AD DUP2 DUP6 PUSH2 0x241 JUMP JUMPDEST SWAP4 POP PUSH2 0x1BD DUP2 DUP6 PUSH1 0x20 DUP7 ADD PUSH2 0x2B2 JUMP JUMPDEST PUSH2 0x1C6 DUP2 PUSH2 0x319 JUMP JUMPDEST DUP5 ADD SWAP2 POP POP SWAP3 SWAP2 POP POP JUMP JUMPDEST PUSH1 0x0 PUSH2 0x1DE PUSH1 0x23 DUP4 PUSH2 0x241 JUMP JUMPDEST SWAP2 POP PUSH2 0x1E9 DUP3 PUSH2 0x32A JUMP JUMPDEST PUSH1 0x40 DUP3 ADD SWAP1 POP SWAP2 SWAP1 POP JUMP JUMPDEST PUSH1 0x0 PUSH1 0x20 DUP3 ADD SWAP1 POP DUP2 DUP2 SUB PUSH1 0x0 DUP4 ADD MSTORE PUSH2 0x20E DUP2 DUP5 PUSH2 0x198 JUMP JUMPDEST SWAP1 POP SWAP3 SWAP2 POP POP JUMP JUMPDEST PUSH1 0x0 PUSH1 0x20 DUP3 ADD SWAP1 POP DUP2 DUP2 SUB PUSH1 0x0 DUP4 ADD MSTORE PUSH2 0x22F DUP2 PUSH2 0x1D1 JUMP JUMPDEST SWAP1 POP SWAP2 SWAP1 POP JUMP JUMPDEST PUSH1 0x0 DUP2 MLOAD SWAP1 POP SWAP2 SWAP1 POP JUMP JUMPDEST PUSH1 0x0 DUP3 DUP3 MSTORE PUSH1 0x20 DUP3 ADD SWAP1 POP SWAP3 SWAP2 POP POP JUMP JUMPDEST PUSH1 0x0 PUSH2 0x25D DUP3 PUSH2 0x2A8 JUMP JUMPDEST SWAP2 POP PUSH2 0x268 DUP4 PUSH2 0x2A8 JUMP JUMPDEST SWAP3 POP DUP3 PUSH32 0xFFFFFFFFFFFFFFFFFFFFFFFFFFFFFFFFFFFFFFFFFFFFFFFFFFFFFFFFFFFFFFFF SUB DUP3 GT ISZERO PUSH2 0x29D JUMPI PUSH2 0x29C PUSH2 0x2E5 JUMP JUMPDEST JUMPDEST DUP3 DUP3 ADD SWAP1 POP SWAP3 SWAP2 POP POP JUMP JUMPDEST PUSH1 0x0 DUP2 SWAP1 POP SWAP2 SWAP1 POP JUMP JUMPDEST PUSH1 0x0 JUMPDEST DUP4 DUP2 LT ISZERO PUSH2 0x2D0 JUMPI DUP1 DUP3 ADD MLOAD DUP2 DUP5 ADD MSTORE PUSH1 0x20 DUP2 ADD SWAP1 POP PUSH2 0x2B5 JUMP JUMPDEST DUP4 DUP2 GT ISZERO PUSH2 0x2DF JUMPI PUSH1 0x0 DUP5 DUP5 ADD MSTORE JUMPDEST POP POP POP POP JUMP JUMPDEST PUSH32 0x4E487B7100000000000000000000000000000000000000000000000000000000 PUSH1 0x0 MSTORE PUSH1 0x11 PUSH1 0x4 MSTORE PUSH1 0x24 PUSH1 0x0 REVERT JUMPDEST PUSH1 0x0 DUP1 REVERT JUMPDEST PUSH1 0x0 PUSH1 0x1F NOT PUSH1 0x1F DUP4 ADD AND SWAP1 POP SWAP2 SWAP1 POP JUMP JUMPDEST PUSH32 0x4769766520612076616C6964206E756D626572206265747765656E203120616E PUSH1 0x0 DUP3 ADD MSTORE PUSH32 0x6420360000000000000000000000000000000000000000000000000000000000 PUSH1 0x20 DUP3 ADD MSTORE POP JUMP JUMPDEST PUSH2 0x382 DUP2 PUSH2 0x2A8 JUMP JUMPDEST DUP2 EQ PUSH2 0x38D JUMPI PUSH1 0x0 DUP1 REVERT JUMPDEST POP JUMP INVALID LOG2 PUSH5 0x6970667358 0x22 SLT KECCAK256 LOG3 GASPRICE 0xFC PUSH1 0x2D DUP8 0xE2 0xD7 SWAP14 0xD3 0xE1 0xDA PUSH30 0xC09FAB2E7132F682B14AA8738878CA2FA1A46164736F6C63430008070033 "
				},
				"gasEstimates": {
					"creation": {
						"codeDepositCost": "193200",
						"executionCost": "5244",
						"totalCost": "198444"
					},
					"external": {
						"check(uint256)": "infinite"
					},
					"internal": {
						"random()": "infinite"
					}
				},
				"methodIdentifiers": {
					"check(uint256)": "5f72f450"
				}
			},
			"storageLayout": {
				"storage": [
					{
						"astId": 230,
						"contract": "Contracts.sol:oeGame",
						"label": "num",
						"offset": 0,
						"slot": "0",
						"type": "t_uint256"
					},
					{
						"astId": 232,
						"contract": "Contracts.sol:oeGame",
						"label": "score",
						"offset": 0,
						"slot": "1",
						"type": "t_uint256"
					},
					{
						"astId": 235,
						"contract": "Contracts.sol:oeGame",
						"label": "randNonce",
						"offset": 0,
						"slot": "2",
						"type": "t_uint256"
					}
				],
				"types": {
					"t_uint256": {
						"encoding": "inplace",
						"label": "uint256",
						"numberOfBytes": "32"
					}
				}
			},
			"userdoc": {
				"kind": "user",
				"methods": {},
				"version": 1
			}
		}
	}
}