{
	"Contracts.sol": {
		"oeGame": {
			"abi": [
				{
					"inputs": [
						{
							"internalType": "uint256",
							"name": "_num",
							"type": "uint256"
						}
					],
					"name": "check",
					"outputs": [
						{
							"internalType": "string",
							"name": "",
							"type": "string"
						}
					],
					"stateMutability": "nonpayable",
					"type": "function"
				},
				{
					"inputs": [],
					"name": "score",
					"outputs": [
						{
							"internalType": "uint256",
							"name": "",
							"type": "uint256"
						}
					],
					"stateMutability": "view",
					"type": "function"
				}
			],
			"devdoc": {
				"kind": "dev",
				"methods": {},
				"version": 1
			},
			"evm": {
				"assembly": "    /* \"Contracts.sol\":175:772  contract oeGame{... */\n  mstore(0x40, 0x80)\n    /* \"Contracts.sol\":264:265  0 */\n  0x00\n    /* \"Contracts.sol\":244:265  uint256 randNonce = 0 */\n  0x02\n  sstore\n    /* \"Contracts.sol\":175:772  contract oeGame{... */\n  callvalue\n  dup1\n  iszero\n  tag_1\n  jumpi\n  0x00\n  dup1\n  revert\ntag_1:\n  pop\n  dataSize(sub_0)\n  dup1\n  dataOffset(sub_0)\n  0x00\n  codecopy\n  0x00\n  return\nstop\n\nsub_0: assembly {\n        /* \"Contracts.sol\":175:772  contract oeGame{... */\n      mstore(0x40, 0x80)\n      callvalue\n      dup1\n      iszero\n      tag_1\n      jumpi\n      0x00\n      dup1\n      revert\n    tag_1:\n      pop\n      jumpi(tag_2, lt(calldatasize, 0x04))\n      shr(0xe0, calldataload(0x00))\n      dup1\n      0x5f72f450\n      eq\n      tag_3\n      jumpi\n      dup1\n      0xefedc669\n      eq\n      tag_4\n      jumpi\n    tag_2:\n      0x00\n      dup1\n      revert\n        /* \"Contracts.sol\":442:770  function check(uint256 _num) public returns(string memory) {... */\n    tag_3:\n      tag_5\n      0x04\n      dup1\n      calldatasize\n      sub\n      dup2\n      add\n      swap1\n      tag_6\n      swap2\n      swap1\n      tag_7\n      jump\t// in\n    tag_6:\n      tag_8\n      jump\t// in\n    tag_5:\n      mload(0x40)\n      tag_9\n      swap2\n      swap1\n      tag_10\n      jump\t// in\n    tag_9:\n      mload(0x40)\n      dup1\n      swap2\n      sub\n      swap1\n      return\n        /* \"Contracts.sol\":213:233  uint256 public score */\n    tag_4:\n      tag_11\n      tag_12\n      jump\t// in\n    tag_11:\n      mload(0x40)\n      tag_13\n      swap2\n      swap1\n      tag_14\n      jump\t// in\n    tag_13:\n      mload(0x40)\n      dup1\n      swap2\n      sub\n      swap1\n      return\n        /* \"Contracts.sol\":442:770  function check(uint256 _num) public returns(string memory) {... */\n    tag_8:\n        /* \"Contracts.sol\":486:499  string memory */\n      0x60\n        /* \"Contracts.sol\":526:527  1 */\n      0x01\n        /* \"Contracts.sol\":519:523  _num */\n      dup3\n        /* \"Contracts.sol\":519:527  _num >=1 */\n      lt\n      iszero\n        /* \"Contracts.sol\":519:540  _num >=1 && _num <= 6 */\n      dup1\n      iszero\n      tag_16\n      jumpi\n      pop\n        /* \"Contracts.sol\":539:540  6 */\n      0x06\n        /* \"Contracts.sol\":531:535  _num */\n      dup3\n        /* \"Contracts.sol\":531:540  _num <= 6 */\n      gt\n      iszero\n        /* \"Contracts.sol\":519:540  _num >=1 && _num <= 6 */\n    tag_16:\n        /* \"Contracts.sol\":511:580  require(_num >=1 && _num <= 6, \"Give a valid number between 1 and 6\") */\n      tag_17\n      jumpi\n      mload(0x40)\n      0x08c379a000000000000000000000000000000000000000000000000000000000\n      dup2\n      mstore\n      0x04\n      add\n      tag_18\n      swap1\n      tag_19\n      jump\t// in\n    tag_18:\n      mload(0x40)\n      dup1\n      swap2\n      sub\n      swap1\n      revert\n    tag_17:\n        /* \"Contracts.sol\":591:611  uint256 randomNumber */\n      0x00\n        /* \"Contracts.sol\":614:615  1 */\n      0x01\n        /* \"Contracts.sol\":591:615  uint256 randomNumber = 1 */\n      swap1\n      pop\n        /* \"Contracts.sol\":637:649  randomNumber */\n      dup1\n        /* \"Contracts.sol\":629:633  _num */\n      dup4\n        /* \"Contracts.sol\":629:649  _num != randomNumber */\n      eq\n        /* \"Contracts.sol\":626:764  if(_num != randomNumber){... */\n      tag_20\n      jumpi\n        /* \"Contracts.sol\":673:685  randomNumber */\n      dup1\n        /* \"Contracts.sol\":664:669  score */\n      0x01\n      0x00\n        /* \"Contracts.sol\":664:685  score += randomNumber */\n      dup3\n      dup3\n      sload\n      tag_21\n      swap2\n      swap1\n      tag_22\n      jump\t// in\n    tag_21:\n      swap3\n      pop\n      pop\n      dup2\n      swap1\n      sstore\n      pop\n        /* \"Contracts.sol\":699:712  return \"RUNS\" */\n      mload(0x40)\n      dup1\n      0x40\n      add\n      0x40\n      mstore\n      dup1\n      0x04\n      dup2\n      mstore\n      0x20\n      add\n      0x52554e5300000000000000000000000000000000000000000000000000000000\n      dup2\n      mstore\n      pop\n      swap2\n      pop\n      pop\n      jump(tag_15)\n        /* \"Contracts.sol\":626:764  if(_num != randomNumber){... */\n    tag_20:\n        /* \"Contracts.sol\":741:753  return \"OUT\" */\n      mload(0x40)\n      dup1\n      0x40\n      add\n      0x40\n      mstore\n      dup1\n      0x03\n      dup2\n      mstore\n      0x20\n      add\n      0x4f55540000000000000000000000000000000000000000000000000000000000\n      dup2\n      mstore\n      pop\n      swap2\n      pop\n      pop\n        /* \"Contracts.sol\":442:770  function check(uint256 _num) public returns(string memory) {... */\n    tag_15:\n      swap2\n      swap1\n      pop\n      jump\t// out\n        /* \"Contracts.sol\":213:233  uint256 public score */\n    tag_12:\n      sload(0x01)\n      dup2\n      jump\t// out\n        /* \"#utility.yul\":7:146   */\n    tag_25:\n        /* \"#utility.yul\":53:58   */\n      0x00\n        /* \"#utility.yul\":91:97   */\n      dup2\n        /* \"#utility.yul\":78:98   */\n      calldataload\n        /* \"#utility.yul\":69:98   */\n      swap1\n      pop\n        /* \"#utility.yul\":107:140   */\n      tag_27\n        /* \"#utility.yul\":134:139   */\n      dup2\n        /* \"#utility.yul\":107:140   */\n      tag_28\n      jump\t// in\n    tag_27:\n        /* \"#utility.yul\":7:146   */\n      swap3\n      swap2\n      pop\n      pop\n      jump\t// out\n        /* \"#utility.yul\":152:481   */\n    tag_7:\n        /* \"#utility.yul\":211:217   */\n      0x00\n        /* \"#utility.yul\":260:262   */\n      0x20\n        /* \"#utility.yul\":248:257   */\n      dup3\n        /* \"#utility.yul\":239:246   */\n      dup5\n        /* \"#utility.yul\":235:258   */\n      sub\n        /* \"#utility.yul\":231:263   */\n      slt\n        /* \"#utility.yul\":228:347   */\n      iszero\n      tag_30\n      jumpi\n        /* \"#utility.yul\":266:345   */\n      tag_31\n      tag_32\n      jump\t// in\n    tag_31:\n        /* \"#utility.yul\":228:347   */\n    tag_30:\n        /* \"#utility.yul\":386:387   */\n      0x00\n        /* \"#utility.yul\":411:464   */\n      tag_33\n        /* \"#utility.yul\":456:463   */\n      dup5\n        /* \"#utility.yul\":447:453   */\n      dup3\n        /* \"#utility.yul\":436:445   */\n      dup6\n        /* \"#utility.yul\":432:454   */\n      add\n        /* \"#utility.yul\":411:464   */\n      tag_25\n      jump\t// in\n    tag_33:\n        /* \"#utility.yul\":401:464   */\n      swap2\n      pop\n        /* \"#utility.yul\":357:474   */\n      pop\n        /* \"#utility.yul\":152:481   */\n      swap3\n      swap2\n      pop\n      pop\n      jump\t// out\n        /* \"#utility.yul\":487:851   */\n    tag_34:\n        /* \"#utility.yul\":575:578   */\n      0x00\n        /* \"#utility.yul\":603:642   */\n      tag_36\n        /* \"#utility.yul\":636:641   */\n      dup3\n        /* \"#utility.yul\":603:642   */\n      tag_37\n      jump\t// in\n    tag_36:\n        /* \"#utility.yul\":658:729   */\n      tag_38\n        /* \"#utility.yul\":722:728   */\n      dup2\n        /* \"#utility.yul\":717:720   */\n      dup6\n        /* \"#utility.yul\":658:729   */\n      tag_39\n      jump\t// in\n    tag_38:\n        /* \"#utility.yul\":651:729   */\n      swap4\n      pop\n        /* \"#utility.yul\":738:790   */\n      tag_40\n        /* \"#utility.yul\":783:789   */\n      dup2\n        /* \"#utility.yul\":778:781   */\n      dup6\n        /* \"#utility.yul\":771:775   */\n      0x20\n        /* \"#utility.yul\":764:769   */\n      dup7\n        /* \"#utility.yul\":760:776   */\n      add\n        /* \"#utility.yul\":738:790   */\n      tag_41\n      jump\t// in\n    tag_40:\n        /* \"#utility.yul\":815:844   */\n      tag_42\n        /* \"#utility.yul\":837:843   */\n      dup2\n        /* \"#utility.yul\":815:844   */\n      tag_43\n      jump\t// in\n    tag_42:\n        /* \"#utility.yul\":810:813   */\n      dup5\n        /* \"#utility.yul\":806:845   */\n      add\n        /* \"#utility.yul\":799:845   */\n      swap2\n      pop\n        /* \"#utility.yul\":579:851   */\n      pop\n        /* \"#utility.yul\":487:851   */\n      swap3\n      swap2\n      pop\n      pop\n      jump\t// out\n        /* \"#utility.yul\":857:1223   */\n    tag_44:\n        /* \"#utility.yul\":999:1002   */\n      0x00\n        /* \"#utility.yul\":1020:1087   */\n      tag_46\n        /* \"#utility.yul\":1084:1086   */\n      0x23\n        /* \"#utility.yul\":1079:1082   */\n      dup4\n        /* \"#utility.yul\":1020:1087   */\n      tag_39\n      jump\t// in\n    tag_46:\n        /* \"#utility.yul\":1013:1087   */\n      swap2\n      pop\n        /* \"#utility.yul\":1096:1189   */\n      tag_47\n        /* \"#utility.yul\":1185:1188   */\n      dup3\n        /* \"#utility.yul\":1096:1189   */\n      tag_48\n      jump\t// in\n    tag_47:\n        /* \"#utility.yul\":1214:1216   */\n      0x40\n        /* \"#utility.yul\":1209:1212   */\n      dup3\n        /* \"#utility.yul\":1205:1217   */\n      add\n        /* \"#utility.yul\":1198:1217   */\n      swap1\n      pop\n        /* \"#utility.yul\":857:1223   */\n      swap2\n      swap1\n      pop\n      jump\t// out\n        /* \"#utility.yul\":1229:1347   */\n    tag_49:\n        /* \"#utility.yul\":1316:1340   */\n      tag_51\n        /* \"#utility.yul\":1334:1339   */\n      dup2\n        /* \"#utility.yul\":1316:1340   */\n      tag_52\n      jump\t// in\n    tag_51:\n        /* \"#utility.yul\":1311:1314   */\n      dup3\n        /* \"#utility.yul\":1304:1341   */\n      mstore\n        /* \"#utility.yul\":1229:1347   */\n      pop\n      pop\n      jump\t// out\n        /* \"#utility.yul\":1353:1666   */\n    tag_10:\n        /* \"#utility.yul\":1466:1470   */\n      0x00\n        /* \"#utility.yul\":1504:1506   */\n      0x20\n        /* \"#utility.yul\":1493:1502   */\n      dup3\n        /* \"#utility.yul\":1489:1507   */\n      add\n        /* \"#utility.yul\":1481:1507   */\n      swap1\n      pop\n        /* \"#utility.yul\":1553:1562   */\n      dup2\n        /* \"#utility.yul\":1547:1551   */\n      dup2\n        /* \"#utility.yul\":1543:1563   */\n      sub\n        /* \"#utility.yul\":1539:1540   */\n      0x00\n        /* \"#utility.yul\":1528:1537   */\n      dup4\n        /* \"#utility.yul\":1524:1541   */\n      add\n        /* \"#utility.yul\":1517:1564   */\n      mstore\n        /* \"#utility.yul\":1581:1659   */\n      tag_54\n        /* \"#utility.yul\":1654:1658   */\n      dup2\n        /* \"#utility.yul\":1645:1651   */\n      dup5\n        /* \"#utility.yul\":1581:1659   */\n      tag_34\n      jump\t// in\n    tag_54:\n        /* \"#utility.yul\":1573:1659   */\n      swap1\n      pop\n        /* \"#utility.yul\":1353:1666   */\n      swap3\n      swap2\n      pop\n      pop\n      jump\t// out\n        /* \"#utility.yul\":1672:2091   */\n    tag_19:\n        /* \"#utility.yul\":1838:1842   */\n      0x00\n        /* \"#utility.yul\":1876:1878   */\n      0x20\n        /* \"#utility.yul\":1865:1874   */\n      dup3\n        /* \"#utility.yul\":1861:1879   */\n      add\n        /* \"#utility.yul\":1853:1879   */\n      swap1\n      pop\n        /* \"#utility.yul\":1925:1934   */\n      dup2\n        /* \"#utility.yul\":1919:1923   */\n      dup2\n        /* \"#utility.yul\":1915:1935   */\n      sub\n        /* \"#utility.yul\":1911:1912   */\n      0x00\n        /* \"#utility.yul\":1900:1909   */\n      dup4\n        /* \"#utility.yul\":1896:1913   */\n      add\n        /* \"#utility.yul\":1889:1936   */\n      mstore\n        /* \"#utility.yul\":1953:2084   */\n      tag_56\n        /* \"#utility.yul\":2079:2083   */\n      dup2\n        /* \"#utility.yul\":1953:2084   */\n      tag_44\n      jump\t// in\n    tag_56:\n        /* \"#utility.yul\":1945:2084   */\n      swap1\n      pop\n        /* \"#utility.yul\":1672:2091   */\n      swap2\n      swap1\n      pop\n      jump\t// out\n        /* \"#utility.yul\":2097:2319   */\n    tag_14:\n        /* \"#utility.yul\":2190:2194   */\n      0x00\n        /* \"#utility.yul\":2228:2230   */\n      0x20\n        /* \"#utility.yul\":2217:2226   */\n      dup3\n        /* \"#utility.yul\":2213:2231   */\n      add\n        /* \"#utility.yul\":2205:2231   */\n      swap1\n      pop\n        /* \"#utility.yul\":2241:2312   */\n      tag_58\n        /* \"#utility.yul\":2309:2310   */\n      0x00\n        /* \"#utility.yul\":2298:2307   */\n      dup4\n        /* \"#utility.yul\":2294:2311   */\n      add\n        /* \"#utility.yul\":2285:2291   */\n      dup5\n        /* \"#utility.yul\":2241:2312   */\n      tag_49\n      jump\t// in\n    tag_58:\n        /* \"#utility.yul\":2097:2319   */\n      swap3\n      swap2\n      pop\n      pop\n      jump\t// out\n        /* \"#utility.yul\":2406:2505   */\n    tag_37:\n        /* \"#utility.yul\":2458:2464   */\n      0x00\n        /* \"#utility.yul\":2492:2497   */\n      dup2\n        /* \"#utility.yul\":2486:2498   */\n      mload\n        /* \"#utility.yul\":2476:2498   */\n      swap1\n      pop\n        /* \"#utility.yul\":2406:2505   */\n      swap2\n      swap1\n      pop\n      jump\t// out\n        /* \"#utility.yul\":2511:2680   */\n    tag_39:\n        /* \"#utility.yul\":2595:2606   */\n      0x00\n        /* \"#utility.yul\":2629:2635   */\n      dup3\n        /* \"#utility.yul\":2624:2627   */\n      dup3\n        /* \"#utility.yul\":2617:2636   */\n      mstore\n        /* \"#utility.yul\":2669:2673   */\n      0x20\n        /* \"#utility.yul\":2664:2667   */\n      dup3\n        /* \"#utility.yul\":2660:2674   */\n      add\n        /* \"#utility.yul\":2645:2674   */\n      swap1\n      pop\n        /* \"#utility.yul\":2511:2680   */\n      swap3\n      swap2\n      pop\n      pop\n      jump\t// out\n        /* \"#utility.yul\":2686:2991   */\n    tag_22:\n        /* \"#utility.yul\":2726:2729   */\n      0x00\n        /* \"#utility.yul\":2745:2765   */\n      tag_64\n        /* \"#utility.yul\":2763:2764   */\n      dup3\n        /* \"#utility.yul\":2745:2765   */\n      tag_52\n      jump\t// in\n    tag_64:\n        /* \"#utility.yul\":2740:2765   */\n      swap2\n      pop\n        /* \"#utility.yul\":2779:2799   */\n      tag_65\n        /* \"#utility.yul\":2797:2798   */\n      dup4\n        /* \"#utility.yul\":2779:2799   */\n      tag_52\n      jump\t// in\n    tag_65:\n        /* \"#utility.yul\":2774:2799   */\n      swap3\n      pop\n        /* \"#utility.yul\":2933:2934   */\n      dup3\n        /* \"#utility.yul\":2865:2931   */\n      0xffffffffffffffffffffffffffffffffffffffffffffffffffffffffffffffff\n        /* \"#utility.yul\":2861:2935   */\n      sub\n        /* \"#utility.yul\":2858:2859   */\n      dup3\n        /* \"#utility.yul\":2855:2936   */\n      gt\n        /* \"#utility.yul\":2852:2959   */\n      iszero\n      tag_66\n      jumpi\n        /* \"#utility.yul\":2939:2957   */\n      tag_67\n      tag_68\n      jump\t// in\n    tag_67:\n        /* \"#utility.yul\":2852:2959   */\n    tag_66:\n        /* \"#utility.yul\":2983:2984   */\n      dup3\n        /* \"#utility.yul\":2980:2981   */\n      dup3\n        /* \"#utility.yul\":2976:2985   */\n      add\n        /* \"#utility.yul\":2969:2985   */\n      swap1\n      pop\n        /* \"#utility.yul\":2686:2991   */\n      swap3\n      swap2\n      pop\n      pop\n      jump\t// out\n        /* \"#utility.yul\":2997:3074   */\n    tag_52:\n        /* \"#utility.yul\":3034:3041   */\n      0x00\n        /* \"#utility.yul\":3063:3068   */\n      dup2\n        /* \"#utility.yul\":3052:3068   */\n      swap1\n      pop\n        /* \"#utility.yul\":2997:3074   */\n      swap2\n      swap1\n      pop\n      jump\t// out\n        /* \"#utility.yul\":3080:3387   */\n    tag_41:\n        /* \"#utility.yul\":3148:3149   */\n      0x00\n        /* \"#utility.yul\":3158:3271   */\n    tag_71:\n        /* \"#utility.yul\":3172:3178   */\n      dup4\n        /* \"#utility.yul\":3169:3170   */\n      dup2\n        /* \"#utility.yul\":3166:3179   */\n      lt\n        /* \"#utility.yul\":3158:3271   */\n      iszero\n      tag_73\n      jumpi\n        /* \"#utility.yul\":3257:3258   */\n      dup1\n        /* \"#utility.yul\":3252:3255   */\n      dup3\n        /* \"#utility.yul\":3248:3259   */\n      add\n        /* \"#utility.yul\":3242:3260   */\n      mload\n        /* \"#utility.yul\":3238:3239   */\n      dup2\n        /* \"#utility.yul\":3233:3236   */\n      dup5\n        /* \"#utility.yul\":3229:3240   */\n      add\n        /* \"#utility.yul\":3222:3261   */\n      mstore\n        /* \"#utility.yul\":3194:3196   */\n      0x20\n        /* \"#utility.yul\":3191:3192   */\n      dup2\n        /* \"#utility.yul\":3187:3197   */\n      add\n        /* \"#utility.yul\":3182:3197   */\n      swap1\n      pop\n        /* \"#utility.yul\":3158:3271   */\n      jump(tag_71)\n    tag_73:\n        /* \"#utility.yul\":3289:3295   */\n      dup4\n        /* \"#utility.yul\":3286:3287   */\n      dup2\n        /* \"#utility.yul\":3283:3296   */\n      gt\n        /* \"#utility.yul\":3280:3381   */\n      iszero\n      tag_74\n      jumpi\n        /* \"#utility.yul\":3369:3370   */\n      0x00\n        /* \"#utility.yul\":3360:3366   */\n      dup5\n        /* \"#utility.yul\":3355:3358   */\n      dup5\n        /* \"#utility.yul\":3351:3367   */\n      add\n        /* \"#utility.yul\":3344:3371   */\n      mstore\n        /* \"#utility.yul\":3280:3381   */\n    tag_74:\n        /* \"#utility.yul\":3129:3387   */\n      pop\n        /* \"#utility.yul\":3080:3387   */\n      pop\n      pop\n      pop\n      jump\t// out\n        /* \"#utility.yul\":3393:3573   */\n    tag_68:\n        /* \"#utility.yul\":3441:3518   */\n      0x4e487b7100000000000000000000000000000000000000000000000000000000\n        /* \"#utility.yul\":3438:3439   */\n      0x00\n        /* \"#utility.yul\":3431:3519   */\n      mstore\n        /* \"#utility.yul\":3538:3542   */\n      0x11\n        /* \"#utility.yul\":3535:3536   */\n      0x04\n        /* \"#utility.yul\":3528:3543   */\n      mstore\n        /* \"#utility.yul\":3562:3566   */\n      0x24\n        /* \"#utility.yul\":3559:3560   */\n      0x00\n        /* \"#utility.yul\":3552:3567   */\n      revert\n        /* \"#utility.yul\":3702:3819   */\n    tag_32:\n        /* \"#utility.yul\":3811:3812   */\n      0x00\n        /* \"#utility.yul\":3808:3809   */\n      dup1\n        /* \"#utility.yul\":3801:3813   */\n      revert\n        /* \"#utility.yul\":3825:3927   */\n    tag_43:\n        /* \"#utility.yul\":3866:3872   */\n      0x00\n        /* \"#utility.yul\":3917:3919   */\n      0x1f\n        /* \"#utility.yul\":3913:3920   */\n      not\n        /* \"#utility.yul\":3908:3910   */\n      0x1f\n        /* \"#utility.yul\":3901:3906   */\n      dup4\n        /* \"#utility.yul\":3897:3911   */\n      add\n        /* \"#utility.yul\":3893:3921   */\n      and\n        /* \"#utility.yul\":3883:3921   */\n      swap1\n      pop\n        /* \"#utility.yul\":3825:3927   */\n      swap2\n      swap1\n      pop\n      jump\t// out\n        /* \"#utility.yul\":3933:4155   */\n    tag_48:\n        /* \"#utility.yul\":4073:4107   */\n      0x4769766520612076616c6964206e756d626572206265747765656e203120616e\n        /* \"#utility.yul\":4069:4070   */\n      0x00\n        /* \"#utility.yul\":4061:4067   */\n      dup3\n        /* \"#utility.yul\":4057:4071   */\n      add\n        /* \"#utility.yul\":4050:4108   */\n      mstore\n        /* \"#utility.yul\":4142:4147   */\n      0x6420360000000000000000000000000000000000000000000000000000000000\n        /* \"#utility.yul\":4137:4139   */\n      0x20\n        /* \"#utility.yul\":4129:4135   */\n      dup3\n        /* \"#utility.yul\":4125:4140   */\n      add\n        /* \"#utility.yul\":4118:4148   */\n      mstore\n        /* \"#utility.yul\":3933:4155   */\n      pop\n      jump\t// out\n        /* \"#utility.yul\":4161:4283   */\n    tag_28:\n        /* \"#utility.yul\":4234:4258   */\n      tag_82\n        /* \"#utility.yul\":4252:4257   */\n      dup2\n        /* \"#utility.yul\":4234:4258   */\n      tag_52\n      jump\t// in\n    tag_82:\n        /* \"#utility.yul\":4227:4232   */\n      dup2\n        /* \"#utility.yul\":4224:4259   */\n      eq\n        /* \"#utility.yul\":4214:4277   */\n      tag_83\n      jumpi\n        /* \"#utility.yul\":4273:4274   */\n      0x00\n        /* \"#utility.yul\":4270:4271   */\n      dup1\n        /* \"#utility.yul\":4263:4275   */\n      revert\n        /* \"#utility.yul\":4214:4277   */\n    tag_83:\n        /* \"#utility.yul\":4161:4283   */\n      pop\n      jump\t// out\n\n    auxdata: 0xa26469706673582212201d142515971584b7ce808bde781b1a9ead15a3e54b1afad0695c4e51afd33a6964736f6c63430008070033\n}\n",
				"bytecode": {
					"linkReferences": {},
					"object": "6080604052600060025534801561001557600080fd5b5061041f806100256000396000f3fe608060405234801561001057600080fd5b50600436106100365760003560e01c80635f72f4501461003b578063efedc6691461006b575b600080fd5b6100556004803603810190610050919061019a565b610089565b6040516100629190610232565b60405180910390f35b61007361017f565b6040516100809190610274565b60405180910390f35b60606001821015801561009d575060068211155b6100dc576040517f08c379a00000000000000000000000000000000000000000000000000000000081526004016100d390610254565b60405180910390fd5b6000600190508083146101405780600160008282546100fb91906102ab565b925050819055506040518060400160405280600481526020017f52554e530000000000000000000000000000000000000000000000000000000081525091505061017a565b6040518060400160405280600381526020017f4f555400000000000000000000000000000000000000000000000000000000008152509150505b919050565b60015481565b600081359050610194816103d2565b92915050565b6000602082840312156101b0576101af61036d565b5b60006101be84828501610185565b91505092915050565b60006101d28261028f565b6101dc818561029a565b93506101ec81856020860161030b565b6101f581610372565b840191505092915050565b600061020d60238361029a565b915061021882610383565b604082019050919050565b61022c81610301565b82525050565b6000602082019050818103600083015261024c81846101c7565b905092915050565b6000602082019050818103600083015261026d81610200565b9050919050565b60006020820190506102896000830184610223565b92915050565b600081519050919050565b600082825260208201905092915050565b60006102b682610301565b91506102c183610301565b9250827fffffffffffffffffffffffffffffffffffffffffffffffffffffffffffffffff038211156102f6576102f561033e565b5b828201905092915050565b6000819050919050565b60005b8381101561032957808201518184015260208101905061030e565b83811115610338576000848401525b50505050565b7f4e487b7100000000000000000000000000000000000000000000000000000000600052601160045260246000fd5b600080fd5b6000601f19601f8301169050919050565b7f4769766520612076616c6964206e756d626572206265747765656e203120616e60008201527f6420360000000000000000000000000000000000000000000000000000000000602082015250565b6103db81610301565b81146103e657600080fd5b5056fea26469706673582212201d142515971584b7ce808bde781b1a9ead15a3e54b1afad0695c4e51afd33a6964736f6c63430008070033",
					"opcodes": "PUSH1 0x80 PUSH1 0x40 MSTORE PUSH1 0x0 PUSH1 0x2 SSTORE CALLVALUE DUP1 ISZERO PUSH2 0x15 JUMPI PUSH1 0x0 DUP1 REVERT JUMPDEST POP PUSH2 0x41F DUP1 PUSH2 0x25 PUSH1 0x0 CODECOPY PUSH1 0x0 RETURN INVALID PUSH1 0x80 PUSH1 0x40 MSTORE CALLVALUE DUP1 ISZERO PUSH2 0x10 JUMPI PUSH1 0x0 DUP1 REVERT JUMPDEST POP PUSH1 0x4 CALLDATASIZE LT PUSH2 0x36 JUMPI PUSH1 0x0 CALLDATALOAD PUSH1 0xE0 SHR DUP1 PUSH4 0x5F72F450 EQ PUSH2 0x3B JUMPI DUP1 PUSH4 0xEFEDC669 EQ PUSH2 0x6B JUMPI JUMPDEST PUSH1 0x0 DUP1 REVERT JUMPDEST PUSH2 0x55 PUSH1 0x4 DUP1 CALLDATASIZE SUB DUP2 ADD SWAP1 PUSH2 0x50 SWAP2 SWAP1 PUSH2 0x19A JUMP JUMPDEST PUSH2 0x89 JUMP JUMPDEST PUSH1 0x40 MLOAD PUSH2 0x62 SWAP2 SWAP1 PUSH2 0x232 JUMP JUMPDEST PUSH1 0x40 MLOAD DUP1 SWAP2 SUB SWAP1 RETURN JUMPDEST PUSH2 0x73 PUSH2 0x17F JUMP JUMPDEST PUSH1 0x40 MLOAD PUSH2 0x80 SWAP2 SWAP1 PUSH2 0x274 JUMP JUMPDEST PUSH1 0x40 MLOAD DUP1 SWAP2 SUB SWAP1 RETURN JUMPDEST PUSH1 0x60 PUSH1 0x1 DUP3 LT ISZERO DUP1 ISZERO PUSH2 0x9D JUMPI POP PUSH1 0x6 DUP3 GT ISZERO JUMPDEST PUSH2 0xDC JUMPI PUSH1 0x40 MLOAD PUSH32 0x8C379A000000000000000000000000000000000000000000000000000000000 DUP2 MSTORE PUSH1 0x4 ADD PUSH2 0xD3 SWAP1 PUSH2 0x254 JUMP JUMPDEST PUSH1 0x40 MLOAD DUP1 SWAP2 SUB SWAP1 REVERT JUMPDEST PUSH1 0x0 PUSH1 0x1 SWAP1 POP DUP1 DUP4 EQ PUSH2 0x140 JUMPI DUP1 PUSH1 0x1 PUSH1 0x0 DUP3 DUP3 SLOAD PUSH2 0xFB SWAP2 SWAP1 PUSH2 0x2AB JUMP JUMPDEST SWAP3 POP POP DUP2 SWAP1 SSTORE POP PUSH1 0x40 MLOAD DUP1 PUSH1 0x40 ADD PUSH1 0x40 MSTORE DUP1 PUSH1 0x4 DUP2 MSTORE PUSH1 0x20 ADD PUSH32 0x52554E5300000000000000000000000000000000000000000000000000000000 DUP2 MSTORE POP SWAP2 POP POP PUSH2 0x17A JUMP JUMPDEST PUSH1 0x40 MLOAD DUP1 PUSH1 0x40 ADD PUSH1 0x40 MSTORE DUP1 PUSH1 0x3 DUP2 MSTORE PUSH1 0x20 ADD PUSH32 0x4F55540000000000000000000000000000000000000000000000000000000000 DUP2 MSTORE POP SWAP2 POP POP JUMPDEST SWAP2 SWAP1 POP JUMP JUMPDEST PUSH1 0x1 SLOAD DUP2 JUMP JUMPDEST PUSH1 0x0 DUP2 CALLDATALOAD SWAP1 POP PUSH2 0x194 DUP2 PUSH2 0x3D2 JUMP JUMPDEST SWAP3 SWAP2 POP POP JUMP JUMPDEST PUSH1 0x0 PUSH1 0x20 DUP3 DUP5 SUB SLT ISZERO PUSH2 0x1B0 JUMPI PUSH2 0x1AF PUSH2 0x36D JUMP JUMPDEST JUMPDEST PUSH1 0x0 PUSH2 0x1BE DUP5 DUP3 DUP6 ADD PUSH2 0x185 JUMP JUMPDEST SWAP2 POP POP SWAP3 SWAP2 POP POP JUMP JUMPDEST PUSH1 0x0 PUSH2 0x1D2 DUP3 PUSH2 0x28F JUMP JUMPDEST PUSH2 0x1DC DUP2 DUP6 PUSH2 0x29A JUMP JUMPDEST SWAP4 POP PUSH2 0x1EC DUP2 DUP6 PUSH1 0x20 DUP7 ADD PUSH2 0x30B JUMP JUMPDEST PUSH2 0x1F5 DUP2 PUSH2 0x372 JUMP JUMPDEST DUP5 ADD SWAP2 POP POP SWAP3 SWAP2 POP POP JUMP JUMPDEST PUSH1 0x0 PUSH2 0x20D PUSH1 0x23 DUP4 PUSH2 0x29A JUMP JUMPDEST SWAP2 POP PUSH2 0x218 DUP3 PUSH2 0x383 JUMP JUMPDEST PUSH1 0x40 DUP3 ADD SWAP1 POP SWAP2 SWAP1 POP JUMP JUMPDEST PUSH2 0x22C DUP2 PUSH2 0x301 JUMP JUMPDEST DUP3 MSTORE POP POP JUMP JUMPDEST PUSH1 0x0 PUSH1 0x20 DUP3 ADD SWAP1 POP DUP2 DUP2 SUB PUSH1 0x0 DUP4 ADD MSTORE PUSH2 0x24C DUP2 DUP5 PUSH2 0x1C7 JUMP JUMPDEST SWAP1 POP SWAP3 SWAP2 POP POP JUMP JUMPDEST PUSH1 0x0 PUSH1 0x20 DUP3 ADD SWAP1 POP DUP2 DUP2 SUB PUSH1 0x0 DUP4 ADD MSTORE PUSH2 0x26D DUP2 PUSH2 0x200 JUMP JUMPDEST SWAP1 POP SWAP2 SWAP1 POP JUMP JUMPDEST PUSH1 0x0 PUSH1 0x20 DUP3 ADD SWAP1 POP PUSH2 0x289 PUSH1 0x0 DUP4 ADD DUP5 PUSH2 0x223 JUMP JUMPDEST SWAP3 SWAP2 POP POP JUMP JUMPDEST PUSH1 0x0 DUP2 MLOAD SWAP1 POP SWAP2 SWAP1 POP JUMP JUMPDEST PUSH1 0x0 DUP3 DUP3 MSTORE PUSH1 0x20 DUP3 ADD SWAP1 POP SWAP3 SWAP2 POP POP JUMP JUMPDEST PUSH1 0x0 PUSH2 0x2B6 DUP3 PUSH2 0x301 JUMP JUMPDEST SWAP2 POP PUSH2 0x2C1 DUP4 PUSH2 0x301 JUMP JUMPDEST SWAP3 POP DUP3 PUSH32 0xFFFFFFFFFFFFFFFFFFFFFFFFFFFFFFFFFFFFFFFFFFFFFFFFFFFFFFFFFFFFFFFF SUB DUP3 GT ISZERO PUSH2 0x2F6 JUMPI PUSH2 0x2F5 PUSH2 0x33E JUMP JUMPDEST JUMPDEST DUP3 DUP3 ADD SWAP1 POP SWAP3 SWAP2 POP POP JUMP JUMPDEST PUSH1 0x0 DUP2 SWAP1 POP SWAP2 SWAP1 POP JUMP JUMPDEST PUSH1 0x0 JUMPDEST DUP4 DUP2 LT ISZERO PUSH2 0x329 JUMPI DUP1 DUP3 ADD MLOAD DUP2 DUP5 ADD MSTORE PUSH1 0x20 DUP2 ADD SWAP1 POP PUSH2 0x30E JUMP JUMPDEST DUP4 DUP2 GT ISZERO PUSH2 0x338 JUMPI PUSH1 0x0 DUP5 DUP5 ADD MSTORE JUMPDEST POP POP POP POP JUMP JUMPDEST PUSH32 0x4E487B7100000000000000000000000000000000000000000000000000000000 PUSH1 0x0 MSTORE PUSH1 0x11 PUSH1 0x4 MSTORE PUSH1 0x24 PUSH1 0x0 REVERT JUMPDEST PUSH1 0x0 DUP1 REVERT JUMPDEST PUSH1 0x0 PUSH1 0x1F NOT PUSH1 0x1F DUP4 ADD AND SWAP1 POP SWAP2 SWAP1 POP JUMP JUMPDEST PUSH32 0x4769766520612076616C6964206E756D626572206265747765656E203120616E PUSH1 0x0 DUP3 ADD MSTORE PUSH32 0x6420360000000000000000000000000000000000000000000000000000000000 PUSH1 0x20 DUP3 ADD MSTORE POP JUMP JUMPDEST PUSH2 0x3DB DUP2 PUSH2 0x301 JUMP JUMPDEST DUP2 EQ PUSH2 0x3E6 JUMPI PUSH1 0x0 DUP1 REVERT JUMPDEST POP JUMP INVALID LOG2 PUSH5 0x6970667358 0x22 SLT KECCAK256 SAR EQ 0x25 ISZERO SWAP8 ISZERO DUP5 0xB7 0xCE DUP1 DUP12 0xDE PUSH25 0x1B1A9EAD15A3E54B1AFAD0695C4E51AFD33A6964736F6C6343 STOP ADDMOD SMOD STOP CALLER "
				},
				"gasEstimates": {
					"creation": {
						"codeDepositCost": "211000",
						"executionCost": "5257",
						"totalCost": "216257"
					},
					"external": {
						"check(uint256)": "infinite",
						"score()": "2429"
					},
					"internal": {
						"random()": "infinite"
					}
				},
				"methodIdentifiers": {
					"check(uint256)": "5f72f450",
					"score()": "efedc669"
				}
			},
			"storageLayout": {
				"storage": [
					{
						"astId": 230,
						"contract": "Contracts.sol:oeGame",
						"label": "num",
						"offset": 0,
						"slot": "0",
						"type": "t_uint256"
					},
					{
						"astId": 232,
						"contract": "Contracts.sol:oeGame",
						"label": "score",
						"offset": 0,
						"slot": "1",
						"type": "t_uint256"
					},
					{
						"astId": 235,
						"contract": "Contracts.sol:oeGame",
						"label": "randNonce",
						"offset": 0,
						"slot": "2",
						"type": "t_uint256"
					}
				],
				"types": {
					"t_uint256": {
						"encoding": "inplace",
						"label": "uint256",
						"numberOfBytes": "32"
					}
				}
			},
			"userdoc": {
				"kind": "user",
				"methods": {},
				"version": 1
			}
		}
	}
}